:1000000002C1000031C100002FC100002DC100005D
:100010002BC1000029C1000027C1000025C100003C
:1000200023C1000021C100001FC100001DC100004C
:100030001BC1000019C1000017C1000015C100005C
:1000400013C1000011C100000FC100000DC100006C
:100050000BC1000009C1000007C100000C943A0A5E
:1000600003C100000C94040A0C94DA09FDC00000DE
:10007000FBC00000F9C00000F7C00000F5C00000A0
:10008000F3C00000F1C00000EFC00000EDC00000B0
:10009000EBC00000E9C00000E7C00000E5C00000C0
:1000A000E3C00000E1C00000DFC00000DDC00000D0
:1000B000DBC00000D9C00000D7C00000D5C00000E0
:1000C000D3C00000D1C00000CFC00000CDC00000F0
:1000D000CBC00000C9C00000C7C00000C5C0000000
:1000E000C3C0000000002100240027002A002D00CA
:1000F0003000330001010000040107010A01000083
:100100002200250028002B002E00310034000201BF
:100110000000050108010B0100000A0B02090C0D8B
:100120000E080703040100000000000000000000AA
:1001300000000000000000000000000000000000BF
:10014000000000001211100000000000000000007C
:10015000000000000000000000000000000000009F
:1001600020002300260029002C002F00320000016F
:10017000000003010601090105050505070508083A
:100180000808020202020A0A080804040404010121
:100190000101010101010303030303030303040736
:1001A00007070C0C0C0C0C0C0C0C020202020606CD
:1001B0000606060606060B0B0B0B0B0B0B0B0102C0
:1001C0001020200808102040102040800201020169
:1001D0000804020101020408102040808040201021
:1001E000080402018004020180402010080402017A
:1001F00008040201010204081020408001020408E2
:1002000010204080840A11241FBECFEFD1E2DEBF50
:10021000CDBF00E00CBF12E0A0E0B2E0E2E3FBE201
:1002200000E00BBF02C007900D92A039B107D9F7CB
:1002300024E0A0E9B2E001C01D92AD36B207E1F7BB
:1002400011E0C3E0D1E000E006C021970109802F52
:10025000FE010E947E13C230D10780E00807A9F793
:100260000E94040C0C949715CBCECF92DF92EF92A4
:10027000FF92CF93DF93B091BF03A0E08111AB2F2A
:100280008091C00390E0880F991FAC01425A5E4FE5
:10029000C090C503D090C603E090C703F090C80398
:1002A00030E020E0FA01C591D491E881B90190E0F5
:1002B00080E0EB23EA130AC02F5F3F4F6C157D05EA
:1002C0008E059F0578F36FEF7FEFCB01DF91CF9124
:1002D000FF90EF90DF90CF900895AF92BF92CF92B2
:1002E000DF92EF92FF920F931F93CF93DF936C01F6
:1002F0007B018B01040F151FEB015E01AE18BF08D7
:10030000C017D10759F06991D601ED91FC91019088
:10031000F081E02DC6011995892B79F7C501DF9190
:10032000CF911F910F91FF90EF90DF90CF90BF90F2
:10033000AF900895FC01448155816081718183EF04
:1003400092E0CBCFFC01538D448D252F30E0842FDC
:1003500090E0821B930B541710F0CF9608950197ED
:100360000895FC01918D828D981761F0A28DAE0FDA
:10037000BF2FB11D5D968C91928D9F5F9F73928F61
:1003800090E008958FEF9FEF0895FC01918D828D8D
:10039000981731F0828DE80FF11D858D90E008955A
:1003A0008FEF9FEF0895FC01918D228D892F90E0B2
:1003B000805C9F4F821B91098F739927089583EF6B
:1003C00092E0F1DF21E0892B09F420E0822F0895EB
:1003D000FC01A48DA80FB92FB11DA35ABF4F2C91BA
:1003E000848D90E001968F739927848FA689B789B1
:1003F0002C93A089B1898C91837080648C93938DA8
:10040000848D981306C00288F389E02D80818F7D4A
:1004100080830895EF92FF920F931F93CF93DF9302
:10042000EC0181E0888F9B8D8C8D98131AC0E88930
:10043000F989808185FF15C09FB7F894EE89FF89FF
:100440006083E889F98980818370806480839FBF9D
:1004500081E090E0DF91CF911F910F91FF90EF909D
:100460000895F62E0B8D10E00F5F1F4F0F731127AD
:10047000E02E8C8D8E110BC00FB607FCFACFE889E9
:10048000F989808185FFF5CFCE01A2DFF2CFEB8D18
:10049000EC0FFD2FF11DE35AFF4FF0829FB7F89448
:1004A0000B8FEA89FB8980818062D0CFCF93DF9365
:1004B000EC01888D8823B1F0AA89BB89E889F98984
:1004C0008C9185FD03C0808186FD0CC00FB607FCB2
:1004D000F7CF8C9185FFF2CF808185FFEDCFCE01E4
:1004E00077DFEACFDF91CF91089580E090E0892B0C
:1004F00021F065DF81110E94000080E090E0892BEF
:1005000049F080E090E0892B29F00E9400008111E1
:100510000E94000080E090E0892B49F080E090E0AC
:10052000892B29F00E94000081110E94000080E0C8
:1005300090E0892B49F080E090E0892B29F00E941F
:10054000000081110C9400000895282F30E0F9017B
:10055000E85EFE4F9491F901E254FE4F4491285811
:100560003E4FF9012491222309F435C0992311F15A
:1005700091509231F8F4E92FF0E08827ED53FD4FC8
:100580008F4F0C947E13F402F802D502EC02F002B5
:10059000DA02FB02010305030B030F031303190324
:1005A0001D03DA02210327032B03809180008F773C
:1005B00080938000E22FF0E0EE0FFF1FE250FF4F2C
:1005C000A591B4918FB7F894EC91611148C0409512
:1005D0004E234C938FBF0895809180008F7DE8CF8C
:1005E00080918000877FE4CF84B58F7784BDE2CF90
:1005F00084B58F7DFBCF8091B0008F778093B00062
:10060000D9CF8091B0008F7DF9CF809190008F7706
:1006100080939000CFCF809190008F7DF9CF809113
:100620009000877FF5CF8091A0008F778093A00006
:10063000C1CF8091A0008F7DF9CF8091A000877FEE
:10064000F5CF809120018F7780932001B3CF8091E7
:1006500020018F7DF9CF80912001877FF5CF4E2B30
:10066000B8CFCF93DF9390E0FC01E254FE4F24918A
:1006700088589E4FFC0184918823D1F090E0880F28
:10068000991FFC01EC51FF4FA591B491FC01E25080
:10069000FF4FC591D491623071F49FB7F8943C91AB
:1006A000822F809583238C93E8812E2B28839FBFF4
:1006B000DF91CF9108958FB7F894EC912E2B2C9366
:1006C0008FBFF6CF863308F0865320917B00982F9A
:1006D0009870277F922B90937B0087708064809323
:1006E0007C0080917A00806480937A0080917A0007
:1006F00086FDFCCF809178009091790008953FB7F6
:10070000F8948091910290919202A0919302B091FD
:10071000940226B5A89B05C02F3F19F00196A11D94
:10072000B11D3FBFBA2FA92F982F8827BC01CD013B
:10073000620F711D811D911D42E0660F771F881F9A
:10074000991F4A95D1F708958F929F92AF92BF92C9
:10075000CF92DF92EF92FF924B015C01D0DF6B01F1
:100760007C01CDDF6C197D098E099F09683E7340BD
:1007700081059105B0F321E0821A9108A108B10822
:1007800088EEC80E83E0D81EE11CF11C8114910490
:10079000A104B10431F7FF90EF90DF90CF90BF90AC
:1007A000AF909F908F900895CF92DF92EF92FF923B
:1007B0000F931F93CF93DF93CDB7DEB7C054D140D3
:1007C0000FB6F894DEBF0FBECDBF2FB7F89480915F
:1007D000EF029091F002A091F102B091F2022FBFCE
:1007E0004091C1035091C2036091C3037091C4034F
:1007F0008C019D01041B150B260B370BB901A801B9
:10080000403D57406105710590F48091C903C05C7B
:10081000DE4F0FB6F894DEBF0FBECDBFDF91CF9194
:100820001F910F91FF90EF90DF90CF9008958093EC
:10083000C1039093C203A093C303B093C403109267
:10084000BC031092BB031092BA031092B90310922A
:10085000B80362E08091BD0304DF61E070E080E0F6
:1008600090E072DF61E08091BD03FBDE60E080918B
:10087000BD036BDE8091BE038551823010F58BE2A3
:1008800091E10197F1F762E08091BD03EADE80918A
:10089000CA0390E08230910538F0880F991F880FC5
:1008A000991F05970197F1F7F89480E0DEDC6F3F20
:1008B0007F4F8F4F9F4F59F41092C903789480E077
:1008C000A6CF64E170E080E090E03EDFDCCF81E025
:1008D000CCDC6F3F7F4F8F4F9F4F71F38E010F5FC7
:1008E0001F4F6E018FEBC81A8EEFD80A780180E097
:1008F000BCDCF701608371838283938381E0B5DC84
:10090000F7016483758386839783F8E0EF0EF11C0B
:10091000EC14FD0461F7789430E020E0F801C08029
:10092000D180E280F3804481558166817781FFEF39
:10093000CF16DF06EF06FF0631F04F3F8FEF580767
:100940006807780719F41092C903B9CFF90183E059
:10095000F595E7958A95E1F7E854FC4F8081880F7B
:10096000C416D506E606F70610F180832F5F3F4FC9
:10097000085F1F4F2832310589F64091BC03209152
:10098000B8038091B903280F3327331F8091BA032E
:10099000280F311D8091BB03820F932F911D992742
:1009A0004817190681F681E08093C90330CF816032
:1009B000DCCFEF92FF920F931F93CF93DF938C01C5
:1009C000EB01F12CE12C61E070E080E090E0BCDE16
:1009D0008FEFE81AF80ACE15DF05A9F79E0121501E
:1009E000310950E040E02F5F3F4F4F4F5F4FD8013C
:1009F0000E94EA119E01DD0F440B550B0E94C411A9
:100A0000CA01B9010E94B110DF91CF911F910F91DE
:100A1000FF90EF900895CF93DF93EC018C8152DE2D
:100A20008C8150DE8C814EDE6AE070E0C2DF0E9475
:100A3000EE127F876E87DF91CF9108951F93CF933A
:100A4000DF93EC011C81812F3DDE8C813BDE812F09
:100A500039DE64E170E0ADDF6E877F87888B998B2C
:100A600020E030E040E85AE30E94101120E030E43A
:100A70004CE955E40E9410116A8B7B8B8C8B9D8B0B
:100A80002A853B854C855D850E9421122E813F8100
:100A9000488559850E948612688379838A839B835F
:100AA000DF91CF911F910895FC0101900020E9F79B
:100AB0003197AF01481B590BBC0183EF92E00DCC7D
:100AC0008F929F92AF92BF920F931F93CF93DF931A
:100AD000CDB7DEB7A1970FB6F894DEBF0FBECDBF7E
:100AE00019A2423008F44AE08E010F5D1F4F842E98
:100AF000912CB12CA12CA50194010E94F011E62F9C
:100B0000B901CA01EA30ECF4E05DD801EE938D0141
:100B1000232B242B252B79F790E080E0109711F000
:100B2000CD01C2DFA1960FB6F894DEBF0FBECDBFD8
:100B3000DF91CF911F910F91BF90AF909F908F90B9
:100B40000895E95CE2CFFC01808191810C9422142C
:100B5000EF92FF920F931F93CF93DF93EC017B01F2
:100B6000198218821B821A821D821C82FB0101904D
:100B70000020E9F731978F01061B170BB8016F5F53
:100B80007F4F90E080E00E94AB140097B9F099830A
:100B900088831B830A832C813D81232B11F4FC0164
:100BA00010821D830C83B70188819981DF91CF91D9
:100BB0001F910F91FF90EF900C949015888199816F
:100BC000009711F00E942214198218821D821C8243
:100BD0001B821A82DF91CF911F910F91FF90EF90AE
:100BE00008954F925F926F927F928F929F92AF92F1
:100BF000BF92CF92DF92EF92FF92CF93DF9300D01C
:100C000000D01F921F92CDB7DEB79A838983DC0193
:100C10008C9158DDE981FA81808154DDA981BA8106
:100C20008C9150DD6AE070E0C4DE9B01AC01E9818B
:100C3000FA81228333834483558360E070EC8FE72D
:100C400094E40E94861220E030E040E85FE30E94D6
:100C500021129B01AC0160E070E48CE995E40E94F4
:100C60008612A981BA811A962D913D914D915C9180
:100C70001D970E9422122B013C01E981FA814682D4
:100C8000578260867186C684D784E088F18822897D
:100C9000338944895589C701B6010E9410114B015F
:100CA0005C01A981BA8156968D919D910D90BC9160
:100CB000A02D89839A83AB83BC8320E030E040E899
:100CC00050ECC701B6010E94101129813A814B8175
:100CD0005C810E9410116D837E838F839887A301AE
:100CE0009201C701B6010E9421129B01AC016D81E6
:100CF0007E818F8198850E9410112B013C01A501F6
:100D00009401C501B4010E9410119B01AC01C30103
:100D1000B2010E9422120E942713A50194010E9491
:100D200021124B015C01A7019601C701B6010E9487
:100D3000221229813A814B815C810E9410119B0112
:100D4000AC01C501B4010E94861228960FB6F89432
:100D5000DEBF0FBECDBFDF91CF91FF90EF90DF9050
:100D6000CF90BF90AF909F908F907F906F905F904B
:100D70004F9008958F929F92AF92BF92CF92DF9241
:100D8000EF92FF920F931F935B0169017A01D2DA10
:100D900088E192E089DEC501CDDA88E192E084DE67
:100DA000A7019601C701B6010E9465138823A9F027
:100DB0008AE192E079DE88E192E076DEC801BADA73
:100DC00086E292E01F910F91FF90EF90DF90CF901D
:100DD000BF90AF909F908F9067CE46015701E894E7
:100DE000B7F82FEF3FEF4FE75FE7C501B4010E946F
:100DF000651381110DC02FEF3FEF4FE75FE7C5018E
:100E0000B4010E94AB1018161CF48EE192E0D2CF10
:100E10002FEF3FEF4FE75FE4C701B6010E941F13BA
:100E200018161CF482E292E0C5CF2FEF3FEF4FE798
:100E30005FECC701B6010E94AB1087FDF3CF20E045
:100E400030E0A901C701B6010E94AB1087FF08C0BE
:100E50006DE283EF92E0DEDAF7FAF094F7F8F094BF
:100E60002AE037ED43EA5BE3C701B6010E94221294
:100E70004B015C010E94F3126B017C010E94AF10D8
:100E80009B01AC01C501B4010E9421124B015C0120
:100E90004AE0C701B60114DE6EE283EF92E0BADAEF
:100EA00020E030E040E251E4C501B4010E9410119D
:100EB0004B015C010E94F3126B01F12CE12C4AE022
:100EC000C701B601FDDDC701B6010E94AF109B014D
:100ED000AC01C501B4010E94211220E030E040E2E3
:100EE00051E40E9410110E94F31290E080E04AE069
:100EF000E7DD61CFCF92DF92EF92FF920F931F93C6
:100F0000CF93DF93CDB7DEB762970FB6F894DEBF0D
:100F10000FBECDBF62E372E0CE010D9619DEC09028
:100F2000C902D090CA02E090CB02F090CC0268E2F5
:100F300072E0CE0107960CDE6CE272E0CE01019603
:100F400007DE8E01035F1F4FA7019601BE01695F97
:100F50007F4FCE0101960EDFCE010196F4DDCE016A
:100F60000796F1DDC801EFDD62E372E0C801F0DD54
:100F7000C090BD02D090BE02E090BF02F090C002CF
:100F800061E372E0CE010796E3DD6CE272E0CE0130
:100F90000196DEDDA7019601BE01695F7F4FCE019C
:100FA0000196E8DECE010196CEDDCE010796CBDDBF
:100FB000C801C9DD64E372E0C801CADDC090CD029A
:100FC000D090CE02E090CF02F090D00266E372E0C3
:100FD000CE010796BDDD6CE272E0CE010196B8DD70
:100FE000A7019601BE01695F7F4FCE010196C2DE67
:100FF000CE010196A8DDCE010796A5DDC801A3DDCF
:1010000064E372E0C801A4DDC090C102D090C202C6
:10101000E090C302F090C4026AE372E0CE0107964A
:1010200097DD6CE272E0CE01019692DDA701960198
:10103000BE01695F7F4FCE0101969CDECE01019615
:1010400082DDCE0107967FDDC8017DDD64E372E0BD
:10105000C8017EDDC090B502D090B602E090B70224
:10106000F090B8026DE372E0CE01079671DD6CE29C
:1010700072E0CE0101966CDDA7019601BE01695FA9
:101080007F4FCE01019676DECE0101965CDDCE016A
:10109000079659DDC80157DD64E372E0C80158DDE9
:1010A000C090C502D090C602E090C702F090C8027E
:1010B00060E472E0CE0107964BDD6CE272E0CE0197
:1010C000019646DDA7019601BE01695F7F4FCE0103
:1010D000019650DECE01019636DDCE01079633DD56
:1010E000C80131DD64E372E0C80132DDC090B902AD
:1010F000D090BA02E090BB02F090BC0264E472E0CF
:10110000CE01079625DD6CE272E0CE01019620DD6E
:10111000A7019601BE01695F7F4FCE0101962ADECD
:10112000CE01019610DDCE0107960DDDC8010BDD65
:1011300064E372E0C8010CDDC090B102D090B2024D
:10114000E090B302F090B40267E472E0CE0107963B
:10115000FFDC6CE272E0CE010196FADCA701960199
:10116000BE01695F7F4FCE01019604DECE0101967C
:10117000EADCCE010796E7DCC801E5DC6AE472E050
:10118000C801E6DCC090E702D090E802E090E902F6
:10119000F090EA0262E572E0CE010796D9DC6CE2DB
:1011A00072E0CE010196D4DCA7019601BE01695F11
:1011B0007F4FCE010196DEDDCE010196C4DCCE016B
:1011C0000796C1DCC801BFDC6AE472E0C801C0DC7C
:1011D000C090E302D090E402E090E502F090E602D5
:1011E00065E572E0CE010796B3DC6CE272E0CE01F9
:1011F0000196AEDCA7019601BE01695F7F4FCE016B
:101200000196B8DDCE0101969EDCCE0107969BDCEF
:10121000C80199DC69E572E0C8019ADCC090DF0280
:10122000D090E002E090E102F090E2026BE572E023
:10123000CE0107968DDC6CE272E0CE01019688DC6F
:10124000A7019601BE01695F7F4FCE01019692DD35
:10125000CE01019678DCCE01079675DCC80173DCFF
:1012600062E672E0C80174DCC090DB02D090DC0260
:10127000E090DD02F090DE026AE672E0CE010796B1
:1012800067DC6CE272E0CE01019662DCA701960198
:10129000BE01695F7F4FCE0101966CDDCE010196E4
:1012A00052DCCE0107964FDCC8014DDC62E772E0EC
:1012B000C8014EDCC090D702D090D802E090D9028D
:1012C000F090DA0266E772E0CE01079641DC6CE24C
:1012D00072E0CE0101963CDCA7019601BE01695F78
:1012E0007F4FCE01019646DDCE0101962CDCCE016A
:1012F000079629DCC80127DC60E872E0C80128DC19
:101300006091D5027091D602072E000C880B990BC4
:1013100028D76B017C0167E872E0CE01079618DCE4
:101320006CE272E0CE01019613DCA7019601BE01CA
:10133000695F7F4FCE0101961DDDCE01019603DC72
:10134000CE01079600DCC801FEDB69E572E0C8014A
:10135000FFDBC090AD02D090AE02E090AF02F09003
:10136000B0026CE872E0CE010796F2DB6CE272E04C
:10137000CE010196EDDBA7019601BE01695F7F4FAB
:10138000CE010196F7DCCE010196DDDBCE0107969A
:10139000DADBC801D8DB62960FB6F894DEBF0FBE69
:1013A000CDBFDF91CF911F910F91FF90EF90DF9014
:1013B000CF9008951F920F920FB60F9211240BB683
:1013C0000F922F933F934F935F936F937F938F93DE
:1013D0009F93AF93BF93EF93FF9383EF92E00E94AD
:1013E000E801FF91EF91BF91AF919F918F917F9114
:1013F0006F915F914F913F912F910F900BBE0F9086
:101400000FBE0F901F9018951F920F920FB60F925C
:1014100011240BB60F922F938F939F93EF93FF930B
:10142000E0910303F09104038081E0910903F091BE
:101430000A0382FD1DC0908180910C038F5F8F7322
:1014400020910D03821741F0E0910C03F0E0ED5084
:10145000FD4F958F80930C03FF91EF919F918F919A
:101460002F910F900BBE0F900FBE0F901F901895ED
:101470008081F2CF1F920F920FB60F9211242F93FB
:101480003F938F939F93AF93BF938091EF0290917F
:10149000F002A091F102B091F2023091900223E0AB
:1014A000230F2D3758F50196A11DB11D20939002F1
:1014B0008093EF029093F002A093F102B093F202B6
:1014C0008091910290919202A0919302B091940226
:1014D0000196A11DB11D8093910290939202A09359
:1014E0009302B0939402BF91AF919F918F913F91DE
:1014F0002F910F900FBE0F901F90189526E8230F85
:101500000296A11DB11DD2CF8F929F92AF92BF9232
:10151000CF92DF92EF92FF920F931F93CF93DF93BF
:10152000E3EFF2E01382128288EE93E0A0E0B0E0F5
:1015300084839583A683B7838AE092E09183808336
:1015400085EC90E09587848784EC90E09787868788
:1015500080EC90E0918B808B81EC90E0938B828B80
:1015600082EC90E0958B848B86EC90E0978B868B59
:10157000118E128E138E148EE9E5F4E0178616860E
:1015800086E390E09583848380E090EFA2E5B8E461
:1015900086839783A087B18780E092EEA1E8B7E4C5
:1015A00082879387A487B587E9E4F4E017861686D7
:1015B00087E390E09583848380E09AEEA3E5B8E426
:1015C00086839783A087B18780E09AE1A1E8B7E49A
:1015D00082879387A487B587E3E3F4E010821182C2
:1015E0001282138240E050E46CE175E44287538735
:1015F0006487758716861786108A118A128A138A5D
:10160000148A158A8AE090E09583848380E090E0D4
:10161000A8ECB2E486839783A087B187EDE1F4E07C
:1016200010821182128213824287538764877587E2
:1016300016861786108A118A128A138A148A158AC6
:101640002BE030E03583248386839783A087B1879E
:10165000E7E0F4E0108211821282138242875387FE
:101660006487758716861786108A118A128A138AEC
:10167000148A158A2CE030E035832483868397838F
:10168000A087B187E9EEF3E0C12CD12C8AE7E82EE0
:1016900084E4F82EC686D786E08AF18A02E311E157
:1016A00020E83BE3028B138B248B358B4FE755E00F
:1016B0006BE175EB468B578B608F718F85E698EFEA
:1016C000A7E3BEEA828F938FA48FB58FC9E3D0E0E2
:1016D000D183C083C1EE8C2ECAE79C2EC6EAAC2E05
:1016E000C1E4BC2E82869386A486B586EBECF3E03B
:1016F000C686D786E08AF18A028B138B248B358BC2
:10170000468B578B608F718F828F938FA48FB58F8D
:101710008AE390E09183808380E090E0A0EEB1E4E2
:1017200082879387A487B587A8EBB3E08CE31596EF
:101730008C9315978BE016968C931697EAEFF1E051
:10174000E4911796EC931797E4EBF1E0E491189687
:10175000EC93189740E85EE360E070E01D964D93CF
:101760005D936D937C935097EAE9F3E012821382C4
:101770001482158216821782108611868DEC9CECDD
:10178000ACECBEE382879387A487B587168617865D
:10179000108A118A80E090E0A0E0B0E4828B938B05
:1017A000A48BB58B80E090E0A0E0B2E4868B978BB1
:1017B000A08FB18F128E138E148E158E8EE090E056
:1017C00091838083E0E9F3E0158214821782168208
:1017D0008FEF93E09187808780E390E0918380830F
:1017E0008FE090E09383828361E080E3DF91CF918B
:1017F0001F910F91FF90EF90DF90CF90BF90AF902F
:101800009F908F900C943103CF93DF93CDB7DEB7C9
:101810002C970FB6F894DEBF0FBECDBF789484B579
:10182000826084BD84B5816084BD85B5826085BDDC
:1018300085B5816085BD80916E00816080936E006A
:10184000109281008091810082608093810080915C
:10185000810081608093810080918000816080930D
:1018600080008091B10084608093B1008091B000CD
:1018700081608093B000809191008260809391009C
:1018800080919100816080939100809190008160AF
:10189000809390008091A10082608093A10080914C
:1018A000A10081608093A1008091A000816080935D
:1018B000A00080912101826080932101809121010B
:1018C00081608093210180912001816080932001BB
:1018D00080917A00846080937A0080917A0082609F
:1018E00080937A0080917A00816080937A00809161
:1018F0007A00806880937A001092C100E09103031F
:10190000F091040382E08083E091FF02F0910003F4
:101910001082E0910103F091020380E18083109234
:101920000B03E0910703F091080386E08083E091C8
:101930000503F0910603808180618083E0910503B7
:10194000F0910603808188608083E0910503F09127
:101950000603808180688083E0910503F09106038F
:1019600080818F7D808362E08091BD030E9431037E
:101970002FB7F8948091EF029091F002A091F102BC
:10198000B091F2022FBF805D9740A109B109809309
:10199000C1039093C203A093C303B093C40387E32E
:1019A0008093CA0364E670E080E090E00E94A403A4
:1019B0008FB7F8942091EF023091F0024091F1023C
:1019C0005091F20229833A834B835C838FBF8091CD
:1019D000D1029091D202A091D302B091D402281BDF
:1019E000390B4A0B5B0BDA01C901883B9B40A1050F
:1019F000B10508F446C1C0909502D0909602E090DF
:101A00009702F0909802A70196016091A902709147
:101A1000AA028091AB029091AC0278D52B013C01D7
:101A20004092C9025092CA026092CB027092CC02DC
:101A3000A70196016091A5027091A6028091A7026C
:101A40009091A80263D54B015C018092BD029092F7
:101A5000BE02A092BF02B092C002A701960160919F
:101A6000A1027091A2028091A3029091A4024ED58E
:101A70006D837E838F8398876093CD027093CE02AF
:101A80008093CF029093D002A701960160919D02AE
:101A900070919E0280919F029091A00237D5698734
:101AA0007A878B879C876093C1027093C202809370
:101AB000C3029093C402A7019601609199027091AC
:101AC0009A0280919B0290919C0220D56B017C012F
:101AD000C092B502D092B602E092B702F092B8027C
:101AE0001092A9021092AA021092AB021092AC02BC
:101AF0001092A5021092A6021092A7021092A802BC
:101B00001092A1021092A2021092A3021092A402BB
:101B100010929D0210929E0210929F021092A002BB
:101B20001092990210929A0210929B0210929C02BB
:101B300010929502109296021092970210929802BB
:101B40002D813E814F815885C301B20169D36093D5
:101B5000C5027093C6028093C7029093C80229857C
:101B60003A854B855C85C501B4015AD36093B902AF
:101B70007093BA028093BB029093BC0220E030E0E5
:101B800040EA50E4C701B6014BD36093B1027093B1
:101B9000B2028093B3029093B4022AE939E949E191
:101BA00051E4C501B4014DD420E030E040E450E4FC
:101BB000ADD420E030E048EC52E432D36B017C013C
:101BC00020E030E0A901C7D287FF03C0C12CD12C8F
:101BD0007601C092AD02D092AE02E092AF02F092D6
:101BE000B00289819A81AB81BC818093D1029093AC
:101BF000D202A093D302B093D4028091EB029091D1
:101C0000EC02A091ED02B091EE0229813A814B8164
:101C10005C81281B390B4A0B5B0BDA01C901883B3D
:101C20009B40A105B10508F44EC289EE93E00E94E5
:101C3000F1056093E7027093E8028093E9029093C4
:101C4000EA028BEC93E00E94F1056093E30270934B
:101C5000E4028093E5029093E6020E94D403882375
:101C600059F08091BE038B3038F08D3008F4FCC001
:101C70008551823008F429C160E070E080EC9FE774
:101C80000BC189E594E00E940B05C0906304D090DD
:101C90006404E0906504F0906604609167047091BC
:101CA0006804072E000C880B990B5BD22AE038E2FF
:101CB00040EA5BE3B5D24B015C0120915F043091B7
:101CC00060044091610450916204C701B601BAD327
:101CD0009B01AC01C701B60119D49B01AC01C50140
:101CE000B40114D49B01AC012093590430935A04DD
:101CF00040935B0450935C046091A9027091AA0226
:101D00008091AB029091AC029DD36093A902709335
:101D1000AA028093AB029093AC0289E494E00E9403
:101D20000B05C0905304D0905404E0905504F090FB
:101D300056046091570470915804072E000C880BCC
:101D4000990B0FD22AE038E240EA5BE369D24B01FB
:101D50005C0120914F043091500440915104509106
:101D60005204C701B6016ED39B01AC01C701B60195
:101D7000CDD39B01AC01C501B401C8D39B01AC011B
:101D80002093490430934A0440934B0450934C04ED
:101D90006091A5027091A6028091A7029091A8027D
:101DA00051D36093A5027093A6028093A7029093EB
:101DB000A80283E394E00E941E059B01AC016091A0
:101DC000A1027091A2028091A3029091A4023AD341
:101DD0006093A1027093A2028093A3029093A40245
:101DE0008DE194E00E941E059B01AC0160919D0273
:101DF00070919E0280919F029091A00223D36093E4
:101E00009D0270939E0280939F029093A00287E0B0
:101E100094E00E941E059B01AC01609199027091B3
:101E20009A0280919B0290919C020CD3609399023C
:101E300070939A0280939B0290939C0220E030E082
:101E400040E85FE36091950270919602809197025D
:101E500090919802F7D260939502709396028093C6
:101E6000970290939802C9CE6091B90370E090E018
:101E700080E077D12DEC3CEC4CEC5DE3D1D16B01F3
:101E80007C016091B80370E090E080E06AD19B0132
:101E9000AC01C701B601D6D26093DF027093E002B5
:101EA0008093E1029093E2020E94D403882341F0E0
:101EB0008091BE038C3009F40BC1B8F48B3071F102
:101EC00060E070E080EC9FE74EC06091B8037091D5
:101ED000B90376276727762790E080E040D12DEC84
:101EE0003CEC4CEC5DE39CD1D7CF8551823040F780
:101EF000F090BA036F2D70E0762F662766277F7704
:101F00008091BB03682B90E080E029D12DEC3CEC64
:101F10004CEC5DE385D1F7FE26C0F6C06091BA03B4
:101F200070E090E080E01BD16B017C014091BB032D
:101F30004D8347FF09C0AC019B0160E070E080E881
:101F40009FEB7FD26B017C015D815F70652F70E03C
:101F500090E080E006D12DEC3CEC4CEC5DE360D1F0
:101F6000A70196016FD26093DB027093DC0280932D
:101F7000DD029093DE0280919A030E9462038091B9
:101F80009A030E94620380919A030E9462036AE0AE
:101F900070E00E94D90460939C0370939D0380932A
:101FA0009E0390939F032AE038E240EA5BE338D136
:101FB0004B015C018092A0039092A103A092A20326
:101FC000B092A303C090A403D090A503E090A60311
:101FD000F090A703A7019601BED018160CF496C086
:101FE0001092B4031092B5031092B6031092B70387
:101FF0008091B4039091B503A091B603B091B7035B
:102000008093D7029093D802A093D902B093DA02BA
:1020100061E0809190030E94A5026AE070E080E098
:1020200090E00E94A4034090980350909903052CDF
:10203000000C66087708C0909603D09097030D2C8B
:10204000000CEE08FF08809192030E9462038091C9
:1020500092030E946203809192030E9462036AE0ED
:1020600070E00E94D9044B015C0160E08091900314
:102070000E94A502C501B401B1D29B01770F440BA8
:10208000550B2C193D094E095F09A1E0BCEFA4D105
:10209000A30192012C193D094E095F0975D1215008
:1020A0003C4F4F4F5F4F3093D6022093D50229818A
:1020B0003A814B815C812093EB023093EC02409398
:1020C000ED025093EE020E947A070E94750270CCD6
:1020D0008091BA038D83682F70E090E080E03FD05C
:1020E0006B017C016091BB036F7070E090E080E059
:1020F00038D02DEC3CEC4CEC5DE392D0A70196017E
:10210000A1D1AD81A7FF2FCF90582DCFA701960168
:10211000C501B40196D14B015C01A7019601609104
:10212000AC037091AD038091AE039091AF0389D160
:102130009B01AC01C501B401E9D120E030E040E0F1
:1021400052E46ED06093B4037093B5038093B603EA
:102150009093B7034DCF40D008F481E00895E89400
:1021600009C097FB3EF490958095709561957F4FDF
:102170008F4F9F4F9923A9F0F92F96E9BB2793958D
:10218000F695879577956795B795F111F8CFFAF49D
:10219000BB0F11F460FF1BC06F5F7F4F8F4F9F4FCE
:1021A00016C0882311F096E911C0772321F09EE82C
:1021B000872F762F05C0662371F096E8862F70E092
:1021C00060E02AF09A95660F771F881FDAF7880F6C
:1021D0009695879597F90895990F0008550FAA0BC2
:1021E000E0E8FEEF16161706E807F907C0F012162A
:1021F0001306E407F50798F0621B730B840B950B2D
:1022000039F40A2661F0232B242B252B21F4089581
:102210000A2609F4A140A6958FEF811D811D08951E
:102220000BD078C069D028F06ED018F0952309F053
:102230005AC05FC01124A2C07ED0A0F3959FD1F3F5
:10224000950F50E0551F629FF001729FBB27F00D64
:10225000B11D639FAA27F00DB11DAA1F649F6627B9
:10226000B00DA11D661F829F2227B00DA11D621F08
:10227000739FB00DA11D621F839FA00D611D221FC2
:10228000749F3327A00D611D231F849F600D211DA6
:10229000822F762F6A2F11249F5750408AF0E1F049
:1022A00088234AF0EE0FFF1FBB1F661F771F881F92
:1022B00091505040A9F79E3F510570F014C05EC088
:1022C0005F3FECF3983EDCF3869577956795B7957D
:1022D000F795E7959F5FC1F7FE2B880F911D9695A7
:1022E000879597F9089597F99F6780E870E060E017
:1022F00008959FEF80EC089500240A94161617069F
:1023000018060906089500240A94121613061406E6
:1023100005060895092E0394000C11F4882352F049
:10232000BB0F40F4BF2B11F460FF04C06F5F7F4F01
:102330008F4F9F4F089557FD9058440F551F59F0E8
:102340005F3F71F04795880F97FB991F61F09F3FA2
:1023500079F087950895121613061406551FF2CFCB
:102360004695F1DF08C0161617061806991FF1CF1B
:1023700086957105610508940895E894BB27662742
:102380007727CB0197F90895052E97FB16F4009453
:102390000FD057FD05D024D007FC02D046F408C06A
:1023A00050954095309521953F4F4F4F5F4F089581
:1023B00090958095709561957F4F8F4F9F4F0895B1
:1023C00031D0A59F900DB49F900DA49F800D911DBD
:1023D00011240895B7FFF4CFF3DF821B930B089508
:1023E000A1E21A2EAA1BBB1BFD010DC0AA1FBB1F19
:1023F000EE1FFF1FA217B307E407F50720F0A21B8B
:10240000B30BE40BF50B661F771F881F991F1A94F7
:1024100069F760957095809590959B01AC01BD0121
:10242000CF010895A29FB001B39FC001A39F700D7B
:10243000811D1124911DB29F700D811D1124911DCC
:1024400008955058BB27AA270ED064CF55DF30F02F
:102450005ADF20F031F49F3F11F41EF44ACF0EF4FE
:10246000E095E7FB40CFE92F66DF80F3BA176207FC
:1024700073078407950718F071F49EF57ECF0EF46C
:10248000E0950B2EBA2FA02D0B01B90190010C0184
:10249000CA01A0011124FF27591B99F0593F50F49C
:1024A000503E68F11A16F040A22F232F342F4427F4
:1024B000585FF3CF469537952795A795F0405395EC
:1024C000C9F77EF41F16BA0B620B730B840BBAF0BC
:1024D0009150A1F0FF0FBB1F661F771F881FC2F727
:1024E0000EC0BA0F621F731F841F48F4879577953B
:1024F0006795B795F7959E3F08F0B3CF9395880FF2
:1025000008F09927EE0F9795879508950CD002CF84
:10251000FADE40F0F1DE30F021F45F3F19F0E3CE57
:1025200051112CCFE6CE07DF98F39923C9F3552339
:10253000B1F3951B550BBB27AA27621773078407B6
:1025400038F09F5F5F4F220F331F441FAA1FA9F36C
:1025500033D00E2E3AF0E0E830D091505040E6955E
:10256000001CCAF729D0FE2F27D0660F771F881FBF
:10257000BB1F261737074807AB07B0E809F0BB0BAE
:10258000802DBF01FF2793585F4F2AF09E3F5105D2
:1025900068F0A9CEF3CE5F3FECF3983EDCF386956E
:1025A00077956795B795F7959F5FC9F7880F911D48
:1025B0009695879597F90895E1E0660F771F881F34
:1025C000BB1F621773078407BA0720F0621B730BE7
:1025D000840BBA0BEE1F88F7E095089504D0689439
:1025E000B111CCCE0895AFDE88F09F5790F0B92F8F
:1025F0009927B751A0F0D1F0660F771F881F991F58
:102600001AF0BA95C9F712C0B13081F0B6DEB1E068
:102610000895B3CE672F782F8827B85F39F0B93F78
:10262000CCF3869577956795B395D9F73EF4909559
:102630008095709561957F4F8F4F9F4F0895CCDDAA
:1026400008F48FEF089511F40EF453CE42C07BDEF0
:10265000D0F39923D9F3CEF39F57550B87FF47D07B
:102660000024A0E640EA900180585695979528F4FA
:10267000805C660F771F881F20F0261737074807F2
:1026800030F4621B730B840B202931294A2BA69549
:1026900017940794202531254A2758F7660F771F8E
:1026A000881F20F026173707480730F4620B730B9A
:1026B000840B200D311D411DA09581F7B901842F98
:1026C0009158880F96958795089586DD880B990B0C
:1026D00008959F3F31F0915020F487957795679545
:1026E000B795880F911D9695879597F90895915004
:1026F0005040660F771F881FD2F70895EE0FFF1F17
:10270000881F8BBF0790F691E02D19940F931F93AC
:10271000CF93DF938230910510F482E090E0E09156
:102720006B04F0916C0430E020E0B0E0A0E0309762
:1027300099F42115310509F44AC0281B390B2430BE
:102740003105D8F58A819B816115710589F1FB01FD
:1027500093838283FE0111C04081518102811381E4
:1027600048175907E0F04817590799F4109761F096
:1027700012960C93129713961C933296CF01DF9109
:10278000CF911F910F91089500936B0410936C04E7
:10279000F4CF2115310551F04217530738F0A90144
:1027A000DB019A01BD01DF01F801C1CFEF01F9CFD3
:1027B00090936C0480936B04CDCFFE01E20FF31F66
:1027C000819391932250310939832883D7CF209167
:1027D000690430916A04232B41F420910202309164
:1027E000030230936A04209369042091000230911F
:1027F00001022115310541F42DB73EB74091040285
:1028000050910502241B350BE0916904F0916A0494
:10281000E217F307A0F42E1B3F0B2817390778F0B7
:10282000AC014E5F5F4F2417350748F04E0F5F1F16
:1028300050936A0440936904819391939FCFF0E091
:10284000E0E09CCFCF93DF930097E9F0FC01329753
:1028500013821282A0916B04B0916C04ED0130E000
:1028600020E01097A1F420813181820F931F2091E5
:10287000690430916A042817390709F061C0F093A0
:102880006A04E0936904DF91CF910895EA01CE17BD
:10289000DF07E8F54A815B819E0141155105B1F7DB
:1028A000E901FB83EA8349915991C40FD51FEC17C5
:1028B000FD0761F4808191810296840F951FE901E3
:1028C00099838883828193819B838A83F0E0E0E00F
:1028D00012968D919C9113970097B9F52D913C918B
:1028E0001197CD010296820F931F209169043091B8
:1028F0006A042817390739F6309751F510926C049D
:1029000010926B04B0936A04A0936904BCCFD38384
:10291000C28340815181840F951FC817D90761F484
:102920004E5F5F4F88819981480F591F51834083C3
:102930008A819B81938382832115310509F0B0CF71
:10294000F0936C04E0936B049ECFFD01DC01C0CFDB
:1029500013821282D7CF4F925F926F927F928F92A3
:102960009F92AF92BF92CF92DF92EF92FF920F931E
:102970001F93CF93DF938C01009791F4CB01DF91EC
:10298000CF911F910F91FF90EF90DF90CF90BF906C
:10299000AF909F908F907F906F905F904F90B6CE4A
:1029A000FC01E60FF71F9C0122503109E217F307E3
:1029B00008F4AAC0D901CD91DC911197C617D707A9
:1029C00018F1C530D10570F0CE010497861797072E
:1029D00048F0C61BD70B2297C193D1936D937C937C
:1029E000CF0130DFC801DF91CF911F910F91FF9090
:1029F000EF90DF90CF90BF90AF909F908F907F909F
:102A00006F905F904F9008955B01AC1ABD0A4C0126
:102A10008C0E9D1EA0916B04B0916C04512C412C26
:102A2000F12CE12C109731F58091690490916A04A2
:102A30008815990509F05CC04616570608F058C07D
:102A40008091000290910102009741F48DB79EB7EA
:102A50004091040250910502841B950BE817F90779
:102A600008F052C0F0936A04E0936904F90171839D
:102A70006083B8CF8D919C91119712966C901297AC
:102A800013967C901397A815B90559F56C0142E08F
:102A9000C40ED11CCA14DB0420F1AC014A195B0935
:102AA000DA011296159780F0628273825183408317
:102AB000D9016D937C93E114F10471F0D701139661
:102AC000FC93EE9312978ECF22968C0F9D1FF901E7
:102AD00091838083F301EFCFF0936C04E0936B0458
:102AE00081CF4816590608F42C017D01D3019ACFF5
:102AF000CB010CDE7C01009739F0AE01B80107D0A4
:102B0000C801A0DE87016ECF10E000E06BCFFB01B3
:102B1000DC0102C001900D9241505040D8F7089559
:102B2000FB01DC0101900D920020E1F70895F8947B
:022B3000FFCFD5
:102B320000006D048000000000000A026D01A20185
:102B42005602D301B101C5012C006E616E00696E9F
:102B520066006F7666000A0053505600526F6F6629
:102B6200004256004100535043004243004C430090
:102B7200535045004245004C450063656C636975DE
:102B820073004254005350540025004F5554485589
:102B92004D0063656C63756973004F555454454D20
:102BA20050006D2F730077696E6473706565640001
:102BB200302D31303233005241494E00536F4300C1
:020000023000CC
:10E000000D9489F10D94B2F10D94B2F10D94B2F129
:10E010000D94B2F10D94B2F10D94B2F10D94B2F1F0
:10E020000D94B2F10D94B2F10D94B2F10D94B2F1E0
:10E030000D94B2F10D94B2F10D94B2F10D94B2F1D0
:10E040000D94B2F10D94B2F10D94B2F10D94B2F1C0
:10E050000D94B2F10D94B2F10D94B2F10D94B2F1B0
:10E060000D94B2F10D94B2F10D94B2F10D94B2F1A0
:10E070000D94B2F10D94B2F10D94B2F10D94B2F190
:10E080000D94B2F10D94B2F10D94B2F10D94B2F180
:10E090000D94B2F10D94B2F10D94B2F10D94B2F170
:10E0A0000D94B2F10D94B2F10D94B2F10D94B2F160
:10E0B0000D94B2F10D94B2F10D94B2F10D94B2F150
:10E0C0000D94B2F10D94B2F10D94B2F10D94B2F140
:10E0D0000D94B2F10D94B2F10D94B2F10D94B2F130
:10E0E0000D94B2F141546D656761323536300041AF
:10E0F000726475696E6F206578706C6F72657220DE
:10E1000073746B3530305632206279204D4C530099
:10E11000426F6F746C6F616465723E004875683F52
:10E1200000436F6D70696C6564206F6E203D200048
:10E130004350552054797065202020203D20005FF9
:10E140005F4156525F415243485F5F3D2000415658
:10E1500052204C696243205665723D20004743437C
:10E160002056657273696F6E203D20004350552024
:10E1700049442020202020203D20004C6F7720663D
:10E18000757365202020203D20004869676820665F
:10E190007573652020203D200045787420667573D6
:10E1A00065202020203D20004C6F636B2066757336
:10E1B000652020203D20004D617220203720323024
:10E1C000313300312E362E3800342E332E350056A2
:10E1D00023202020414444522020206F7020636F70
:10E1E00064652020202020696E73747275637469E1
:10E1F0006F6E2061646472202020496E74657272B3
:10E20000757074006E6F20766563746F7200726A49
:10E210006D702020006A6D70200057686174207056
:10E220006F72743A00506F7274206E6F7420737541
:10E2300070706F72746564004D7573742062652030
:10E2400061206C6574746572002000577269747483
:10E25000696E672045450052656164696E672045B7
:10E26000450045452065727220636E743D00504F35
:10E27000525400303D5A65726F2061646472003FF1
:10E280003D43505520737461747300403D454550C3
:10E29000524F4D207465737400423D426C696E6B41
:10E2A000204C454400453D44756D70204545505215
:10E2B0004F4D00463D44756D7020464C415348001B
:10E2C000483D48656C70004C3D4C69737420492F83
:10E2D0004F20506F72747300513D51756974005234
:10E2E0003D44756D702052414D00563D73686F7707
:10E2F00020696E7465727275707420566563746FF0
:10E30000727300593D506F727420626C696E6B00BD
:10E310002A0011241FBECFEFD1E2DEBFCDBF01E046
:10E320000CBF12E0A0E0B2E0EEE1FDEF03E00BBFB6
:10E3300002C007900D92A030B107D9F712E0A0E01B
:10E34000B2E001C01D92AE30B107E1F70F9460F367
:10E350000D948DFE01E20EBF0FEF0DBF11241FBE05
:10E360000D9460F30D9400F020E030E040ED57E0B4
:10E3700005C0FA013197F1F72F5F3F4F2817390792
:10E38000C0F308959C01260F311DC901A0E0B0E043
:10E390002F5F3F4FABBFFC018791882361F08093D3
:10E3A000C6008091C00086FFFCCF8091C0008064D1
:10E3B0008093C000EACF08958DE08093C6008091DD
:10E3C000C00086FFFCCF8091C00080648093C000B5
:10E3D0008AE08093C6008091C00086FFFCCF8091C8
:10E3E000C00080648093C00008950F94C2F10F9420
:10E3F000DCF10895FC019081992359F09093C600B7
:10E400008091C00086FFFCCF8091C0008064809323
:10E41000C0003196992379F70895282F982F929567
:10E420009F70892F805D8A3308F0895F8093C600D2
:10E430008091C00086FFFCCF8091C00080648093F3
:10E44000C000822F8F70982F905D9A3308F0995FEB
:10E450009093C6008091C00086FFFCCF8091C000E1
:10E4600080648093C00008959C01FB01853691056E
:10E470001CF46330710594F0C90164E670E00F94F8
:10E480002EFE605D7F4F6093C6008091C00086FFC6
:10E49000FCCF8091C00080648093C0002B30310598
:10E4A00014F43297B4F0C90164E670E00F942EFEC4
:10E4B0006AE070E00F942EFE605D7F4F6093C600AF
:10E4C0008091C00086FFFCCF8091C0008064809363
:10E4D000C000C9016AE070E00F942EFEC0968093E0
:10E4E000C6008091C00086FFFCCF8091C000806490
:10E4F0008093C00008951F93182F8EE692EE60E07F
:10E500000F94C2F11093C6008091C00086FFFCCF2B
:10E510008091C00080648093C0000F94DCF11F9153
:10E5200008952F923F924F925F926F927F928F92B7
:10E530009F92AF92BF92CF92DF92EF92FF920F9392
:10E540001F93DF93CF93CDB7DEB762970FB6F894E2
:10E55000DEBF0FBECDBF382E622ECA01DB015C01CB
:10E560006D01772420E2222E2E010894411C511CBB
:10E570008BC081E0A81680E0B80681E0C80680E084
:10E58000D80628F0C601AA27BB270F940DF2BB2797
:10E59000AD2D9C2D8B2D0F940DF28A2D0F940DF225
:10E5A0002092C6008091C00086FFFCCF8091C00001
:10E5B00080648093C0009DE29093C6008091C0006B
:10E5C00086FFFCCF8091C00080648093C0002092C1
:10E5D000C6008091C00086FFFCCF8091C00080649F
:10E5E0008093C00019828601750188249924A1E0D6
:10E5F0003A1651F03A1620F0B2E03B1661F409C029
:10E600000BBFF701779007C0C7010F9477FE782EF4
:10E6100002C0F7017080872D0F940DF22092C60082
:10E620008091C00086FFFCCF8091C0008064809301
:10E63000C000872D8052F401EF70F0708F3520F408
:10E64000E40DF51D708204C0E40DF51D8EE280839B
:10E650000894E11CF11C011D111D0894811C911CE2
:10E6600090E18916910409F0C2CF80E190E0A0E02A
:10E67000B0E0A80EB91ECA1EDB1E198AC2010F9493
:10E68000FAF10F94DCF16A94662009F072CF629679
:10E690000FB6F894DEBF0FBECDBFCF91DF911F91B3
:10E6A0000F91FF90EF90DF90CF90BF90AF909F9031
:10E6B0008F907F906F905F904F903F902F90089534
:10E6C0002F923F924F925F926F927F928F929F9282
:10E6D000AF92BF92CF92DF92EF92FF920F931F9370
:10E6E000DF93CF93CDB7DEB7CD53D1400FB6F894BB
:10E6F000DEBF0FBECDBF01E20EBF0FEF0DBF94B75F
:10E70000F894A89514BE80916000886180936000A1
:10E7100010926000789493FF05C0E0910002F091A0
:10E7200001021995279A2F9A8091C00082608093E8
:10E73000C00080E18093C40088E18093C1000000A4
:10E74000EE24FF24870144E0A42EB12CCC24DD2448
:10E7500024C0C5010197F1F70894E11CF11C011DCB
:10E76000111D21E2E2162EE4F20620E0020720E06D
:10E77000120718F031E0C32ED12CC801B70127ECE5
:10E780003BE140E050E00F9441FE611571058105C9
:10E79000910519F485B1805885B98091C00087FD35
:10E7A00003C0C114D104A9F2A6014F5F5F4FC25E3E
:10E7B000DE4F59834883CE51D140C25EDE4F8881FF
:10E7C0009981CE51D140019711F00D9410FEC05D9A
:10E7D000DE4F19821882C053D14060E0C15DDE4F28
:10E7E0001882CF52D14088249924C35DDE4F19820C
:10E7F0001882CD52D140C05EDE4F188219821A8233
:10E800001B82C052D140CE5CDE4F188219821A8220
:10E810001B82C253D140EE24FF2487010BBFF701B6
:10E8200007911691C45CDE4F19830883CC53D14005
:10E830000D940BFEC25EDE4F28813981CE51D1404E
:10E840002130310509F52091C600C25EDE4F1982E4
:10E850001882CE51D14022C02F5F3F4F4F4F5F4FA4
:10E86000213082E138078AE7480780E0580780F0C6
:10E87000C45CDE4FE881F981CC53D140EF5FFF4F9C
:10E8800019F0EE27FF27099420E030E040E050E047
:10E890008091C00087FFE0CF2091C600C35DDE4FAE
:10E8A00048815981CD52D1404F5F5F4FC35DDE4FEC
:10E8B00059834883CD52D140213209F063C64A3092
:10E8C000510508F05FC60894811C911C53E0851621
:10E8D000910409F059C600E010E018C081E280936D
:10E8E000C6008091C00086FFFCCF8091C00080648C
:10E8F0008093C0002F5F3F4F2931310579F70F9486
:10E90000DCF10F5F1F4F0530110519F020E030E0FA
:10E91000E5CF10920A0210920B0210920C02109294
:10E920000D02109206021092070210920802109235
:10E930000902109202021092030210920402109235
:10E9400005028FEE90EE60E00F94F5F180E191EE1C
:10E9500060E00F94C2F18091C00087FFFCCF9091DE
:10E96000C600903608F09F759032B8F09093C600BC
:10E970008091C00086FFFCCF8091C00080648093AE
:10E98000C000A0E2A093C6008091C00086FFFCCF2B
:10E990008091C00080648093C000983409F4D7C18E
:10E9A0009934B8F4923409F459C1933458F490333B
:10E9B00019F1903308F4E3C59F33A1F1903409F0C5
:10E9C000DEC5BDC0953409F470C1963409F0D7C5D1
:10E9D00098C1923509F42BC2933538F49C3409F46C
:10E9E000F5C1913509F0CBC518C2963509F445C279
:10E9F000993509F0C4C567C483E792EE62E00F94CD
:10EA0000F5F110920602109207021092080210927D
:10EA1000090210920A0210920B0210920C0210923C
:10EA20000D0213C18FE792EE62E00F94F5F18FEEC5
:10EA300090EE60E00F94F5F181E291EE60E00F94CA
:10EA4000C2F187EB91EE60E00F94F5F180E391EE77
:10EA500060E00F94C2F184EE90EE60E00F94F5F167
:10EA60008FE391EE60E00F94C2F186E090E061E008
:10EA700070E00F9434F20F94DCF18DE591EE60E0DC
:10EA80000F94C2F189EC91EE60E00F94F5F18EE401
:10EA900091EE60E00F94C2F183EC91EE60E00F9490
:10EAA000F5F18CE691EE60E00F94C2F18EE10F94E7
:10EAB0000DF288E90F940DF281E00F940DF20F949E
:10EAC000DCF18BE791EE60E00F94C2F119E0E0E039
:10EAD000F0E010935700E4918E2F0F940DF20F94F5
:10EAE000DCF18AE891EE60E00F94C2F1E3E0F0E03F
:10EAF00010935700E4918E2F0F940DF20F94DCF1D8
:10EB000089E991EE60E00F94C2F1E2E0F0E0109349
:10EB10005700E4918E2F0F940DF20F94DCF188EAE8
:10EB200091EE60E00F94C2F1E1E0F0E01093570045
:10EB30001491812F0F940DF20F94DCF107CF8BE825
:10EB400092EE62E00F94F5F18BE492EE60E00F94A8
:10EB5000F5F10F94DCF100E010E019C0C8016F2D51
:10EB60000F947FFEFF2031F489E492EE60E00F9471
:10EB7000C2F10BC0F092C6008091C00086FFFCCFAE
:10EB80008091C00080648093C0000F5F1F4FC80158
:10EB900081519F41A0E0B0E0ABBFFC01F790BAE229
:10EBA000FB1621F0E2E000301E07C1F60F94DCF105
:10EBB0000F94DCF187E592EE60E00F94F5F10F948D
:10EBC000DCF1CC24DD2400E010E01EC0C8010F946D
:10EBD00077FEF82E882331F489E492EE60E00F94FA
:10EBE000C2F10BC08093C6008091C00086FFFCCFAD
:10EBF0008091C00080648093C000FE1419F00894D6
:10EC0000C11CD11C0F5F1F4FC80181519F41A0E063
:10EC1000B0E0ABBFFC01E790FAE2EF1621F022E092
:10EC20000030120799F60F94DCF10F94DCF182E6C4
:10EC300092EE60E00F94C2F1C60161E070E00F94C3
:10EC400034F20F94DCF10F94DCF110920202109276
:10EC50000302109204021092050278CE89E992EE26
:10EC600062E00F94F5F1279A2F9A16C02F9880E052
:10EC700090E0E0EDF7E03197F1F7019684369105E9
:10EC8000C1F72F9A80E090E0E0EDF7E03197F1F7DF
:10EC9000019684369105C1F78091C00087FFE6CFC9
:10ECA0008091C00087FFFCCF64C485EA92EE62E0E9
:10ECB0000F94F5F140910202509103026091040219
:10ECC0007091050281E020E10F9491F2809102029F
:10ECD00090910302A0910402B091050280509F4FD1
:10ECE000AF4FBF4F8093020290930302A0930402A0
:10ECF000B093050280509041A040B04008F426CE69
:10ED0000A4CF83EB92EE62E00F94F5F140910602FE
:10ED100050910702609108027091090280E020E1A1
:10ED20000F9491F28091060290910702A09108023F
:10ED3000B091090280509F4FAF4FBF4F80930602A2
:10ED400090930702A0930802B0930902FFCD80ECD4
:10ED500092EE62E00F94F5F183E792EE60E00F949B
:10ED6000F5F18FE792EE60E00F94F5F18BE892EE0B
:10ED700060E00F94F5F189E992EE60E00F94F5F10F
:10ED800085EA92EE60E00F94F5F183EB92EE60E09D
:10ED90000F94F5F180EC92EE60E00F94F5F187ECC2
:10EDA00092EE60E00F94F5F188ED92EE60E00F9442
:10EDB000F5F18FED92EE60E00F94F5F18AEE92EEB0
:10EDC00060E00F94F5F183E093EEBDCD87EC92EE19
:10EDD00062E00F94F5F181E40F947BF282E40F94EA
:10EDE0007BF283E40F947BF284E40F947BF285E45E
:10EDF0000F947BF286E40F947BF287E40F947BF20E
:10EE000088E40F947BF28AE40F947BF28BE40F94F6
:10EE10007BF28CE40F947BF299CD88ED92EE62E068
:10EE20000F94F5F1772473948824992409C48FED05
:10EE300092EE62E00F94F5F140910A0250910B02BC
:10EE400060910C0270910D0282E020E10F9491F22A
:10EE500080910A0290910B02A0910C02B0910D02D8
:10EE600080509F4FAF4FBF4F80930A0290930B0289
:10EE7000A0930C02B0930D0269CD8AEE92EE62E08F
:10EE80000F94F5F184EE90EE60E00F94F5F18FECC5
:10EE900091EE60E00F94F5F1662477244301CC5D98
:10EEA000DE4F19821882C452D140D401C301B695F5
:10EEB000A79597958795CA5DDE4F88839983AA8326
:10EEC000BB83C652D140CC5DDE4FA881B981C4520C
:10EED000D1401196CC5DDE4FB983A883C452D14096
:10EEE000CD0162E070E00F9434F2B0E2B093C6005E
:10EEF0008091C00086FFFCCF8091C0008064809329
:10EF0000C000EDE2E093C6008091C00086FFFCCF18
:10EF10008091C00080648093C000F0E2F093C6004E
:10EF20008091C00086FFFCCF8091C00080648093F8
:10EF3000C000CA5DDE4FE880F9800A811B81C6529D
:10EF4000D140BB27A12F902F8F2D0F940DF2CA5DBA
:10EF5000DE4F8881C652D1400F940DF2B0E2FB2EF5
:10EF6000F092C6008091C00086FFFCCF8091C00067
:10EF700080648093C0000DE30093C6008091C000C0
:10EF800086FFFCCF8091C00080648093C00010E2B7
:10EF90001093C6008091C00086FFFCCF8091C00016
:10EFA00080648093C0008BBEF3012791C65DDE4F65
:10EFB0002883CA52D140A22EBB24CC24DD2408943D
:10EFC000611C711C811C911C8BBEF3018791282E42
:10EFD0003324442455240894611C711C811C911C09
:10EFE0008BBEF3013791C55DDE4F3883CB52D140E4
:10EFF0000894611C711C811C911C8BBEF30147910C
:10F00000C45DDE4F4883CC52D140ADEFEA2EAFEF66
:10F01000FA2EAFEF0A2FAFEF1A2F6E0C7F1C801E57
:10F02000911E142D032DF22CEE24EA0CFB1C0C1D5A
:10F030001D1D0F940DF220E22093C6008091C000A8
:10F0400086FFFCCF8091C00080648093C000C65DC5
:10F05000DE4F8881CA52D1400F940DF230E23093D6
:10F06000C6008091C00086FFFCCF8091C000806404
:10F070008093C000C45DDE4F8881CC52D1400F9494
:10F080000DF240E24093C6008091C00086FFFCCFA5
:10F090008091C00080648093C000C55DDE4F888190
:10F0A000CB52D1400F940DF250E25093C6008091A4
:10F0B000C00086FFFCCF8091C00080648093C000B8
:10F0C0008FEFE8168FEFF80680E0080780E018075A
:10F0D00031F484E092EE60E00F94C2F1DFC0D80119
:10F0E000C7018070907CA070B0708050904CA040A0
:10F0F000B040D1F52FEF3FE340E050E0E222F322B1
:10F1000004231523CA5DDE4FA880B980CA80DB8046
:10F11000C652D140AE0CBF1CC01ED11EAA0CBB1CD7
:10F12000CC1CDD1C8EE092EE60E00F94C2F1BB2798
:10F13000A12F902F8F2D0F940DF28E2D0F940DF285
:10F1400030E23093C6008091C00086FFFCCF8091F2
:10F15000C00080648093C0004EE34093C60080915D
:10F16000C00086FFFCCF87C08EE09EEFA0E0B0E03D
:10F17000E822F9220A231B239CE0E91694E9F90608
:10F1800090E0090790E0190709F088C0C45DDE4FE0
:10F19000A881CC52D140EA2EFF2400E010E0102FCD
:10F1A0000F2DFE2CEE24C55DDE4FB881CB52D14031
:10F1B000EB0EF11C011D111DD601C501817090706F
:10F1C000A070B070DC0199278827E80EF91E0A1F8D
:10F1D0001B1F20EF30E040E050E0A222B322C42207
:10F1E000D52241E1AA0CBB1CCC1CDD1C4A95D1F7F1
:10F1F000EA0CFB1C0C1D1D1D81E090E0A0E0B0E0BE
:10F20000282239224A225B2235E1220C331C441C7D
:10F21000551C3A95D1F7E20CF31C041D151D57013E
:10F220006801AA0CBB1CCC1CDD1C85E192EE60E0E1
:10F230000F94C2F1C801AA27BB270F940DF2BB2778
:10F24000A12F902F8F2D0F940DF28E2D0F940DF274
:10F2500090E29093C6008091C00086FFFCCF809121
:10F26000C00080648093C000AEE3A093C60080918C
:10F27000C00086FFFCCF8091C00080648093C000F6
:10F28000C601AA27BB270F940DF2BB27AD2D9C2DDD
:10F290008B2D0F940DF28A2D0F940DF20F94DCF14B
:10F2A000CC5DDE4FE881F981C452D140F99709F471
:10F2B0004DCBF4E0EF2EF12C012D112D6E0C7F1CA7
:10F2C000801E911EF2CD83E093EE62E00F94F5F183
:10F2D0008AE192EE60E00F94C2F18091C00087FF56
:10F2E000FCCF1091C6001F751093C6008091C0001E
:10F2F00086FFFCCF8091C00080648093C0000F9493
:10F30000DCF1812F81548A3108F036C1163409F4BA
:10F3100095C0173490F4133409F44EC0143430F40B
:10F320001134F1F0123409F01DC130C0143409F465
:10F3300059C0153409F016C16BC01A3409F4C4C0A1
:10F340001B3438F4173409F48FC0183409F00AC19B
:10F35000A1C01B3409F4D2C01C3409F003C1E8C0B9
:10F360008FEF81B90DC082B1809582B980E090E0C5
:10F37000E0EDF7E03197F1F70196883C9105C1F790
:10F380008091C00087FFEFCF12B8EFC08FEF84B934
:10F390000DC085B1809585B980E090E0E0EDF7E0A3
:10F3A0003197F1F70196883C9105C1F78091C00033
:10F3B00087FFEFCF15B8D9C08FEF87B90DC088B1DF
:10F3C000809588B980E090E0E0EDF7E03197F1F7C3
:10F3D0000196883C9105C1F78091C00087FFEFCF6F
:10F3E00018B8C3C08FEF8AB90DC08BB180958BB9A7
:10F3F00080E090E0E0EDF7E03197F1F70196883C8E
:10F400009105C1F78091C00087FFEFCF1BB8ADC059
:10F410008FEF8DB90DC08EB180958EB980E090E0F0
:10F42000E0EDF7E03197F1F70196883C9105C1F7DF
:10F430008091C00087FFEFCF1EB897C08FEF80BBD1
:10F440000DC081B3809581BB80E090E0E0EDF7E0F6
:10F450003197F1F70196883C9105C1F78091C00082
:10F4600087FFEFCF11BA81C08FEF83BB0DC084B38C
:10F47000809584BB80E090E0E0EDF7E03197F1F714
:10F480000196883C9105C1F78091C00087FFEFCFBE
:10F4900014BA6BC08FEF809301010FC080910201FD
:10F4A00080958093020180E090E0E0EDF7E03197F5
:10F4B000F1F70196883C9105C1F78091C00087FF64
:10F4C000EDCF1092020151C08FEF809304010FC065
:10F4D0008091050180958093050180E090E0E0ED4A
:10F4E000F7E03197F1F70196883C9105C1F78091DB
:10F4F000C00087FFEDCF1092050137C08FEF8093DA
:10F5000007010FC08091080180958093080180E079
:10F5100090E0E0EDF7E03197F1F70196883C910536
:10F52000C1F78091C00087FFEDCF109208011DC088
:10F530008FEF80930A010FC080910B01809580931B
:10F540000B0180E090E0E0EDF7E03197F1F70196F4
:10F55000883C9105C1F78091C00087FFEDCF1092E4
:10F560000B0103C085E292EEEEC98091C00087FFD7
:10F57000FCCF8091C600EAC988E392EEE4C98CE131
:10F5800091EEE1C988249924933011F1943028F444
:10F59000913089F09230B8F408C0953061F195301F
:10F5A000F0F0963009F048C043C02B3109F042C951
:10F5B00091E06BE13FC96227C15DDE4F2883CF52E6
:10F5C000D14092E037C9B22FA0E0622793E032C960
:10F5D000822F90E0A82BB92B622794E02BC92E3004
:10F5E00009F039C3622795E0C05DDE4F19821882A9
:10F5F000C053D1401FC9E1E0F0E0EC0FFD1FC05D3A
:10F60000DE4F08811981C053D140E00FF11F2083E4
:10F610000F5F1F4FC05DDE4F19830883C053D14079
:10F6200062270A171B0709F005C9D80196E002C92D
:10F63000261709F010C303C0973009F0FBC87724E0
:10F640009981933109F412C19431C8F4963009F4C8
:10F65000D8C0973050F4923009F406C1933009F4C1
:10F660006DC0913009F059C253C0913109F477C08F
:10F67000923108F0BBC0903109F04FC2F5C098310B
:10F6800009F487C0993150F4953109F4EFC09531F0
:10F6900008F4C6C1963109F040C2C2C19A3109F4DA
:10F6A0006CC09A3108F491C09B3109F45BC09D3164
:10F6B00009F033C29D81903359F48F81882311F46E
:10F6C0009EE11CC0813011F091E018C098E916C08D
:10F6D000892F807591F0903539F4E0E0F0E089E011
:10F6E0008093570094910AC0983539F4E3E0F0E034
:10F6F00089E080935700949101C090E01A821B82A8
:10F700008D818C831D829E831F8227E030E009C299
:10F710001A8288E08B8381E48C8386E58D8382E581
:10F720008E8389E48F8383E5888780E589878FE5E9
:10F730008A8782E38B872BE030E0F3C18A818139AD
:10F7400041F0823941F0803911F48FE005C080E04A
:10F7500003C082E001C08AE01A828B8344C0772410
:10F76000739482C08D81882311F48EE12CC0813086
:10F7700011F081E028C088E926C01A82E1E0F0E0BB
:10F7800089E08093570084918B831C8224E030E0D1
:10F79000C8C18B81803589F48C81883039F4E2E0EE
:10F7A000F0E089E08093570084910DC0E0E0F0E044
:10F7B00089E080935700849106C0E3E0F0E089E09F
:10F7C0008093570084911A82DFCF8D81836C99E0FA
:10F7D000E1E0F0E0082E90935700E89507B600FCB2
:10F7E000FDCF1A821B8223E030E09BC180EC8A832C
:10F7F000CE5CDE4F188219821A821B82C253D1401E
:10F800008EC18A8190E0A0E0B0E0582F44273327D2
:10F8100022278B8190E0A0E0B0E0DC0199278827C7
:10F82000282B392B4A2B5B2B8D8190E0A0E0B0E098
:10F83000282B392B4A2B5B2B8C8190E0A0E0B0E089
:10F84000BA2FA92F982F8827282B392B4A2B5B2BCF
:10F85000220F331F441F551FC05EDE4F288339839C
:10F860004A835B83C052D1401A8259C13A81C95C34
:10F87000DE4F3883C753D140CA5CDE4F1882C6536F
:10F88000D1408B81C82EDD24CA5CDE4F488159816E
:10F89000C653D140C42AD52A933109F082C0CE5C28
:10F8A000DE4F88819981AA81BB81C253D1408050AB
:10F8B000904CA340B04030F583E0CE5CDE4FE88052
:10F8C000F9800A811B81C253D140F70100935B008C
:10F8D00080935700E89507B600FCFDCFCE5CDE4F65
:10F8E000088119812A813B81C253D14000501F4FAA
:10F8F0002F4F3F4FCE5CDE4F088319832A833B8313
:10F90000C253D140C05EDE4F488159816A817B81FC
:10F91000C052D140DE011B9631E08C9111962C91A2
:10F9200011971296C75CDE4F2883C953D140C85C3B
:10F93000DE4F1882C853D14090E0C85CDE4FE881AA
:10F94000F981C853D1408E2B9F2B0C01FA01609393
:10F950005B0030935700E89511244E5F5F4F6F4F67
:10F960007F4F0EEFE02E0FEFF02ECE0CDF1CC114F8
:10F97000D10499F685E0C05EDE4F088119812A81A5
:10F980003B81C052D140F80120935B008093570027
:10F99000E89507B600FCFDCF81E180935700E8951C
:10F9A00035C0C05EDE4F88819981AA81BB81C0527B
:10F9B000D140B695A795979587957C018601ABE0D8
:10F9C000AA2EB12CAC0EBD1E0BC0D5016D915D01F0
:10F9D000C7010F947FFE0894E11CF11C01501040F8
:10F9E0000115110591F7A60160E070E0440F551F65
:10F9F000661F771FC05EDE4FE880F9800A811B8199
:10FA0000C052D1404E0D5F1D601F711F1A82C05E33
:10FA1000DE4F488359836A837B83C052D1407FC0C5
:10FA2000FA80C55CDE4FF882CB53D140C65CDE4F16
:10FA30001882CA53D1408B81C82EDD24C65CDE4FAC
:10FA400008811981CA53D140C02AD12A1A828981DA
:10FA5000BE016D5F7F4F843121F59601C05EDE4FA0
:10FA6000E880F9800A811B81C052D1400BBFF701A9
:10FA700087919691DB018C9311969C936E5F7F4FDB
:10FA8000D801C7010296A11DB11DC05EDE4F88835B
:10FA90009983AA83BB83C052D14022503040F1F6F3
:10FAA00036C0C05EDE4F288139814A815B81C052F9
:10FAB000D1400894C108D108760100E010E0089414
:10FAC000C11CD11C0894E11CF11C011D111DE20E8A
:10FAD000F31E041F151F21BDBB27A52F942F832FB5
:10FAE00082BD2F5F3F4F4F4F5F4FF89A80B5DB01CC
:10FAF0008D93BD012E153F054007510761F7C05E8C
:10FB0000DE4F288339834A835B83C052D1409601FC
:10FB10002D5F3F4FFB01108204C080EC8A8322E0FE
:10FB200030E08BE18093C6008091C00086FFFCCF5F
:10FB30008091C00080648093C000C15DDE4FF88179
:10FB4000CF52D140F093C6008091C00086FFFCCF19
:10FB50008091C00080648093C000432F3093C60022
:10FB60008091C00086FFFCCF8091C00080648093AC
:10FB7000C000922F2093C6008091C00086FFFCCF6A
:10FB80008091C00080648093C0008EE08093C600A6
:10FB90008091C00086FFFCCF8091C000806480937C
:10FBA000C00065E1C15DDE4FE880CF52D1406E25D7
:10FBB00069276427FE01319610C090819093C6009A
:10FBC0008091C00086FFFCCF31968091C000806498
:10FBD0008093C0006927215030402115310569F715
:10FBE0006093C6008091C00086FFFCCF8091C0006A
:10FBF00080648093C00085B1805885B9772081F4F6
:10FC0000C15DDE4F0881CF52D1400F5FC15DDE4F35
:10FC10000883CF52D14090E0A0E0B0E00D941AF4F8
:10FC200027982F9880E090E020ED37E0F901319798
:10FC3000F1F7019684369105C9F700008091C00064
:10FC40008D7F8093C00081E180935700E895EE2777
:10FC5000FF270994FFCF90E00D941AF497FB092E2B
:10FC600007260AD077FD04D02ED006D000201AF443
:10FC7000709561957F4F0895F6F7909581959F4F08
:10FC80000895A1E21A2EAA1BBB1BFD010DC0AA1FDD
:10FC9000BB1FEE1FFF1FA217B307E407F50720F0F5
:10FCA000A21BB30BE40BF50B661F771F881F991F70
:10FCB0001A9469F760957095809590959B01AC01B9
:10FCC000BD01CF010895AA1BBB1B51E107C0AA1FAC
:10FCD000BB1FA617B70710F0A61BB70B881F991FED
:10FCE0005A95A9F780959095BC01CD010895F99991
:10FCF000FECF92BD81BDF89A992780B50895262F31
:10FD0000F999FECF1FBA92BD81BD20BD0FB6F89400
:0EFD1000FA9AF99A0FBE01960895F894FFCF63
:040000033000E000E9
:00000001FF
