:1000000002C1000031C100002FC100002DC100005D
:100010002BC1000029C1000027C1000025C100003C
:1000200023C1000021C100001FC100001DC100004C
:100030001BC1000019C1000017C1000015C100005C
:1000400013C1000011C100000FC100000DC100006C
:100050000BC1000009C1000007C10000D7C70000A4
:1000600003C100009DC7000072C70000FDC0000072
:10007000FBC00000F9C00000F7C00000F5C00000A0
:10008000F3C00000F1C00000EFC00000EDC00000B0
:10009000EBC00000E9C00000E7C00000E5C00000C0
:1000A000E3C00000E1C00000DFC00000DDC00000D0
:1000B000DBC00000D9C00000D7C00000D5C00000E0
:1000C000D3C00000D1C00000CFC00000CDC00000F0
:1000D000CBC00000C9C00000C7C00000C5C0000000
:1000E000C3C0000000002100240027002A002D00CA
:1000F0003000330001010000040107010A01000083
:100100002200250028002B002E00310034000201BF
:100110000000050108010B0100000A0B02090C0D8B
:100120000E080703040100000000000000000000AA
:1001300000000000000000000000000000000000BF
:10014000000000001211100000000000000000007C
:10015000000000000000000000000000000000009F
:1001600020002300260029002C002F00320000016F
:10017000000003010601090105050505070508083A
:100180000808020202020A0A080804040404010121
:100190000101010101010303030303030303040736
:1001A00007070C0C0C0C0C0C0C0C020202020606CD
:1001B0000606060606060B0B0B0B0B0B0B0B0102C0
:1001C0001020200808102040102040800201020169
:1001D0000804020101020408102040808040201021
:1001E000080402018004020180402010080402017A
:1001F00008040201010204081020408001020408E2
:1002000010204080500811241FBECFEFD1E2DEBF86
:10021000CDBF00E00CBF12E0A0E0B2E0EEE1F6E2FC
:1002200000E00BBF02C007900D92A039B107D9F7CB
:1002300024E0A0E9B2E001C01D92A331B207E1F7CA
:1002400011E0C3E0D1E000E006C021970109802F52
:10025000FE010E94F410C230D10780E00807A9F720
:100260000E94CD090C940D13CBCECF92DF92EF926A
:10027000FF92CF93DF93B0916503A0E08111AB2F84
:100280008091660390E0880F991FAC01425A5E4F3F
:10029000C0906B03D0906C03E0906D03F0906E0300
:1002A00030E020E0FA01C591D491E881B90190E0F5
:1002B00080E0EB23EA130AC02F5F3F4F6C157D05EA
:1002C0008E059F0578F36FEF7FEFCB01DF91CF9124
:1002D000FF90EF90DF90CF900895AF92BF92CF92B2
:1002E000DF92EF92FF920F931F93CF93DF936C01F6
:1002F0007B018B01040F151FEB015E01AE18BF08D7
:10030000C017D10759F06991D601ED91FC91019088
:10031000F081E02DC6011995892B79F7C501DF9190
:10032000CF911F910F91FF90EF90DF90CF90BF90F2
:10033000AF900895FC01448155816081718189E904
:1003400092E0CBCFFC01538D448D252F30E0842FDC
:1003500090E0821B930B541710F0CF9608950197ED
:100360000895FC01918D828D981761F0A28DAE0FDA
:10037000BF2FB11D5D968C91928D9F5F9F73928F61
:1003800090E008958FEF9FEF0895FC01918D828D8D
:10039000981731F0828DE80FF11D858D90E008955A
:1003A0008FEF9FEF0895FC01918D228D892F90E0B2
:1003B000805C9F4F821B91098F739927089589E96B
:1003C00092E0F1DF21E0892B09F420E0822F0895EB
:1003D000FC01A48DA80FB92FB11DA35ABF4F2C91BA
:1003E000848D90E001968F739927848FA689B789B1
:1003F0002C93A089B1898C91837080648C93938DA8
:10040000848D981306C00288F389E02D80818F7D4A
:1004100080830895EF92FF920F931F93CF93DF9302
:10042000EC0181E0888F9B8D8C8D98131AC0E88930
:10043000F989808185FF15C09FB7F894EE89FF89FF
:100440006083E889F98980818370806480839FBF9D
:1004500081E090E0DF91CF911F910F91FF90EF909D
:100460000895F62E0B8D10E00F5F1F4F0F731127AD
:10047000E02E8C8D8E110BC00FB607FCFACFE889E9
:10048000F989808185FFF5CFCE01A2DFF2CFEB8D18
:10049000EC0FFD2FF11DE35AFF4FF0829FB7F89448
:1004A0000B8FEA89FB8980818062D0CFCF93DF9365
:1004B000EC01888D8823B1F0AA89BB89E889F98984
:1004C0008C9185FD03C0808186FD0CC00FB607FCB2
:1004D000F7CF8C9185FFF2CF808185FFEDCFCE01E4
:1004E00077DFEACFDF91CF91089580E090E0892B0C
:1004F00021F065DF81110E94000080E090E0892BEF
:1005000049F080E090E0892B29F00E9400008111E1
:100510000E94000080E090E0892B49F080E090E0AC
:10052000892B29F00E94000081110E94000080E0C8
:1005300090E0892B49F080E090E0892B29F00E941F
:10054000000081110C9400000895CF93DF9390E098
:10055000FC01E254FE4F249188589E4FFC01849187
:100560008823D1F090E0880F991FFC01EC51FF4FD8
:10057000A591B491FC01E250FF4FC591D491623036
:1005800071F49FB7F8943C91822F809583238C93CC
:10059000E8812E2B28839FBFDF91CF9108958FB7DD
:1005A000F894EC912E2B2C938FBFF6CF863308F066
:1005B000865320917B00982F9870277F922B9093E1
:1005C0007B008770806480937C0080917A008064D7
:1005D00080937A0080917A0086FDFCCF809178002C
:1005E0009091790008953FB7F8948091910290918D
:1005F0009202A0919302B091940226B5A89B05C0E7
:100600002F3F19F00196A11DB11D3FBFBA2FA92F91
:10061000982F8827BC01CD01620F711D811D911D8E
:1006200042E0660F771F881F991F4A95D1F70895FA
:100630008F929F92AF92BF92CF92DF92EF92FF92F2
:100640006B017C01D0DF4B015C01C114D104E104DA
:10065000F104B1F0C8DF681979098A099B09683E7D
:1006600073408105910588F321E0C21AD108E108A1
:10067000F10888EE880E83E0981EA11CB11CE5CF1E
:10068000FF90EF90DF90CF90BF90AF909F908F90B2
:1006900008958F929F92AF92BF92EF92FF920F9325
:1006A0001F93CF93DF93CDB7DEB7C054D1400FB6C1
:1006B000F894DEBF0FBECDBF2FB7F894809195029E
:1006C00090919602A0919702B09198022FBF40910D
:1006D0006703509168036091690370916A038C010C
:1006E0009D01041B150B260B370BB901A801403DDA
:1006F000574061057105A0F480916F03C05CDE4F27
:100700000FB6F894DEBF0FBECDBFDF91CF911F9122
:100710000F91FF90EF90BF90AF909F908F900895B2
:100720008093670390936803A0936903B0936A036F
:1007300010926203109261031092600310925F03A3
:1007400010925E0362E080916303FFDE61E070E07F
:1007500080E090E06DDF61E080916303F6DE209140
:10076000630330E0F901E85EFE4F8491F901E25441
:10077000FE4F949128583E4FF9012491222309F409
:1007800033C0882311F181508231F8F4E82FF0E072
:100790008827E253FC4F8F4F0C94F4102504290452
:1007A000E0031D042104E5032C04320436043C0458
:1007B000400444044A044E04E503520458045C0413
:1007C000809180008F7780938000E22FF0E0EE0F21
:1007D000FF1FE250FF4FA591B4918FB7F894EC91B1
:1007E00090959E239C938FBF8091640385518230A6
:1007F00008F066C08BE291E10197F1F762E0809129
:100800006303A3DE8091700390E08230910538F09D
:10081000880F991F880F991F05970197F1F7F89492
:1008200080E023DD6F3F7F4F8F4F9F4F09F04EC019
:1008300010926F03789480E061CF809180008F7D6B
:10084000C2CF80918000877FBECF84B58F7784BD73
:10085000BCCF84B58F7DFBCF8091B0008F77809324
:10086000B000B3CF8091B0008F7DF9CF8091900020
:100870008F7780939000A9CF809190008F7DF9CFE2
:1008800080919000877FF5CF8091A0008F77809333
:10089000A0009BCF8091A0008F7DF9CF8091A00018
:1008A000877FF5CF809120018F77809320018DCFB6
:1008B000809120018F7DF9CF80912001877FF5CF36
:1008C00064E170E080E090E0B3DE98CF81E0CDDCC1
:1008D0006F3F7F4F8F4F9F4F09F4AACF9E012F5F2D
:1008E0003F4F79015E013FEBA31A3EEFB30A870148
:1008F00080E0BBDCF801608371838283938381E0B5
:10090000B4DCF8016483758386839783085F1F4F87
:10091000A016B10669F7789430E020E0F7018080F6
:100920009180A280B3804481558166817781FFEFF9
:100930008F169F06AF06BF0631F04F3F0FEF5007EF
:100940006007700719F410926F0375CFF90183E007
:10095000F595E7958A95E1F7E25AFC4F8081880F7B
:1009600084169506A606B70618F180832F5F3F4FC1
:1009700018E0E10EF11C2832310581F64091620346
:1009800020915E0380915F03280F3327331F8091EE
:100990006003280F311D80916103820F932F911DF9
:1009A00099274817190679F681E080936F03A6CE40
:1009B0008160DBCFEF92FF920F931F93CF93DF9372
:1009C0008C01EB01F12CE12C61E070E080E090E023
:1009D0002FDE8FEFE81AF80ACE15DF05A9F79E0182
:1009E0002150310950E040E02F5F3F4F4F4F5F4FA4
:1009F000D8010E94600F9E01DD0F440B550B0E9431
:100A00003A0FCA01B9010E94270EDF91CF911F91C1
:100A10000F91FF90EF9008958F929F92AF92BF92A7
:100A2000CF92DF92EF92FF92CF93DF93EC018C8114
:100A3000BDDD8C81BBDD8C81B9DD6AE070E0BADFA1
:100A40000E9464107F876E87CA84DB84EC84FD84F7
:100A5000072E000C880B990B0E94270E2AE038E223
:100A600040EA5BE30E94860E4B015C012E813F81D0
:100A700048855985C701B6010E94980F9B01AC01BA
:100A8000C701B6010E94FC0F9B01AC01C501B40176
:100A90000E94FC0F688379838A839B83DF91CF91C7
:100AA000FF90EF90DF90CF90BF90AF909F908F908E
:100AB00008951F93CF93DF93EC011C81812F76DD86
:100AC0008C8174DD812F72DD64E170E073DF6E87ED
:100AD0007F87888B998B20E030E040E85AE30E94C2
:100AE000860E20E030E44CE955E40E94860E6A8BC5
:100AF0007B8B8C8B9D8B2A853B854C855D850E94ED
:100B0000970F2E813F81488559850E94FC0F68838D
:100B100079838A839B83DF91CF911F910895FC0194
:100B200001900020E9F73197AF01481B590BBC0138
:100B300089E992E0D2CB8F929F92AF92BF920F93AE
:100B40001F93CF93DF93CDB7DEB7A1970FB6F8947D
:100B5000DEBF0FBECDBF19A2423008F44AE08E01BD
:100B60000F5D1F4F842E912CB12CA12CA501940157
:100B70000E94660FE62FB901CA01EA30ECF4E05D8D
:100B8000D801EE938D01232B242B252B79F790E0B0
:100B900080E0109711F0CD01C2DFA1960FB6F89456
:100BA000DEBF0FBECDBFDF91CF911F910F91BF90E0
:100BB000AF909F908F900895E95CE2CFFC01808117
:100BC00091810C949811EF92FF920F931F93CF9302
:100BD000DF93EC017B01198218821B821A821D822D
:100BE0001C82FB0101900020E9F731978F01061B61
:100BF000170BB8016F5F7F4F90E080E00E942112D9
:100C00000097B9F0998388831B830A832C813D81E7
:100C1000232B11F4FC0110821D830C83B701888102
:100C20009981DF91CF911F910F91FF90EF900C94DC
:100C3000061388819981009711F00E9498111982FA
:100C400018821D821C821B821A82DF91CF911F9114
:100C50000F91FF90EF9008954F925F926F927F9265
:100C60008F929F92AF92BF92CF92DF92EF92FF92BC
:100C7000CF93DF9300D000D01F921F92CDB7DEB785
:100C80009A838983DC018C9191DCE981FA818081EE
:100C90008DDCA981BA818C9189DC6AE070E08ADE02
:100CA0009B01AC01E981FA8122833383448355831C
:100CB00060E070EC8FE794E40E94FC0F20E030E0ED
:100CC00040E85FE30E94970F9B01AC0160E070E495
:100CD0008CE995E40E94FC0FA981BA811A962D91A6
:100CE0003D914D915C911D970E94980F2B013C0105
:100CF000E981FA814682578260867186C684D784EC
:100D0000E088F1882289338944895589C701B60171
:100D1000FDD74B015C01A981BA8156968D919D91B9
:100D20000D90BC91A02D89839A83AB83BC8320E076
:100D300030E040E850ECC701B601E8D729813A819C
:100D40004B815C81E3D76D837E838F839887A3017A
:100D50009201C701B6010E94970F9B01AC016D8102
:100D60007E818F819885D2D72B013C01A50194010A
:100D7000C501B401CBD79B01AC01C301B2010E94F4
:100D8000980F0E949D10A50194010E94970F4B019E
:100D90005C01A7019601C701B6010E94980F298145
:100DA0003A814B815C81B2D79B01AC01C501B40192
:100DB0000E94FC0F28960FB6F894DEBF0FBECDBF81
:100DC000DF91CF91FF90EF90DF90CF90BF90AF90E9
:100DD0009F908F907F906F905F904F9008958F922B
:100DE0009F92AF92BF92CF92DF92EF92FF920F93BA
:100DF0001F935B0169017A019DDA88E192E08FDE41
:100E0000C50198DA88E192E08ADEA7019601C70160
:100E1000B6010E94DB108823A9F08AE192E07FDE10
:100E200088E192E07CDEC80185DA86E292E01F91DB
:100E30000F91FF90EF90DF90CF90BF90AF909F9079
:100E40008F906DCE46015701E894B7F82FEF3FEF32
:100E50004FE75FE7C501B4010E94DB1081110CC0B0
:100E60002FEF3FEF4FE75FE7C501B401EAD6181651
:100E70001CF48EE192E0D3CF2FEF3FEF4FE75FE41A
:100E8000C701B6010E94951018161CF482E292E088
:100E9000C6CF2FEF3FEF4FE75FECC701B601D1D6CA
:100EA00087FDF4CF20E030E0A901C701B601C9D623
:100EB00087FF08C06DE289E992E0ACDAF7FAF094B6
:100EC000F7F8F0942AE037ED43EA5BE3C701B60197
:100ED0000E94980F4B015C010E9469106B017C011C
:100EE000B4D69B01AC01C501B4010E94970F4B0120
:100EF0005C014AE0C701B6011EDE6EE289E992E0BC
:100F000089DA20E030E040E251E4C501B401FED6C8
:100F10004B015C010E9469106B01F12CE12C4AE04D
:100F2000C701B60108DEC701B6018FD69B01AC012F
:100F3000C501B401FCD720E030E040E251E4E6D640
:100F40000E94691090E080E04AE0F5DD69CF1F92D1
:100F50000F920FB60F9211240BB60F922F933F935F
:100F60004F935F936F937F938F939F93AF93BF93B1
:100F7000EF93FF9389E992E02BDAFF91EF91BF9114
:100F8000AF919F918F917F916F915F914F913F9121
:100F90002F910F900BBE0F900FBE0F901F901895C2
:100FA0001F920F920FB60F9211240BB60F922F9330
:100FB0008F939F93EF93FF93E091A902F091AA0280
:100FC0008081E091AF02F091B00282FD1DC090815E
:100FD0008091B2028F5F8F732091B302821741F02C
:100FE000E091B202F0E0E756FD4F958F8093B20298
:100FF000FF91EF919F918F912F910F900BBE0F90CA
:101000000FBE0F901F9018958081F2CF1F920F9204
:101010000FB60F9211242F933F938F939F93AF930B
:10102000BF938091950290919602A0919702B09102
:1010300098023091900223E0230F2D3758F5019646
:10104000A11DB11D2093900280939502909396026A
:10105000A0939702B093980280919102909192028E
:10106000A0919302B09194020196A11DB11D8093AD
:10107000910290939202A0939302B0939402BF9135
:10108000AF919F918F913F912F910F900FBE0F9035
:101090001F90189526E8230F0296A11DB11DD2CFEF
:1010A0008F929F92AF92BF92CF92DF92EF92FF9278
:1010B0000F931F93CF93DF93E9E9F2E0138212823B
:1010C00088EE93E0A0E0B0E084839583A683B783A5
:1010D0008AE092E09183808385EC90E09587848715
:1010E00084EC90E09787868780EC90E0918B808BF2
:1010F00081EC90E0938B828B82EC90E0958B848BDB
:1011000086EC90E0978B868B118E128E138E148E48
:10111000EFEFF3E01786168686E390E095838483ED
:1011200080E090EFA2E5B8E486839783A087B1873B
:1011300080E092EEA1E8B7E482879387A487B58721
:10114000EFEEF3E01786168687E390E095838483BD
:1011500080E09AEEA3E5B8E486839783A087B18701
:1011600080E09AE1A1E8B7E482879387A487B587F6
:10117000E9EDF3E0108211821282138240E050E424
:101180006CE175E4428753876487758716861786F6
:10119000108A118A128A138A148A158A8AE090E0CA
:1011A0009583848380E090E0A8ECB2E48683978303
:1011B000A087B187E3ECF3E01082118212821382E0
:1011C000428753876487758716861786108A118A27
:1011D000128A138A148A158A2BE030E0358324831F
:1011E00086839783A087B187EDEAF3E010821182AE
:1011F0001282138242875387648775871686178603
:10120000108A118A128A138A148A158A2CE030E017
:101210003583248386839783A087B187EFE8F3E043
:10122000C12CD12C8AE7E82E84E4F82EC686D78616
:10123000E08AF18A02E311E120E83BE3028B138BA1
:10124000248B358B4FE755E06BE175EB468B578B65
:10125000608F718F85E698EFA7E3BEEA828F938F48
:10126000A48FB58FC9E3D0E0D183C083C1EE8C2EAB
:10127000CAE79C2EC6EAAC2EC1E4BC2E82869386B9
:10128000A486B586E1E7F3E0C686D786E08AF18AD0
:10129000028B138B248B358B468B578B608F718F12
:1012A000828F938FA48FB58F8AE390E091838083A0
:1012B00080E090E0A0EEB1E482879387A487B587B1
:1012C000AEE5B3E08CE315968C9315978BE01696FC
:1012D0008C931697EAEFF1E0E4911796EC93179749
:1012E000E4EBF1E0E4911896EC93189740E85EE3A4
:1012F00060E070E01D964D935D936D937C935097E5
:10130000E0E4F3E0128213821482158216821782BF
:10131000108611868DEC9CECACECBEE38287938743
:10132000A487B58716861786108A118A80E090E018
:10133000A0E0B0E4828B938BA48BB58B80E090E02F
:10134000A0E0B2E4868B978BA08FB18F128E138EA4
:10135000148E158E8EE090E091838083E6E3F3E0B7
:1013600015821482178216828FEF93E0918780870F
:1013700084E390E0918380838FE090E09383828385
:10138000DF91CF911F910F91FF90EF90DF90CF9061
:10139000BF90AF909F908F900895CF93DF93CDB77C
:1013A000DEB7E6970FB6F894DEBF0FBECDBF7894D8
:1013B00084B5826084BD84B5816084BD85B582605A
:1013C00085BD85B5816085BD80916E00816080930B
:1013D0006E00109281008091810082608093810074
:1013E0008091810081608093810080918000816084
:1013F000809380008091B10084608093B1008091DF
:10140000B00081608093B0008091910082608093F1
:101410009100809191008160809391008091900073
:101420008160809390008091A10082608093A100F0
:101430008091A10081608093A1008091A0008160D3
:101440008093A0008091210182608093210180918E
:10145000210181608093210180912001816080932E
:10146000200180917A00846080937A0080917A00D4
:10147000826080937A0080917A00816080937A0004
:1014800080917A00806880937A001092C100E09188
:10149000A902F091AA0282E08083E091A502F09176
:1014A000A6021082E091A702F091A80280E1808359
:1014B0001092B102E091AD02F091AE0286E080831D
:1014C000E091AB02F091AC02808180618083E09179
:1014D000AB02F091AC02808188608083E091AB0226
:1014E000F091AC02808180688083E091AB02F09142
:1014F000AC0280818F7D808362E08091630325D878
:101500002FB7F8948091950290919602A09197023E
:10151000B09198022FBF805D9740A109B1098093D7
:10152000670390936803A0936903B0936A0387E30A
:101530008093700364E670E080E090E079D88FEFEC
:1015400093E06ADA6F8B788F898F9A8F6AE070E008
:1015500080E090E06DD88FEE93E05EDA6B8F7C8F49
:101560008D8F9E8F6AE070E080E090E061D889ED19
:1015700093E09FDA6F8F78A389A39AA36AE070E063
:1015800080E090E055D883EC93E093DA6BA37CA3E2
:101590008DA39EA36AE070E080E090E049D88DEAD8
:1015A00093E087DA6FA378A789A79AA76AE070E02B
:1015B00080E090E03DD88FE893E04EDB6BA77CA7FE
:1015C0008DA79EA76AE070E080E090E031D881E7C7
:1015D00093E042DB6FA778AB89AB9AAB6AE070E02F
:1015E00080E090E025D855D8882351F0809164039D
:1015F0008B3030F08D3068F08551823008F43DC07A
:1016000080E090E0A0ECBFE78B8B9C8BAD8BBE8B1A
:101610001CC060915F0370E090E080E018D32DEC77
:101620003CEC4CEC5DE372D36B017C0160915E039A
:1016300070E090E080E00BD39B01AC01C701B601E4
:1016400077D46B8B7C8B8D8B9E8B6AE070E080E017
:1016500090E00E9418031DD8882341F08091640314
:101660008C3009F4A4C2C8F48B3091F1C12CD12C78
:1016700090ECE92E9FE7F92E50C060915E037091C7
:101680005F0376276727762790E080E0DED22DEC97
:101690003CEC4CEC5DE33AD3D4CF8551823030F74B
:1016A000B09060036B2D70E0762F662766277F77FA
:1016B00080916103682B90E080E0C7D22DEC3CEC78
:1016C0004CEC5DE323D36B017C01B7FE26C08BC2DB
:1016D0006091600370E090E080E0B7D26B017C0124
:1016E0001091610317FF09C0AC019B0160E070E03D
:1016F00080E89FEB1CD46B017C011F70612F70E0B0
:1017000090E080E0A4D22DEC3CEC4CEC5DE3FED20A
:10171000A70196010DD46B017C016AE070E080E0C6
:1017200090E00E941803809140030E94D6028091AD
:1017300040030E94D602809140030E94D6026AE0D4
:1017400070E038D96093420370934303809344035D
:10175000909345032AE038E240EA5BE3D7D22B01BD
:101760003C014092460350924703609248037092B6
:10177000490380904A0390904B03A0904C03B09093
:101780004D03A50194015DD218160CF431C21092DC
:101790005A0310925B0310925C0310925D038091D8
:1017A0005A0390915B03A0915C03B0915D038BABF6
:1017B0009CABADABBEAB6AE070E080E090E00E9415
:1017C000180380903E0390903F03092C000CAA0858
:1017D000BB0840903C0350903D03052C000C66086C
:1017E0007708809138030E94D602809138030E94C6
:1017F000D602809138030E94D6026AE070E0DAD8FF
:1018000063D49B01770F440B550B24193509460906
:101810005709A3E0B0E04AD3A50194012419350982
:101820004609570927D339012115310509F405C2A5
:101830002130310511F0712C612C6AE070E080E0FC
:1018400090E00E9418032AE939E949E151E46091E6
:10185000EF037091F0038091F1039091F20367D34D
:1018600020E030E040E450E4C7D320E030E048EC32
:1018700052E44CD24B015C0120E030E0A901E1D1FF
:1018800087FF03C0812C912C54016AE070E080E056
:1018900090E00E94180362E372E0CE010D9693D9A6
:1018A00068E272E0CE0107968ED96CE272E0CE015A
:1018B000019689D98E01035F1F4F2F89388D498D7D
:1018C0005A8DBE01695F7F4FCE01019688DACE0145
:1018D000019674D9CE01079671D9C8016FD962E318
:1018E00072E0C80170D961E372E0CE0107966BD94E
:1018F0006CE272E0CE01019666D92B8D3C8D4D8D48
:101900005E8DBE01695F7F4FCE01019668DACE0120
:10191000019654D9CE01079651D9C8014FD964E335
:1019200072E0C80150D966E372E0CE0107964BD948
:101930006CE272E0CE01019646D9A5019401BE0188
:10194000695F7F4FCE0101964ADACE01019636D902
:10195000CE01079633D9C80131D96AE372E0C801D4
:1019600032D96CE372E0CE0107962DD96CE272E0B9
:10197000CE01019628D92F8D38A149A15AA1BE01C7
:10198000695F7F4FCE0101962ADACE01019616D902
:10199000CE01079613D9C80111D96AE372E0C801D4
:1019A00012D960E472E0CE0107960DD96CE272E0C4
:1019B000CE01019608D92BA13CA14DA15EA1BE018B
:1019C000695F7F4FCE0101960ADACE010196F6D803
:1019D000CE010796F3D8C801F1D86AE372E0C801D6
:1019E000F2D863E472E0CE010796EDD86CE272E0C3
:1019F000CE010196E8D82FA138A549A55AA5BE0168
:101A0000695F7F4FCE010196EAD9CE010196D6D803
:101A1000CE010796D3D8C801D1D866E472E0C801D8
:101A2000D2D86EE472E0CE010796CDD86CE272E0B7
:101A3000CE010196C8D82BA53CA54DA55EA5BE013B
:101A4000695F7F4FCE010196CAD9CE010196B6D803
:101A5000CE010796B3D8C801B1D866E472E0C801D8
:101A6000B2D861E572E0CE010796ADD86CE272E0C3
:101A7000CE010196A8D82FA538A949A95AA9BE0117
:101A8000695F7F4FCE010196AAD9CE01019696D803
:101A9000CE01079693D8C80191D864E372E0C801DB
:101AA00092D865E572E0CE0107968DD86CE272E0BF
:101AB000CE01019688D82B893C894D895E89BE016B
:101AC000695F7F4FCE0101968AD9CE01019676D803
:101AD000CE01079673D8C80171D86CE572E0C801D1
:101AE00072D864E672E0CE0107966DD86CE272E0BF
:101AF000CE01019668D8A7019601BE01695F7F4FAC
:101B0000CE0101966CD9CE01019658D8CE01079628
:101B100055D8C80153D86CE672E0C80154D860E7C4
:101B200072E0CE0107964FD86CE272E0CE010196CA
:101B30004AD82BA93CA94DA95EA9BE01695F7F4F78
:101B4000CE0101964CD9CE01019638D8CE01079628
:101B500035D8C80133D86AE772E0C80134D86AE8DA
:101B600072E0CE0107962FD86CE272E0CE010196AA
:101B70002AD8B301770C880B990B69D09B01AC0173
:101B8000BE01695F7F4FCE01019629D9CE01019632
:101B900015D8CE01079612D8C80110D868EB7BE0A3
:101BA00080E090E00E9418030E947502C8CC10915A
:101BB0006003612F70E090E080E047D06B017C0112
:101BC000609161036F7070E090E080E040D02DEC98
:101BD0003CEC4CEC5DE39AD0A7019601A9D16B01D6
:101BE0007C0117FF9ACDF7FAF094F7F8F09495CDB1
:101BF000A5019401C301B2019AD12B013C01A501B9
:101C00009401609152037091530380915403909119
:101C100055038DD19B01AC01C301B201EDD120E090
:101C200030E040E052E472D060935A0370935B035B
:101C300080935C0390935D03B2CD82E0682E712C9B
:101C4000FCCD40D008F481E00895E89409C097FBEA
:101C50003EF490958095709561957F4F8F4F9F4F83
:101C60009923A9F0F92F96E9BB279395F6958795C7
:101C700077956795B795F111F8CFFAF4BB0F11F48A
:101C800060FF1BC06F5F7F4F8F4F9F4F16C0882331
:101C900011F096E911C0772321F09EE8872F762F67
:101CA00005C0662371F096E8862F70E060E02AF0A8
:101CB0009A95660F771F881FDAF7880F9695879594
:101CC00097F90895990F0008550FAA0BE0E8FEEF69
:101CD00016161706E807F907C0F012161306E407F0
:101CE000F50798F0621B730B840B950B39F40A26E9
:101CF00061F0232B242B252B21F408950A2609F4C7
:101D0000A140A6958FEF811D811D08950BD078C04D
:101D100069D028F06ED018F0952309F05AC05FC042
:101D20001124A2C07ED0A0F3959FD1F3950F50E06F
:101D3000551F629FF001729FBB27F00DB11D639F7D
:101D4000AA27F00DB11DAA1F649F6627B00DA11D23
:101D5000661F829F2227B00DA11D621F739FB00DC9
:101D6000A11D621F839FA00D611D221F749F332739
:101D7000A00D611D231F849F600D211D822F762FD2
:101D80006A2F11249F5750408AF0E1F088234AF0CF
:101D9000EE0FFF1FBB1F661F771F881F915050401B
:101DA000A9F79E3F510570F014C05EC05F3FECF391
:101DB000983EDCF3869577956795B795F795E79507
:101DC0009F5FC1F7FE2B880F911D9695879597F918
:101DD000089597F99F6780E870E060E008959FEFAD
:101DE00080EC089500240A941616170618060906B2
:101DF000089500240A941216130614060506089581
:101E0000092E0394000C11F4882352F0BB0F40F408
:101E1000BF2B11F460FF04C06F5F7F4F8F4F9F4F48
:101E2000089557FD9058440F551F59F05F3F71F0CA
:101E30004795880F97FB991F61F09F3F79F0879531
:101E40000895121613061406551FF2CF4695F1DFBA
:101E500008C0161617061806991FF1CF869571054A
:101E6000610508940895E894BB2766277727CB017E
:101E700097F90895052E97FB16F400940FD057FD9F
:101E800005D024D007FC02D046F408C050954095F8
:101E9000309521953F4F4F4F5F4F08959095809516
:101EA000709561957F4F8F4F9F4F089531D0A59FBB
:101EB000900DB49F900DA49F800D911D1124089545
:101EC000B7FFF4CFF3DF821B930B0895A1E21A2E24
:101ED000AA1BBB1BFD010DC0AA1FBB1FEE1FFF1FCE
:101EE000A217B307E407F50720F0A21BB30BE40B1E
:101EF000F50B661F771F881F991F1A9469F7609565
:101F00007095809590959B01AC01BD01CF0108951E
:101F1000A29FB001B39FC001A39F700D811D11242A
:101F2000911DB29F700D811D1124911D089550586F
:101F3000BB27AA270ED064CF55DF30F05ADF20F040
:101F400031F49F3F11F41EF44ACF0EF4E095E7FB05
:101F500040CFE92F66DF80F3BA1762077307840763
:101F6000950718F071F49EF57ECF0EF4E0950B2ED8
:101F7000BA2FA02D0B01B90190010C01CA01A001DB
:101F80001124FF27591B99F0593F50F4503E68F136
:101F90001A16F040A22F232F342F4427585FF3CF77
:101FA000469537952795A795F0405395C9F77EF448
:101FB0001F16BA0B620B730B840BBAF09150A1F091
:101FC000FF0FBB1F661F771F881FC2F70EC0BA0F17
:101FD000621F731F841F48F4879577956795B7959F
:101FE000F7959E3F08F0B3CF9395880F08F0992797
:101FF000EE0F9795879508950CD002CFFADE40F04A
:10200000F1DE30F021F45F3F19F0E3CE51112CCF17
:10201000E6CE07DF98F39923C9F35523B1F3951B57
:10202000550BBB27AA2762177307840738F09F5FF9
:102030005F4F220F331F441FAA1FA9F333D00E2E68
:102040003AF0E0E830D091505040E695001CCAF7D5
:1020500029D0FE2F27D0660F771F881FBB1F26179A
:1020600037074807AB07B0E809F0BB0B802DBF016D
:10207000FF2793585F4F2AF09E3F510568F0A9CE85
:10208000F3CE5F3FECF3983EDCF38695779567954A
:10209000B795F7959F5FC9F7880F911D969587951E
:1020A00097F90895E1E0660F771F881FBB1F62173D
:1020B00073078407BA0720F0621B730B840BBA0BFB
:1020C000EE1F88F7E095089504D06894B111CCCE46
:1020D0000895AFDE88F09F5790F0B92F9927B75138
:1020E000A0F0D1F0660F771F881F991F1AF0BA95DC
:1020F000C9F712C0B13081F0B6DEB1E00895B3CEB9
:10210000672F782F8827B85F39F0B93FCCF38695D1
:1021100077956795B395D9F73EF49095809570952E
:1021200061957F4F8F4F9F4F0895CCDD08F48FEF5F
:10213000089511F40EF453CE42C07BDED0F3992300
:10214000D9F3CEF39F57550B87FF47D00024A0E665
:1021500040EA900180585695979528F4805C660F68
:10216000771F881F20F026173707480730F4621BB7
:10217000730B840B202931294A2BA69517940794B9
:10218000202531254A2758F7660F771F881F20F032
:1021900026173707480730F4620B730B840B200DAA
:1021A000311D411DA09581F7B901842F9158880FE9
:1021B00096958795089586DD880B990B08959F3F26
:1021C00031F0915020F4879577956795B795880FF2
:1021D000911D9695879597F9089591505040660FF7
:1021E000771F881FD2F70895EE0FFF1F881F8BBF40
:1021F0000790F691E02D19940F931F93CF93DF93DF
:102200008230910510F482E090E0E0911104F091A9
:10221000120430E020E0B0E0A0E0309799F42115FE
:10222000310509F44AC0281B390B24303105D8F593
:102230008A819B816115710589F1FB0193838283FA
:10224000FE0111C040815181028113814817590755
:10225000E0F04817590799F4109761F012960C9323
:10226000129713961C933296CF01DF91CF911F9155
:102270000F9108950093110410931204F4CF2115C7
:10228000310551F04217530738F0A901DB019A01DB
:10229000BD01DF01F801C1CFEF01F9CF9093120426
:1022A00080931104CDCFFE01E20FF31F8193919330
:1022B0002250310939832883D7CF20910F043091E0
:1022C0001004232B41F42091020230910302309339
:1022D000100420930F042091000230910102211577
:1022E000310541F42DB73EB74091040250910502EB
:1022F000241B350BE0910F04F0911004E217F30753
:10230000A0F42E1B3F0B2817390778F0AC014E5F65
:102310005F4F2417350748F04E0F5F1F509310048E
:1023200040930F04819391939FCFF0E0E0E09CCF26
:10233000CF93DF930097E9F0FC013297138212826A
:10234000A0911104B0911204ED0130E020E010974B
:10235000A1F420813181820F931F20910F043091CD
:1023600010042817390709F061C0F0931004E093B6
:102370000F04DF91CF910895EA01CE17DF07E8F54A
:102380004A815B819E0141155105B1F7E901FB834B
:10239000EA8349915991C40FD51FEC17FD0761F4E9
:1023A000808191810296840F951FE901998388832A
:1023B000828193819B838A83F0E0E0E012968D9185
:1023C0009C9113970097B9F52D913C911197CD01F0
:1023D0000296820F931F20910F043091100428174A
:1023E000390739F6309751F5109212041092110402
:1023F000B0931004A0930F04BCCFD383C283408159
:102400005181840F951FC817D90761F44E5F5F4F44
:1024100088819981480F591F518340838A819B810C
:10242000938382832115310509F0B0CFF093120414
:10243000E09311049ECFFD01DC01C0CF1382128214
:10244000D7CF4F925F926F927F928F929F92AF926F
:10245000BF92CF92DF92EF92FF920F931F93CF9391
:10246000DF938C01009791F4CB01DF91CF911F9105
:102470000F91FF90EF90DF90CF90BF90AF909F9023
:102480008F907F906F905F904F90B6CEFC01E60FDB
:10249000F71F9C0122503109E217F30708F4AAC084
:1024A000D901CD91DC911197C617D70718F1C53026
:1024B000D10570F0CE0104978617970748F0C61B28
:1024C000D70B2297C193D1936D937C93CF0130DFCB
:1024D000C801DF91CF911F910F91FF90EF90DF9096
:1024E000CF90BF90AF909F908F907F906F905F90B4
:1024F0004F9008955B01AC1ABD0A4C018C0E9D1ED5
:10250000A0911104B0911204512C412CF12CE12C1A
:10251000109731F580910F0490911004881599055A
:1025200009F05CC04616570608F058C080910002BA
:1025300090910102009741F48DB79EB7409104023B
:1025400050910502841B950BE817F90708F052C05B
:10255000F0931004E0930F04F90171836083B8CF06
:102560008D919C91119712966C90129713967C9076
:102570001397A815B90559F56C0142E0C40ED11C9A
:10258000CA14DB0420F1AC014A195B09DA01129686
:10259000159780F06282738251834083D9016D93D5
:1025A0007C93E114F10471F0D7011396FC93EE9340
:1025B00012978ECF22968C0F9D1FF90191838083F5
:1025C000F301EFCFF0931204E093110481CF48168A
:1025D000590608F42C017D01D3019ACFCB010CDE02
:1025E0007C01009739F0AE01B80107D0C801A0DE28
:1025F00087016ECF10E000E06BCFFB01DC0102C071
:1026000001900D9241505040D8F70895FB01DC0134
:0E26100001900D920020E1F70895F894FFCF9D
:10261E00000013048000000000000A026D01A201F8
:10262E005602D301B101C5012C006E616E00696EB8
:10263E0066006F7666000A0053505600526F6F6642
:10264E00004256002500536F430041005350430093
:10265E004243004C430063656C63697573004254DA
:10266E0000535054004F555448554D0063656C63EC
:10267E00756973004F555454454D50006D2F7300BE
:10268E0077696E64737065656400484947482F4DDD
:10269E00454449554D2F4C4F57005241494E00006D
:00000001FF
