:1000000002C1000030C100002EC100002CC1000060
:100010002AC1000028C1000026C1000024C1000040
:1000200022C1000020C100001EC100001CC1000050
:100030001AC1000018C1000016C1000014C1000060
:1000400012C1000010C100000EC100000CC1000070
:100050000AC1000008C1000006C100005BC6000024
:1000600002C1000021C60000F6C50000FCC000006F
:10007000FAC00000F8C00000F6C00000F4C00000A4
:10008000F2C00000F0C00000EEC00000ECC00000B4
:10009000EAC00000E8C00000E6C00000E4C00000C4
:1000A000E2C00000E0C00000DEC00000DCC00000D4
:1000B000DAC00000D8C00000D6C00000D4C00000E4
:1000C000D2C00000D0C00000CEC00000CCC00000F4
:1000D000CAC00000C8C00000C6C00000C4C0000004
:1000E000C2C0000000002100240027002A002D00CB
:1000F0003000330001010000040107010A01000083
:100100002200250028002B002E00310034000201BF
:100110000000050108010B0100000A0B02090C0D8B
:100120000E080703040100000000000000000000AA
:1001300000000000000000000000000000000000BF
:10014000000000001211100000000000000000007C
:10015000000000000000000000000000000000009F
:1001600020002300260029002C002F00320000016F
:10017000000003010601090105050505070508083A
:100180000808020202020A0A080804040404010121
:100190000101010101010303030303030303040736
:1001A00007070C0C0C0C0C0C0C0C020202020606CD
:1001B0000606060606060B0B0B0B0B0B0B0B0102C0
:1001C0001020200808102040102040800201020169
:1001D0000804020101020408102040808040201021
:1001E000080402018004020180402010080402017A
:1001F00008040201010204081020408001020408E2
:1002000010204080D40611241FBECFEFD1E2DEBF04
:10021000CDBF00E00CBF13E0A0E0B2E0E4E5FCE1FC
:1002200000E00BBF02C007900D92AC32B107D9F7C6
:1002300024E0ACE2B3E001C01D92A938B207E1F7B7
:1002400011E0C3E0D1E000E006C021970109802F52
:10025000FE010E94200EC230D10780E00807A9F7F6
:10026000DED60C94280ECCCECF92DF92EF92FF9286
:10027000CF93DF93B091D903A0E08111AB2F809190
:10028000DA0390E0880F991FAC01425A5E4FC0908C
:10029000DF03D090E003E090E103F090E20330E070
:1002A00020E0FA01C591D491E881B90190E080E0A5
:1002B000EB23EA130AC02F5F3F4F6C157D058E05B7
:1002C0009F0578F36FEF7FEFCB01DF91CF91FF9028
:1002D000EF90DF90CF900895AF92BF92CF92DF92D0
:1002E000EF92FF920F931F93CF93DF936C017B01EB
:1002F0008B01040F151FEB015E01AE18BF08C0177C
:10030000D10759F06991D601ED91FC910190F081EE
:10031000E02DC6011995892B79F7C501DF91CF91A1
:100320001F910F91FF90EF90DF90CF90BF90AF9013
:100330000895FC01538D448D252F30E0842F90E0EB
:10034000821B930B541710F0CF96089501970895D0
:10035000FC01918D828D981761F0A28DAE0FBF2F99
:10036000B11D5D968C91928D9F5F9F73928F90E0EF
:1003700008958FEF9FEF0895FC01918D828D98175E
:1003800031F0828DE80FF11D858D90E008958FEF9B
:100390009FEF0895FC01918D228D892F90E0805C64
:1003A0009F4F821B91098F739927089585E393E0EE
:1003B000F1DF21E0892B09F420E0822F0895FC0170
:1003C000A48DA80FB92FB11DA35ABF4F2C91848DB6
:1003D00090E001968F739927848FA689B7892C9313
:1003E000A089B1898C91837080648C93938D848D66
:1003F000981306C00288F389E02D80818F7D808369
:100400000895EF92FF920F931F93CF93DF93EC0128
:1004100081E0888F9B8D8C8D98131AC0E889F989AB
:10042000808185FF15C09FB7F894EE89FF896083AE
:10043000E889F98980818370806480839FBF81E02F
:1004400090E0DF91CF911F910F91FF90EF90089571
:10045000F62E0B8D10E00F5F1F4F0F731127E02E4C
:100460008C8D8E110BC00FB607FCFACFE889F98985
:10047000808185FFF5CFCE01A2DFF2CFEB8DEC0FAF
:10048000FD2FF11DE35AFF4FF0829FB7F8940B8FB9
:10049000EA89FB8980818062D0CFCF93DF93EC0122
:1004A000888D8823B1F0AA89BB89E889F9898C9164
:1004B00085FD03C0808186FD0CC00FB607FCF7CF19
:1004C0008C9185FFF2CF808185FFEDCFCE0177DF64
:1004D000EACFDF91CF91089580E090E0892B21F061
:1004E00065DF81110E94000080E090E0892B49F0D7
:1004F00080E090E0892B29F00E94000081110E9489
:10050000000080E090E0892B49F080E090E0892BAA
:1005100029F00E94000081110E94000080E090E01C
:10052000892B49F080E090E0892B29F00E9400009F
:1005300081110C94000008958150823108F05AC056
:10054000E82FF0E08827E855FD4F8F4F0C94200EE0
:10055000C802CC02BA02C002C402FA02CF02D5021B
:10056000D902DF02E302E702ED02F102FA02F5022C
:10057000FB02FF02809180008F77809380000895B6
:10058000809180008F7DF9CF80918000877FF5CFAB
:1005900084B58F7784BD089584B58F7DFBCF80911E
:1005A000B0008F778093B00008958091B0008F7D68
:1005B000F9CF809190008F7780939000089580917B
:1005C00090008F7DF9CF80919000877FF5CF80914B
:1005D000A0008F778093A00008958091A0008F7D68
:1005E000F9CF8091A000877FF5CF809120018F7790
:1005F000809320010895809120018F7DF9CF809113
:100600002001877FF5CFCF93DF9390E0FC01E25488
:10061000FE4F249188589E4FFC0184918823C9F095
:1006200090E0880F991FFC01EC51FF4FA591B49108
:10063000FC01E250FF4FC591D49161110DC09FB7ED
:10064000F8948C91209582238C9388812823288389
:100650009FBFDF91CF910895623051F49FB7F89416
:100660003C91822F809583238C93E8812E2BEFCFB2
:100670008FB7F894EC912E2B2C938FBFEACF863353
:1006800008F0865320917B00982F9870277F922B3B
:1006900090937B008770806480937C0080917A00C7
:1006A000806480937A0080917A0086FDFCCF8091EF
:1006B00078009091790008953FB7F89480912D03C8
:1006C00090912E03A0912F03B091300326B5A89BE3
:1006D00005C02F3F19F00196A11DB11D3FBFBA2FD4
:1006E000A92F982F8827BC01CD01620F711D811D94
:1006F000911D42E0660F771F881F991F4A95D1F719
:1007000008958F929F92AF92BF92CF92DF92EF9215
:10071000FF926B017C01D0DF4B015C01C114D1045D
:10072000E104F104B1F0C8DF681979098A099B096D
:10073000683E73408105910588F321E0C21AD10813
:10074000E108F10888EE880E83E0981EA11CB11C18
:10075000E5CFFF90EF90DF90CF90BF90AF909F904C
:100760008F9008958F929F92AF92BF92EF92FF92D7
:100770000F931F93CF93DF93CDB7DEB7C054D14013
:100780000FB6F894DEBF0FBECDBF2FB7F89480919F
:10079000310390913203A0913303B09134032FBF02
:1007A0004091DB035091DC036091DD037091DE0327
:1007B0008C019D01041B150B260B370BB901A801F9
:1007C000403D574061057105A0F48091E303C05C92
:1007D000DE4F0FB6F894DEBF0FBECDBFDF91CF91D5
:1007E0001F910F91FF90EF90BF90AF909F908F90CF
:1007F00008958093DB039093DC03A093DD03B09313
:10080000DE031092D6031092D5031092D4031092F7
:10081000D3031092D20362E08091D703F4DE61E04B
:1008200070E080E090E06DDF61E08091D703EBDE67
:100830002091D70330E0F901E85EFE4F8491F90181
:10084000E254FE4F0491F901E858FE4F1491112330
:1008500089F0811171DEE12FF0E0EE0FFF1FE25011
:10086000FF4FA591B4918FB7F894EC9100950E23AA
:100870000C938FBF8091D8038551823010F58BE2A5
:1008800091E10197F1F762E08091D703BCDE80919E
:10089000E40390E08230910538F0880F991F880FAB
:1008A000991F05970197F1F7F89480E0DDDC6F3F21
:1008B0007F4F8F4F9F4F59F41092E303789480E05D
:1008C00086CF64E170E080E090E01BDFDCCF81E068
:1008D000CBDC6F3F7F4F8F4F9F4F71F3CE0101965F
:1008E0007C015E019FEBA91A9EEFB90A870180E0A7
:1008F000BBDCF801608371838283938381E0B4DC85
:10090000F8016483758386839783085F1F4FA01661
:10091000B10669F7789430E020E0F701808091809B
:10092000A280B3804481558166817781FFEF8F1665
:100930009F06AF06BF0631F04F3F0FEF500760072D
:10094000700719F41092E303BACFF90183E0F5952B
:10095000E7958A95E1F7EE52FC4F8081880F841667
:100960009506A606B70618F180832F5F3F4F18E063
:10097000E10EF11C2832310581F64091D603209119
:10098000D2038091D303280F3327331F8091D403E0
:10099000280F311D8091D503820F932F911D992728
:1009A0004817190679F681E08093E30310CF816040
:1009B000DBCFFC0101900020E9F73197AF01481B24
:1009C000590BBC0185E393E087CC8F929F92AF9245
:1009D000BF920F931F93CF93DF93CDB7DEB7A1974D
:1009E0000FB6F894DEBF0FBECDBF19A2423008F497
:1009F0004AE08E010F5D1F4F842E912CB12CA12C4B
:100A0000A50194010E94FE0DE62FB901CA01EA304A
:100A1000ECF4E05DD801EE938D01232B242B252BE4
:100A200079F790E080E0109711F0CD01C2DFA19638
:100A30000FB6F894DEBF0FBECDBFDF91CF911F91EF
:100A40000F91BF90AF909F908F900895E95CE2CF97
:100A5000CF92DF92EF92FF92CF93DF936B017C01F5
:100A60006DE285E393E0CDDCEC0166277727CB01CF
:100A70006C197D098E099F094AE0A7DF8C0F9D1F25
:100A8000DF91CF91FF90EF90DF90CF900895CF93BB
:100A9000DF938FDFEC0184E692E08BDF8C0F9D1FEC
:100AA000DF91CF91089585CF4F925F926F927F92A1
:100AB0008F929F92AF92BF92CF92DF92EF92FF926E
:100AC0000F931F93CF936B017C01742EAC019B019C
:100AD0000E94E50D882391F087E692E0CF911F9167
:100AE0000F91FF90EF90DF90CF90BF90AF909F90CD
:100AF0008F907F906F905F904F905BCF4601570132
:100B0000E894B7F82FEF3FEF4FE75FE7C501B40177
:100B10000E94E50D81110CC02FEF3FEF4FE75FE71B
:100B2000C501B4015FD618161CF48BE692E0D6CF4F
:100B30002FEF3FEF4FE75FE4C701B6019DD71816CF
:100B40001CF48FE692E0CACF2FEF3FEF4FE75FEC48
:100B5000C701B60147D687FDF4CF20E030E0A901F8
:100B6000C701B6013FD610E000E087FF09C06DE283
:100B700085E393E046DC8C01F7FAF094F7F8F09403
:100B8000C0E060E070E080E09FE37C1639F020E098
:100B900030E040E251E42AD6CF5FF7CFA7019601BB
:100BA000BDD52B013C018AD64B015C014AE00DDF2B
:100BB0007C01E00EF11ECC2381F1C501B401AAD65F
:100BC0009B01AC01C301B201A8D54B015C016EE2EF
:100BD00085E393E016DCE80EF91EC150F0F020E04A
:100BE00030E040E251E4C501B4014AD72B013C0199
:100BF00065D64B01B12CA12C4AE0C501B401E5DE5C
:100C0000E80EF91EC501B40185D69B01AC01C301F4
:100C1000B20183D54B015C01E0CFC701CF911F9199
:100C20000F91FF90EF90DF90CF90BF90AF909F908B
:100C30008F907F906F905F904F900895CF93DF9348
:100C400042E032DFEC0184E692E0B3DE8C0F9D1FC0
:100C5000DF91CF9108951F920F920FB60F9211243A
:100C60000BB60F922F933F934F935F936F937F93A6
:100C70008F939F93AF93BF93EF93FF9385E393E09D
:100C80009EDBFF91EF91BF91AF919F918F917F91EB
:100C90006F915F914F913F912F910F900BBE0F90ED
:100CA0000FBE0F901F9018951F920F920FB60F92C4
:100CB00011240BB60F922F938F939F93EF93FF9373
:100CC000E0914503F09146038081E0914B03F09160
:100CD0004C0382FD1DC0908180914E038F5F8F7306
:100CE00020914F03821741F0E0914E03F0E0EB5C5E
:100CF000FC4F958F80934E03FF91EF919F918F91C1
:100D00002F910F900BBE0F900FBE0F901F90189554
:100D10008081F2CF1F920F920FB60F9211242F9362
:100D20003F938F939F93AF93BF93809131039091A3
:100D30003203A0913303B091340330912C0323E0AC
:100D4000230F2D3758F50196A11DB11D20932C03BB
:100D50008093310390933203A0933303B093340311
:100D600080912D0390912E03A0912F03B091300319
:100D70000196A11DB11D80932D0390932E03A09386
:100D80002F03B0933003BF91AF919F918F913F910B
:100D90002F910F900FBE0F901F90189526E8230FEC
:100DA0000296A11DB11DD2CFCF92DF92EF92FF929A
:100DB0000F931F93CF93DF93E5E3F3E01382128247
:100DC00088EE93E0A0E0B0E084839583A683B783A8
:100DD00086E592E09183808385EC90E09587848717
:100DE00084EC90E09787868780EC90E0918B808BF5
:100DF00081EC90E0938B828B82EC90E0958B848BDE
:100E000086EC90E0978B868B118E128E138E148E4B
:100E1000E5E7F4E0108211821282138217861686AB
:100E2000108A118A128A138A86E390E0958384835C
:100E300040E058EE6DE779E4468357836087718719
:100E400080E099E4A9E5B8E482879387A487B58711
:100E5000E1E6F4E010821182128213821786168670
:100E6000108A118A128A138A27E330E0358324839B
:100E7000468357836087718782879387A487B58766
:100E8000EDE4F4E010821182128213821786168636
:100E9000108A118A128A138A28E330E0358324836A
:100EA000468357836087718782879387A487B58736
:100EB000EDE3F4E0108211821282138222E430E02A
:100EC0003783268384EC99E0918780871386128686
:100ED00014861586168617864AE050E055834483AB
:100EE000EDE2F4E0108211821282138237832683AE
:100EF0009187808713861286148615861686178634
:100F00004BE050E055834483EDE1F4E01082118220
:100F100012821382378326839187808713861286F5
:100F200014861586168617868CE090E09583848358
:100F3000E3E0F4E0C12CD12C8AE7E82E84E4F82E1B
:100F4000C286D386E486F58602E311E120E83BE31E
:100F500006871787208B318B4FE755E06BE175EBE8
:100F6000428B538B648B758B85E698EFA7E3BEEAC3
:100F7000868B978BA08FB18FC9E3D0E0D183C083DC
:100F8000E9EEF3E0C286D386E486F5860687178706
:100F9000208B318B428B538B648B758B868B978B1D
:100FA000A08FB18F8AE390E091838083C5EED3E078
:100FB00084E390E0998388838FE090E09B838A8329
:100FC00060E084E320DB60E08A811DDBA2EDB3E01A
:100FD00080E315968C9315978BE016968C93169755
:100FE000EEEEF1E0E4911796EC931797E8EAF1E062
:100FF000E4911896EC93189740E85EE360E070E0A7
:101000001D964D935D936D937C935097DF91CF9197
:101010001F910F91FF90EF90DF90CF900895CF93A5
:10102000DF93CDB7DEB762970FB6F894DEBF0FBE81
:10103000CDBF789484B5826084BD84B5816084BD61
:1010400085B5826085BD85B5816085BD80916E0066
:10105000816080936E001092810080918100826097
:1010600080938100809181008160809381008091D4
:1010700080008160809380008091B10084608093C3
:10108000B1008091B00081608093B00080919100A8
:1010900082608093910080919100816080939100A3
:1010A000809190008160809390008091A100826087
:1010B0008093A1008091A10081608093A100809124
:1010C000A00081608093A0008091210182608093C4
:1010D0002101809121018160809321018091200173
:1010E00081608093200180917A00846080937A00EF
:1010F00080917A00826080937A0080917A0081608A
:1011000080937A0080917A00806880937A001092B0
:10111000C100E0914503F091460382E08083E091B5
:101120004103F09142031082E0914303F0914403A4
:1011300080E1808310924D03E0914903F0914A03CE
:1011400086E08083E0914703F091480380818061CD
:101150008083E0914703F091480380818860808319
:10116000E0914703F0914803808180688083E0919B
:101170004703F091480380818F7D808362E08091F6
:10118000D70341DA2FB7F89480913103909132035D
:10119000A0913303B09134032FBF805D9740A10924
:1011A000B1098093DB039093DC03A093DD03B0933C
:1011B000DE0387E38093E40380E092E074DCD2DA1C
:1011C000882349F08091D8038B3028F08D3060F06F
:1011D00085518230B8F180E090E0A0ECBFE78D83CC
:1011E0009E83AF83B8871CC06091D30370E090E00A
:1011F00080E092D32DEC3CEC4CEC5DE341D46B01F0
:101200007C016091D20370E090E080E085D39B0187
:10121000AC01C701B60182D26D837E838F8398872C
:10122000A1DA882341F08091D8038C3009F44CC2B4
:10123000C8F48B3091F1412C512C90EC692E9FE732
:10124000792E52C06091D2037091D303762767271D
:10125000762790E080E05ED32DEC3CEC4CEC5DE337
:101260000FD4DACF8551823030F7F090D4036F2D50
:1012700070E0762F662766277F778091D503682BED
:1012800090E080E047D32DEC3CEC4CEC5DE3F8D3F0
:101290002B013C01F7FE28C035C26091D40370E0F9
:1012A00090E080E037D36B017C019091D503998366
:1012B00097FF09C0A701960160E070E080E89FEB0E
:1012C0002CD26B017C01A981AF706A2F70E090E095
:1012D00080E022D32DEC3CEC4CEC5DE3D1D3A701B4
:1012E00096011CD22B013C012091E5033091E603CD
:1012F0003327F901E85EFE4F8491F901E254FE4F75
:10130000F490F901E858FE4FE490EE2009F4FFC193
:10131000811112D9EE2DF0E0EE0FFF1FE25AFE4FC1
:10132000A591B491EC91FE2291E080E009F490E067
:10133000998B8A8B80910304A2D9BC01990F880BE9
:10134000990BEAD29B01AC0120930504309306046B
:10135000409307045093080460E070EC8FE794E436
:1013600045D220E030E040E85FE3D7D19B01AC01FB
:1013700060E070E48CE995E439D220E030E040EEA2
:1013800051E4CCD16B017C01C0920904D0920A04D3
:10139000E0920B04F0920C0480900D0490900E04E7
:1013A000A0900F04B0901004209111043091120409
:1013B0004091130450911404C501B40161D36983B1
:1013C0007A838B839C838091150490911604A0915D
:1013D0001704B091180489879A87AB87BC8720E0EF
:1013E00030E040E850ECC501B4014AD329853A8584
:1013F0004B855C8545D36D877E878F87988BA7014A
:101400009601C501B40189D19B01AC016D857E8532
:101410008F85988935D36B017C0129813A814B8175
:101420005C81CA01B9012CD39B01AC01C701B60193
:1014300075D18DD329813A814B815C816ED16B014D
:101440007C01A5019401C501B40168D129853A85C3
:101450004B855C8515D39B01AC01C701B601C6D194
:101460006B017C0183E792E01EDB609105047091C3
:1014700006048091070490910804E0DB83E892E081
:1014800012DB6091090470910A0480910B04909121
:101490000C04D4DB8AE992E006DBC701B601CEDB9F
:1014A00081EA92E000DB2AE037ED43EA5BE3C70123
:1014B000B601E6D22AE939E949E95EE32FD1BEDB7C
:1014C00085E692E0F0DA80913104D9D8909338041F
:1014D00080933704BC01990F880B990B1DD220E033
:1014E00030E040E85AE3CCD220E030E44CE955E467
:1014F000C7D26B017C01C0923904D0923A04E092C9
:101500003B04F0923C046091350470913604072E40
:10151000000C880B990B00D29B01AC01C701B601EE
:10152000FCD06B017C016091330470913404072E70
:10153000000C880B990BF0D19B01AC01C701B601DF
:1015400055D160932D0470932E0480932F049093B3
:10155000300483EB92E09BDA8DEC92E0A4DA6091A8
:10156000370470913804072E000C880B990B97FFF5
:10157000D1C06EDA84E692E01CDA81EE92E093DA72
:101580006091390470913A0480913B0490913C043D
:1015900055DB81EF92E087DA60912D0470912E0483
:1015A00080912F049091300442E07EDA85E692E04B
:1015B0006EDA80902D0490902E04A0902F04B090AD
:1015C0003004809165045BD89093700480936F041D
:1015D000BC01990F880B990B9FD124EA37E140EAAF
:1015E0005BE34ED269837A838B839C83C0906B04C8
:1015F000D0906C04E0906D04F0906E04209167042C
:10160000309168044091690450916A04C701B601A1
:1016100085D09B01AC01C701B601E8D09B01AC01AC
:1016200069817A818B819C81E1D06B017C018DEF96
:1016300092E02DDA87E193E036DA42E0C701B601A5
:1016400033DA81E293E023DA84E293E02CDA89E270
:1016500093E029DA42E06D817E818F81988524DADA
:1016600089E293E020DA42E0C301B2011DDA89E2A7
:1016700093E019DAA989BA89BD01BB0F880B990BD0
:101680004AE0A3D989E293E00EDA42E060E070E03C
:10169000CB010ADA89E293E006DA42E0C501B4013F
:1016A00003DA89E293E0FFD942E060E070E0CB0129
:1016B000FBD985E692E0F7D960E177E280E090E03F
:1016C00020D80E946C027BCDB091D403B9836B2FDC
:1016D00070E090E080E01ED16B017C016091D50349
:1016E0006F7070E090E080E017D12DEC3CEC4CEC9A
:1016F0005DE3C6D1A701960111D02B013C012981E0
:1017000027FFF2CD77FA709477F87094EDCD1A8AAE
:10171000198A10CE4AE059D92DCF5058BB27AA2795
:101720000ED070C161D130F066D120F031F49F3F0E
:1017300011F41EF456C10EF4E095E7FB4CC1E92FFD
:1017400072D180F3BA17620773078407950718F000
:1017500071F49EF58AC10EF4E0950B2EBA2FA02DE0
:101760000B01B90190010C01CA01A0011124FF274E
:10177000591B99F0593F50F4503E68F11A16F04049
:10178000A22F232F342F4427585FF3CF4695379548
:101790002795A795F0405395C9F77EF41F16BA0B0D
:1017A000620B730B840BBAF09150A1F0FF0FBB1FBB
:1017B000661F771F881FC2F70EC0BA0F621F731F04
:1017C000841F48F4879577956795B795F7959E3F61
:1017D00008F0B3CF9395880F08F09927EE0F9795EF
:1017E00087950895D4D008F481E008950CD00AC1FB
:1017F00002D140F0F9D030F021F45F3F19F0EBC096
:10180000511134C1EEC00FD198F39923C9F3552378
:10181000B1F3951B550BBB27AA27621773078407E3
:1018200038F09F5F5F4F220F331F441FAA1FA9F399
:1018300033D00E2E3AF0E0E830D091505040E6958B
:10184000001CCAF729D0FE2F27D0660F771F881FEC
:10185000BB1F261737074807AB07B0E809F0BB0BDB
:10186000802DBF01FF2793585F4F2AF09E3F5105FF
:1018700068F0B1C0FBC05F3FECF3983EDCF38695A7
:1018800077956795B795F7959F5FC9F7880F911D75
:101890009695879597F90895E1E0660F771F881F61
:1018A000BB1F621773078407BA0720F0621B730B14
:1018B000840BBA0BEE1F88F7E0950895BCD088F032
:1018C0009F5790F0B92F9927B751A0F0D1F0660F2C
:1018D000771F881F991F1AF0BA95C9F712C0B13047
:1018E00081F0C3D0B1E00895C0C0672F782F88275A
:1018F000B85F39F0B93FCCF3869577956795B39586
:10190000D9F73EF490958095709561957F4F8F4FF4
:101910009F4F0895E89409C097FB3EF490958095F9
:10192000709561957F4F8F4F9F4F9923A9F0F92FA5
:1019300096E9BB279395F695879577956795B79523
:10194000F111F8CFFAF4BB0F11F460FF1BC06F5F09
:101950007F4F8F4F9F4F16C0882311F096E911C01B
:10196000772321F09EE8872F762F05C0662371F03C
:1019700096E8862F70E060E02AF09A95660F771F50
:10198000881FDAF7880F9695879597F90895990F2C
:101990000008550FAA0BE0E8FEEF16161706E80739
:1019A000F907C0F012161306E407F50798F0621B5A
:1019B000730B840B950B39F40A2661F0232B242B2F
:1019C000252B21F408950A2609F4A140A6958FEF4E
:1019D000811D811D089597F99F6780E870E060E0A0
:1019E00008959FEF80EC089500240A9416161706B8
:1019F00018060906089500240A9412161306140600
:101A000005060895092E0394000C11F4882352F062
:101A1000BB0F40F4BF2B11F460FF04C06F5F7F4F1A
:101A20008F4F9F4F089557FD9058440F551F59F001
:101A30005F3F71F04795880F97FB991F61F09F3FBB
:101A400079F087950895121613061406551FF2CFE4
:101A50004695F1DF08C0161617061806991FF1CF34
:101A600086957105610508940895E894BB2766275B
:101A70007727CB0197F908958ADF08F48FEF08954F
:101A80000BD0C0CFB1DF28F0B6DF18F0952309F0F6
:101A9000A2CFA7CF1124EACFC6DFA0F3959FD1F341
:101AA000950F50E0551F629FF001729FBB27F00D0C
:101AB000B11D639FAA27F00DB11DAA1F649F662761
:101AC000B00DA11D661F829F2227B00DA11D621FB0
:101AD000739FB00DA11D621F839FA00D611D221F6A
:101AE000749F3327A00D611D231F849F600D211D4E
:101AF000822F762F6A2F11249F5750408AF0E1F0F1
:101B000088234AF0EE0FFF1FBB1F661F771F881F39
:101B100091505040A9F79E3F510570F05CCFA6CF81
:101B20005F3FECF3983EDCF3869577956795B79524
:101B3000F795E7959F5FC1F7FE2B880F911D96954E
:101B4000879597F9089511F40EF44BCF42C073DFD7
:101B5000D0F39923D9F3CEF39F57550B87FF47D086
:101B60000024A0E640EA900180585695979528F405
:101B7000805C660F771F881F20F0261737074807FD
:101B800030F4621B730B840B202931294A2BA69554
:101B900017940794202531254A2758F7660F771F99
:101BA000881F20F026173707480730F4620B730BA5
:101BB000840B200D311D411DA09581F7B901842FA3
:101BC0009158880F969587950895E1DE880B990BBB
:101BD00008959F3F31F0915020F487957795679550
:101BE000B795880F911D9695879597F9089591500F
:101BF0005040660F771F881FD2F70895A1E21A2E72
:101C0000AA1BBB1BFD010DC0AA1FBB1FEE1FFF1FA0
:101C1000A217B307E407F50720F0A21BB30BE40BF0
:101C2000F50B661F771F881F991F1A9469F7609537
:101C30007095809590959B01AC01BD01CF010895F1
:101C4000EE0FFF1F881F8BBF0790F691E02D1994B0
:041C5000F894FFCF36
:101C54006F7574646F6F7248756D69646974792CFB
:101C64006F7574646F6F7274656D7065726174758D
:101C740072652C7261696E2C626174746572797418
:101C8400656D702C626174746572796375727265C6
:101C94006E742C62617474657279766F6C746167AA
:101CA40065000000000001026C0199014D02CA01A7
:101CB400A801BC010D0A006E616E00696E66006FBA
:101CC400766600416E616C6F672072656164696E4F
:101CD400672000546865726D6973746F7220726551
:101CE40073697374616E6365200054656D703A2086
:101CF4000054656D70206F66667365743A202B2FEF
:101D04002D20002D2D2D2D2D43757272656E74209E
:101D140053656E736F72202D2D2D2D2D005261771A
:101D24002053656E736F722056616C7565203D207B
:101D34000020566F6C7461676520286D56293D201C
:101D4400002043757272656E74203D20002D2D2D88
:101D54002D2D566F6C746167652053656E736F72B9
:101D6400202D2D2D2D2D00566F6C746167653A2042
:0C1D740000205600526F6F66002C00002B
:00000001FF
