:10000000D2C0000000C10000FEC00000FCC0000023
:10001000FAC00000F8C00000F6C00000F4C0000004
:10002000F2C00000F0C00000EEC00000ECC0000014
:10003000EAC00000E8C00000E6C00000E4C0000024
:10004000E2C00000E0C00000DEC00000DCC0000034
:10005000DAC00000D8C00000D6C00000C6C300004F
:10006000D2C000008CC3000061C30000CCC00000FF
:10007000CAC00000C8C00000C6C00000C4C0000064
:10008000C2C00000C0C00000BEC00000BCC0000074
:10009000BAC00000B8C00000B6C00000B4C0000084
:1000A000B2C00000B0C00000AEC00000ACC0000094
:1000B000AAC00000A8C00000A6C00000A4C00000A4
:1000C000A2C00000A0C000009EC000009CC00000B4
:1000D0009AC0000098C0000096C0000094C00000C4
:1000E00092C0000000002200250028002B002E00F6
:1000F0003100340002010000050108010B0100007D
:100100002100240027002A002D00300033000101C7
:100110000000040107010A01050505050705080897
:100120000808020202020A0A080804040404010181
:100130000101010101010303030303030303040796
:1001400007070C0C0C0C0C0C0C0C0202020206062D
:100150000606060606060B0B0B0B0B0B0B0B010220
:1001600010202008081020401020408002010201C9
:100170000804020101020408102040808040201081
:1001800008040201800402018040201008040201DA
:100190000804020101020408102040800102040842
:1001A000102040803F0411241FBECFEFD1E2DEBFFC
:1001B000CDBF00E00CBF12E0A0E0B2E0ECE0F3E164
:1001C00000E00BBF02C007900D92AE39B107D9F71E
:1001D00024E0AEE9B2E001C01D92A931B207E1F717
:1001E00010E0C3EDD0E000E006C021970109802FA8
:1001F000FE010E947C09C23DD10780E00807A9F7F3
:10020000A7D40C948409FCCEAF92BF92CF92DF9218
:10021000EF92FF920F931F93CF93DF936C017B01BB
:100220008B01040F151FEB015E01AE18BF08C0174C
:10023000D10759F06991D601ED91FC910190F081BF
:10024000E02DC6011995892B79F7C501DF91CF9172
:100250001F910F91FF90EF90DF90CF90BF90AF90E4
:100260000895FC01538D448D252F30E0842F90E0BC
:10027000821B930B541710F0CF96089501970895A1
:10028000FC01918D828D981761F0A28DAE0FBF2F6A
:10029000B11D5D968C91928D9F5F9F73928F90E0C0
:1002A00008958FEF9FEF0895FC01918D828D98172F
:1002B00031F0828DE80FF11D858D90E008958FEF6C
:1002C0009FEF0895FC01918D228D892F90E0805C35
:1002D0009F4F821B91098F739927089587EA92E0B7
:1002E000F1DF21E0892B09F420E0822F0895FC0141
:1002F000A48DA80FB92FB11DA35ABF4F2C91848D87
:1003000090E001968F739927848FA689B7892C93E3
:10031000A089B1898C91837080648C93938D848D36
:10032000981306C00288F389E02D80818F7D808339
:100330000895EF92FF920F931F93CF93DF93EC01F9
:1003400081E0888F9B8D8C8D98131AC0E889F9897C
:10035000808185FF15C09FB7F894EE89FF8960837F
:10036000E889F98980818370806480839FBF81E000
:1003700090E0DF91CF911F910F91FF90EF90089542
:10038000F62E0B8D10E00F5F1F4F0F731127E02E1D
:100390008C8D8E110BC00FB607FCFACFE889F98956
:1003A000808185FFF5CFCE01A2DFF2CFEB8DEC0F80
:1003B000FD2FF11DE35AFF4FF0829FB7F8940B8F8A
:1003C000EA89FB8980818062D0CFCF93DF93EC01F3
:1003D000888D8823B1F0AA89BB89E889F9898C9135
:1003E00085FD03C0808186FD0CC00FB607FCF7CFEA
:1003F0008C9185FFF2CF808185FFEDCFCE0177DF35
:10040000EACFDF91CF91089580E090E0892B21F031
:1004100065DF81110E94000080E090E0892B49F0A7
:1004200080E090E0892B29F00E94000081110E9459
:10043000000080E090E0892B49F080E090E0892B7B
:1004400029F00E94000081110E94000080E090E0ED
:10045000892B49F080E090E0892B29F00E94000070
:1004600081110C9400000895CF93DF9390E0FC017C
:10047000E25AFE4F2491885E9E4FFC0184918823AE
:10048000C9F090E0880F991FFC01E250FF4FA59141
:10049000B491FC01EC51FF4FC591D49161110DC095
:1004A0009FB7F8948C91209582238C938881282380
:1004B00028839FBFDF91CF910895623051F49FB799
:1004C000F8943C91822F809583238C93E8812E2B86
:1004D000EFCF8FB7F894EC912E2B2C938FBFEACFF0
:1004E0003FB7F89480919F029091A002A091A10241
:1004F000B091A20226B5A89B05C02F3F19F0019626
:10050000A11DB11D3FBFBA2FA92F982F8827BC016D
:10051000CD01620F711D811D911D42E0660F771F95
:10052000881F991F4A95D1F70895FC01019000207A
:10053000E9F73197AF01481B590BBC0187EA92E0FC
:1005400063CE8F929F92AF92BF920F931F93CF93E0
:10055000DF93CDB7DEB7A1970FB6F894DEBF0FBE1D
:10056000CDBF19A2423008F44AE08E010F5D1F4F43
:10057000842E912CB12CA12CA50194019BD6E62FA1
:10058000B901CA01EA30ECF4E05DD801EE938D01C7
:10059000232B242B252B81F790E080E0109711F07E
:1005A000CD01C3DFA1960FB6F894DEBF0FBECDBF5D
:1005B000DF91CF911F910F91BF90AF909F908F903F
:1005C0000895E95CE2CF4F925F926F927F928F9293
:1005D0009F92AF92BF92CF92DF92EF92FF926B0108
:1005E0007C01AC019B0162D68823B1F084E692E0E5
:1005F0009CDF7C0180E792E098DF8E0D9F1DFF90CD
:10060000EF90DF90CF90BF90AF909F908F907F90B2
:100610006F905F904F90089546015701E894B7F8A6
:100620002FEF3FEF4FE75FE7C501B4013FD68111E0
:100630000CC02FEF3FEF4FE75FE7C501B40185D452
:1006400018161CF488E692E0D3CF2FEF3FEF4FE768
:100650005FE4C701B601C3D518161CF48CE692E01E
:10066000C7CF2FEF3FEF4FE75FECC701B6016DD467
:1006700087FDF4CF20E030E0A901C701B60165D4C1
:10068000B12CA12C87FF09C06DE287EA92E051DE10
:100690005C01F7FAF094F7F8F0942AE037ED43EABA
:1006A0005BE3C701B601EDD32B013C01BAD46B016A
:1006B0007C01E3D49B01AC01C301B201E1D32B0166
:1006C0003C014AE0C701B6013CDF7C01EA0CFB1C9F
:1006D0006EE287EA92E02DDEE80EF91E20E030E0BF
:1006E00040E251E4C301B2017ED52B013C0199D413
:1006F0004B01B12CA12C4AE0C501B40122DFE80E68
:10070000F91EC501B401B9D49B01AC01C301B2010A
:10071000B7D320E030E040E251E465D582D490E0E8
:1007200080E04AE00EDFE80EF91E64CF1F920F92C0
:100730000FB60F9211240BB60F922F933F934F9346
:100740005F936F937F938F939F93AF93BF93EF9339
:10075000FF9387EA92E0CBDDFF91EF91BF91AF91DC
:100760009F918F917F916F915F914F913F912F91C9
:100770000F900BBE0F900FBE0F901F9018951F92F9
:100780000F920FB60F9211240BB60F922F938F93E7
:100790009F93EF93FF93E091B702F091B8028081AD
:1007A000E091BD02F091BE0282FD1DC0908180915A
:1007B000C0028F5F8F732091C102821741F0E091D8
:1007C000C002F0E0E955FD4F958F8093C002FF9184
:1007D000EF919F918F912F910F900BBE0F900FBEB5
:1007E0000F901F9018958081F2CF1F920F920FB635
:1007F0000F9211242F933F938F939F93AF93BF93A7
:100800008091A3029091A402A091A502B091A602AA
:1008100030919E0223E0230F2D3758F50196A11D3C
:10082000B11D20939E028093A3029093A402A093F3
:10083000A502B093A60280919F029091A002A09180
:10084000A102B091A2020196A11DB11D80939F0249
:100850009093A002A093A102B093A202BF91AF9186
:100860009F918F913F912F910F900FBE0F901F90EE
:10087000189526E8230F0296A11DB11DD2CFCF9265
:10088000DF92EF92FF920F931F93CF93DF93E7EAEC
:10089000F2E01382128288EE93E0A0E0B0E084835D
:1008A0009583A683B78386E592E09183808385EC68
:1008B00090E09587848784EC90E09787868780EC2A
:1008C00090E0918B808B81EC90E0938B828B82EC1B
:1008D00090E0958B848B86EC90E0978B868B118EC5
:1008E000128E138E148EE5E0F4E0108211821282D3
:1008F000138217861686108A118A128A138A86E353
:1009000090E09583848340E058EE6DE779E4468378
:1009100057836087718780E099E4A9E5B8E482870E
:100920009387A487B587E1EFF3E0108211821282EA
:10093000138217861686108A118A128A138A27E371
:1009400030E03583248346835783608771878287AD
:100950009387A487B587EDEDF3E0108211821282B0
:10096000138217861686108A118A128A138A28E340
:1009700030E035832483468357836087718782877D
:100980009387A487B587EDECF3E010821182128281
:10099000138222E430E03783268384EC99E0918748
:1009A00080871386128614861586168617864AE077
:1009B00050E055834483EDEBF3E010821182128204
:1009C0001382378326839187808713861286148645
:1009D0001586168617864BE050E055834483EDEA72
:1009E000F3E010821182128213823783268391876B
:1009F00080871386128614861586168617868CE0E5
:100A000090E095838483E3E9F3E0C12CD12C8AE75D
:100A1000E82E84E4F82EC286D386E486F58602E3C7
:100A200011E120E83BE306871787208B318B4FE7E6
:100A300055E06BE175EB428B538B648B758B85E6D0
:100A400098EFA7E3BEEA868B978BA08FB18FC9E39F
:100A5000D0E0D183C083E9E7F3E0C286D386E486A1
:100A6000F58606871787208B318B428B538B648BDF
:100A7000758B868B978BA08FB18F8AE390E09183E3
:100A80008083C5E7D3E084E390E0998388838FE097
:100A900090E09B838A8360E084E3E6DC60E08A8107
:100AA000E3DCA2E6B3E080E315968C9315978BE028
:100AB00016968C931697EEE8F1E0E4911796EC9376
:100AC0001797E8E4F1E0E4911896EC93189740E862
:100AD0005EE360E070E01D964D935D936D937C93B3
:100AE0005097E4E4F3E01282138214821582168296
:100AF0001782108611868DEC9CECACECBEE38287ED
:100B00009387A487B58716861786108A118A80E096
:100B100090E0A0E0B0E4828B938BA48BB58B80E057
:100B200090E0A0E0B2E4868B978BA08FB18F128EFD
:100B3000138E148E158E8BE390E091838083DF916A
:100B4000CF911F910F91FF90EF90DF90CF9008957C
:100B5000789484B5826084BD84B5816084BD85B598
:100B6000826085BD85B5816085BD80916E008160A4
:100B700080936E001092810080918100826080934A
:100B8000810080918100816080938100809180004C
:100B90008160809380008091B10084608093B10077
:100BA0008091B00081608093B0008091910082605C
:100BB0008093910080919100816080939100809159
:100BC00090008160809390008091A100826080936A
:100BD000A1008091A10081608093A1008091A0007C
:100BE00081608093A0008091210182608093210127
:100BF0008091210181608093210180912001816099
:100C00008093200180917A00846080937A008091A3
:100C10007A00826080937A0080917A00816080936C
:100C20007A0080917A00806880937A001092C100E7
:100C3000E091B702F091B80282E08083E091B302C4
:100C4000F091B4021082E091B502F091B60280E119
:100C500080831092BF02E091BB02F091BC0286E05B
:100C60008083E091B902F091BA0280818061808333
:100C7000E091B902F091BA02808188608083E091AE
:100C8000B902F091BA02808180688083E091B90254
:100C9000F091BA0280818F7D808362E0809167034A
:100CA000E3DB2FB7F8948091A3029091A402A09166
:100CB000A502B091A6022FBF805D9740A109B1099E
:100CC00080936B0390936C03A0936D03B0936E03BA
:100CD00087E38093740380E092E027DC80914403F3
:100CE000863308F0865320917B00982F9870277FD9
:100CF000922B90937B008770806480937C0080911E
:100D00007A00806480937A0080917A0086FDFCCF1F
:100D10008091780060917900762F682F072E000C63
:100D2000880B990BACD16093460370934703809373
:100D300048039093490383E792E0F7DB6091460311
:100D40007091470380914803909149033CDC2AE06D
:100D500038E240EA5BE3609146037091470380917B
:100D60004803909149033FD260934A0370934B0329
:100D700080934C0390934D0381E892E0D6DB609121
:100D80004A0370914B0380914C0390914D031BDCFF
:100D900080904A0390904B03A0904C03B0904D0379
:100DA000C0904E03D0904F03E0905003F090510359
:100DB000A7019601C501B401C8D018160CF43BC0B8
:100DC00010925E0310925F03109260031092610311
:100DD000C0905E03D0905F03E0906003F0906103E9
:100DE00081E992E0A2DBC701B601EDDB79DB4B01C3
:100DF0005C0188EEC82E83E0D82EE12CF12C70DB4C
:100E0000681979098A099B09683E73408105910533
:100E1000B0F321E0C21AD108E108F10888EE880E8B
:100E200083E0981EA11CB11CC114D104E104F1049B
:100E300031F7EADA53CFA7019601C501B40120D0FA
:100E40004B015C01A7019601609156037091570315
:100E5000809158039091590313D09B01AC01C501B7
:100E6000B40177D020E030E040E052E4BCD16093A0
:100E70005E0370935F038093600390936103A8CF38
:100E80005058BB27AA270ED070C161D130F066D16F
:100E900020F031F49F3F11F41EF456C10EF4E0959A
:100EA000E7FB4CC1E92F72D180F3BA1762077307D1
:100EB0008407950718F071F49EF58AC10EF4E09549
:100EC0000B2EBA2FA02D0B01B90190010C01CA0104
:100ED000A0011124FF27591B99F0593F50F4503EAF
:100EE00068F11A16F040A22F232F342F4427585FA1
:100EF000F3CF469537952795A795F0405395C9F7B9
:100F00007EF41F16BA0B620B730B840BBAF0915070
:100F1000A1F0FF0FBB1F661F771F881FC2F70EC00F
:100F2000BA0F621F731F841F48F4879577956795E2
:100F3000B795F7959E3F08F0B3CF9395880F08F0CB
:100F40009927EE0F979587950895D4D008F481E0FE
:100F500008950CD00AC102D140F0F9D030F021F44C
:100F60005F3F19F0EBC0511134C1EEC00FD198F3BF
:100F70009923C9F35523B1F3951B550BBB27AA271A
:100F800062177307840738F09F5F5F4F220F331F8C
:100F9000441FAA1FA9F333D00E2E3AF0E0E830D058
:100FA00091505040E695001CCAF729D0FE2F27D05B
:100FB000660F771F881FBB1F261737074807AB0729
:100FC000B0E809F0BB0B802DBF01FF2793585F4F9E
:100FD0002AF09E3F510568F0B1C0FBC05F3FECF3C3
:100FE000983EDCF3869577956795B795F7959F5F63
:100FF000C9F7880F911D9695879597F90895E1E0B7
:10100000660F771F881FBB1F621773078407BA0715
:1010100020F0621B730B840BBA0BEE1F88F7E09570
:101020000895BCD088F09F5790F0B92F9927B751F9
:10103000A0F0D1F0660F771F881F991F1AF0BA959C
:10104000C9F712C0B13081F0C3D0B1E00895C0C07B
:10105000672F782F8827B85F39F0B93FCCF3869592
:1010600077956795B395D9F73EF4909580957095EF
:1010700061957F4F8F4F9F4F0895E89409C097FB6C
:101080003EF490958095709561957F4F8F4F9F4F5F
:101090009923A9F0F92F96E9BB279395F6958795A3
:1010A00077956795B795F111F8CFFAF4BB0F11F466
:1010B00060FF1BC06F5F7F4F8F4F9F4F16C088230D
:1010C00011F096E911C0772321F09EE8872F762F43
:1010D00005C0662371F096E8862F70E060E02AF084
:1010E0009A95660F771F881FDAF7880F9695879570
:1010F00097F90895990F0008550FAA0BE0E8FEEF45
:1011000016161706E807F907C0F012161306E407CB
:10111000F50798F0621B730B840B950B39F40A26C4
:1011200061F0232B242B252B21F408950A2609F4A2
:10113000A140A6958FEF811D811D089597F99F67A6
:1011400080E870E060E008959FEF80EC089500244F
:101150000A941616170618060906089500240A941C
:1011600012161306140605060895092E0394000CA2
:1011700011F4882352F0BB0F40F4BF2B11F460FF31
:1011800004C06F5F7F4F8F4F9F4F089557FD90585A
:10119000440F551F59F05F3F71F04795880F97FB3B
:1011A000991F61F09F3F79F08795089512161306F5
:1011B0001406551FF2CF4695F1DF08C01616170624
:1011C0001806991FF1CF8695710561050894089559
:1011D000E894BB2766277727CB0197F908958ADF24
:1011E00008F48FEF08950BD0C0CFB1DF28F0B6DF41
:1011F00018F0952309F0A2CFA7CF1124EACFC6DFBC
:10120000A0F3959FD1F3950F50E0551F629FF00119
:10121000729FBB27F00DB11D639FAA27F00DB11D72
:10122000AA1F649F6627B00DA11D661F829F2227FB
:10123000B00DA11D621F739FB00DA11D621F839F82
:10124000A00D611D221F749F3327A00D611D231F58
:10125000849F600D211D822F762F6A2F11249F57A6
:1012600050408AF0E1F088234AF0EE0FFF1FBB1FC9
:10127000661F771F881F91505040A9F79E3F510568
:1012800070F05CCFA6CF5F3FECF3983EDCF3869521
:1012900077956795B795F795E7959F5FC1F7FE2B13
:1012A000880F911D9695879597F9089523DF880BF0
:1012B000990B0895A1E21A2EAA1BBB1BFD010DC0BC
:1012C000AA1FBB1FEE1FFF1FA217B307E407F507F6
:1012D00020F0A21BB30BE40BF50B661F771F881FD2
:1012E000991F1A9469F760957095809590959B0168
:1012F000AC01BD01CF010895EE0FFF1F881F8BBF0A
:0C1300000790F691E02D1994F894FFCFAF
:10130C006F7574646F6F7248756D69646974792C4C
:10131C006F7574646F6F7274656D706572617475DE
:10132C0072652C7261696E2C626174746572797469
:10133C00656D702C62617474657279637572726517
:10134C006E742C62617474657279766F6C746167FB
:10135C00650000000000990104013101E501620102
:10136C00400154016E616E00696E66006F76660016
:10137C000D0A00416E616C6F6720446174613A2004
:10138C000053656E736F72564F6C746167653A20CB
:0E139C000057696E642053706565643A200046
:00000001FF
