:1000000002C1000031C100002FC100002DC100005D
:100010002BC1000029C1000027C1000025C100003C
:1000200023C1000021C100001FC100001DC100004C
:100030001BC1000019C1000017C1000015C100005C
:1000400013C1000011C100000FC100000DC100006C
:100050000BC1000009C1000007C10000AFC70000CC
:1000600003C1000075C700004AC70000FDC00000C2
:10007000FBC00000F9C00000F7C00000F5C00000A0
:10008000F3C00000F1C00000EFC00000EDC00000B0
:10009000EBC00000E9C00000E7C00000E5C00000C0
:1000A000E3C00000E1C00000DFC00000DDC00000D0
:1000B000DBC00000D9C00000D7C00000D5C00000E0
:1000C000D3C00000D1C00000CFC00000CDC00000F0
:1000D000CBC00000C9C00000C7C00000C5C0000000
:1000E000C3C0000000002100240027002A002D00CA
:1000F0003000330001010000040107010A01000083
:100100002200250028002B002E00310034000201BF
:100110000000050108010B0100000A0B02090C0D8B
:100120000E080703040100000000000000000000AA
:1001300000000000000000000000000000000000BF
:10014000000000001211100000000000000000007C
:10015000000000000000000000000000000000009F
:1001600020002300260029002C002F00320000016F
:10017000000003010601090105050505070508083A
:100180000808020202020A0A080804040404010121
:100190000101010101010303030303030303040736
:1001A00007070C0C0C0C0C0C0C0C020202020606CD
:1001B0000606060606060B0B0B0B0B0B0B0B0102C0
:1001C0001020200808102040102040800201020169
:1001D0000804020101020408102040808040201021
:1001E000080402018004020180402010080402017A
:1001F00008040201010204081020408001020408E2
:1002000010204080280811241FBECFEFD1E2DEBFAE
:10021000CDBF00E00CBF12E0A0E0B2E0E6E6F6E2FF
:1002200000E00BBF02C007900D92A439B107D9F7C7
:1002300024E0A4E9B2E001C01D92AD31B207E1F7BC
:1002400011E0C3E0D1E000E006C021970109802F52
:10025000FE010E940F11C230D10780E00807A9F704
:100260000E94B1090C943113CBCECF92DF92EF9262
:10027000FF92CF93DF93B0915F03A0E08111AB2F8A
:100280008091600390E0880F991FAC01425A5E4F45
:10029000C0906503D0906603E0906703F090680318
:1002A00030E020E0FA01C591D491E881B90190E0F5
:1002B00080E0EB23EA130AC02F5F3F4F6C157D05EA
:1002C0008E059F0578F36FEF7FEFCB01DF91CF9124
:1002D000FF90EF90DF90CF900895AF92BF92CF92B2
:1002E000DF92EF92FF920F931F93CF93DF936C01F6
:1002F0007B018B01040F151FEB015E01AE18BF08D7
:10030000C017D10759F06991D601ED91FC91019088
:10031000F081E02DC6011995892B79F7C501DF9190
:10032000CF911F910F91FF90EF90DF90CF90BF90F2
:10033000AF900895FC0144815581608171818DE900
:1003400092E0CBCFFC01538D448D252F30E0842FDC
:1003500090E0821B930B541710F0CF9608950197ED
:100360000895FC01918D828D981761F0A28DAE0FDA
:10037000BF2FB11D5D968C91928D9F5F9F73928F61
:1003800090E008958FEF9FEF08952FB7F894809134
:10039000990290919A02A0919B02B0919C022FBF6A
:1003A0008093A5029093A602A093A702B093A802FF
:1003B0008DE992E0D6DF97FF26C02FB7F8948091A1
:1003C000990290919A02A0919B02B0919C022FBF3A
:1003D0004091A5025091A6026091A7027091A802D7
:1003E000841B950BA60BB70B4091A1025091A20262
:1003F0006091A3027091A40284179507A607B7071E
:10040000B8F28FEF9FEF0895FC01918D828D9817C0
:1004100031F0828DE80FF11D858D90E008958FEF0A
:100420009FEF0895FC01918D228D892F90E0805CD3
:100430009F4F821B91098F73992708958DE992E050
:10044000F1DF21E0892B09F420E0822F0895FC01DF
:10045000A48DA80FB92FB11DA35ABF4F2C91848D25
:1004600090E001968F739927848FA689B7892C9382
:10047000A089B1898C91837080648C93938D848DD5
:10048000981306C00288F389E02D80818F7D8083D8
:100490000895EF92FF920F931F93CF93DF93EC0198
:1004A00081E0888F9B8D8C8D98131AC0E889F9891B
:1004B000808185FF15C09FB7F894EE89FF8960831E
:1004C000E889F98980818370806480839FBF81E09F
:1004D00090E0DF91CF911F910F91FF90EF900895E1
:1004E000F62E0B8D10E00F5F1F4F0F731127E02EBC
:1004F0008C8D8E110BC00FB607FCFACFE889F989F5
:10050000808185FFF5CFCE01A2DFF2CFEB8DEC0F1E
:10051000FD2FF11DE35AFF4FF0829FB7F8940B8F28
:10052000EA89FB8980818062D0CFCF93DF93EC0191
:10053000888D8823B1F0AA89BB89E889F9898C91D3
:1005400085FD03C0808186FD0CC00FB607FCF7CF88
:100550008C9185FFF2CF808185FFEDCFCE0177DFD3
:10056000EACFDF91CF91089580E090E0892B21F0D0
:1005700065DF81110E94000080E090E0892B49F046
:1005800080E090E0892B29F00E94000081110E94F8
:10059000000080E090E0892B49F080E090E0892B1A
:1005A00029F00E94000081110E94000080E090E08C
:1005B000892B49F080E090E0892B29F00E9400000F
:1005C00081110C9400000895CF93DF9390E0FC011B
:1005D000E254FE4F249188589E4FFC018491882359
:1005E000D1F090E0880F991FFC01EC51FF4FA591CD
:1005F000B491FC01E250FF4FC591D491623071F487
:100600009FB7F8943C91822F809583238C93E88147
:100610002E2B28839FBFDF91CF9108958FB7F89439
:10062000EC912E2B2C938FBFF6CF863308F0865398
:1006300020917B00982F9870277F922B90937B00BE
:100640008770806480937C0080917A0080648093BE
:100650007A0080917A0086FDFCCF8091780090919D
:10066000790008953FB7F894809195029091960291
:10067000A0919702B091980226B5A89B05C02F3F84
:1006800019F00196A11DB11D3FBFBA2FA92F982FB8
:100690008827BC01CD01620F711D811D911D42E0B3
:1006A000660F771F881F991F4A95D1F708958F927B
:1006B0009F92AF92BF92CF92DF92EF92FF926B0127
:1006C0007C01D0DF4B015C01C114D104E104F104D1
:1006D000B1F0C8DF681979098A099B09683E73403F
:1006E0008105910588F321E0C21AD108E108F108DB
:1006F00088EE880E83E0981EA11CB11CE5CFFF9008
:10070000EF90DF90CF90BF90AF909F908F90089523
:100710008F929F92AF92BF92EF92FF920F931F938F
:10072000CF93DF93CDB7DEB7C054D1400FB6F89466
:10073000DEBF0FBECDBF2FB7F89480919902909184
:100740009A02A0919B02B0919C022FBF409161033D
:100750005091620360916303709164038C019D0169
:10076000041B150B260B370BB901A801403D574060
:1007700061057105A0F480916903C05CDE4F0FB67E
:10078000F894DEBF0FBECDBFDF91CF911F910F91C7
:10079000FF90EF90BF90AF909F908F9008958093BF
:1007A000610390936203A0936303B0936403109278
:1007B0005C0310925B0310925A031092590310923B
:1007C000580362E080915D03FFDE61E070E080E04D
:1007D00090E06DDF61E080915D03F6DE20915D03C6
:1007E00030E0F901E85EFE4F8491F901E254FE4FDA
:1007F000949128583E4FF9012491222309F433C0E3
:10080000882311F181508231F8F4E82FF0E0882735
:10081000E35FFB4F8F4F0C940F11640468041F04B7
:100820005C04600424046B04710475047B047F047D
:10083000830489048D042404910497049B0480910B
:1008400080008F7780938000E22FF0E0EE0FFF1F93
:10085000E250FF4FA591B4918FB7F894EC91909529
:100860009E239C938FBF80915E038551823008F058
:1008700066C08BE291E10197F1F762E080915D0340
:10088000A3DE80916A0390E08230910538F0880FF2
:10089000991F880F991F05970197F1F7F89480E049
:1008A000E4DC6F3F7F4F8F4F9F4F09F04EC0109297
:1008B0006903789480E061CF809180008F7DC2CF02
:1008C00080918000877FBECF84B58F7784BDBCCFF9
:1008D00084B58F7DFBCF8091B0008F778093B0007F
:1008E000B3CF8091B0008F7DF9CF809190008F774A
:1008F00080939000A9CF809190008F7DF9CF809157
:100900009000877FF5CF8091A0008F778093A00023
:100910009BCF8091A0008F7DF9CF8091A000877F31
:10092000F5CF809120018F77809320018DCF80912A
:1009300020018F7DF9CF80912001877FF5CF64E181
:1009400070E080E090E0B3DE98CF81E08EDC6F3F16
:100950007F4F8F4F9F4F09F4AACF9E012F5F3F4FCC
:1009600079015E013FEBA31A3EEFB30A870180E0F5
:100970007CDCF801608371838283938381E075DC82
:10098000F8016483758386839783085F1F4FA016E1
:10099000B10669F7789430E020E0F701808091801B
:1009A000A280B3804481558166817781FFEF8F16E5
:1009B0009F06AF06BF0631F04F3F0FEF50076007AD
:1009C000700719F41092690375CFF90183E0F5956A
:1009D000E7958A95E1F7E85AFC4F8081880F8416E5
:1009E0009506A606B70618F180832F5F3F4F18E0E3
:1009F000E10EF11C2832310581F640915C03209113
:100A0000580380915903280F3327331F80915A03CD
:100A1000280F311D80915B03820F932F911D992721
:100A20004817190679F681E080936903A6CE8160A4
:100A3000DBCFCF93DF93EC018C81F7DDBC01990F05
:100A4000880B990B0E944D0E6E877F87888B998B40
:100A500020E030E040E85AE30E94AC0E20E030E4B1
:100A60004CE955E40E94AC0E6A8B7B8B8C8B9D8B82
:100A70002A853B854C855D850E94B70F2E813F817D
:100A8000488559850E941C10688379838A839B83DB
:100A9000DF91CF910895FC0101900020E9F7319793
:100AA000AF01481B590BBC018DE992E016CC8F9227
:100AB0009F92AF92BF920F931F93CF93DF93CDB7C7
:100AC000DEB7A1970FB6F894DEBF0FBECDBF19A257
:100AD000423008F44AE08E010F5D1F4F842E912CA6
:100AE000B12CA12CA50194010E94860FE62FB9011B
:100AF000CA01EA30ECF4E05DD801EE938D01232BBE
:100B0000242B252B79F790E080E0109711F0CD0190
:100B1000C2DFA1960FB6F894DEBF0FBECDBFDF9146
:100B2000CF911F910F91BF90AF909F908F9008959C
:100B3000E95CE2CF0F931F93CF93DF93EC018881A1
:100B40009981009759F02A813B812617370730F0A9
:100B500081E0DF91CF911F910F9108958B016F5F1D
:100B60007F4F0E943C12009759F0998388831B8322
:100B70000A832C813D81232B59F7FC011082E8CF99
:100B800080E0E7CFFC01808191810C94B311EF925A
:100B9000FF920F931F93CF93DF93EC017B01198298
:100BA00018821B821A821D821C82FB010190002088
:100BB000E9F731978F01061B170BB801BBDF2881BE
:100BC0003981811113C02115310519F0C9010E9425
:100BD000B311198218821D821C821B821A82DF9136
:100BE000CF911F910F91FF90EF9008951D830C837B
:100BF000B701C901DF91CF911F910F91FF90EF9045
:100C00000C942A134F925F926F927F928F929F92D1
:100C1000AF92BF92CF92DF92EF92FF92CF93DF938A
:100C200000D000D01F921F92CDB7DEB79A83898380
:100C3000DC018C91FADCBC01990F880B990B0E94A6
:100C40004D0E9B01AC01E981FA81228333834483F9
:100C5000558360E070EC8FE794E40E941C1020E064
:100C600030E040E85FE30E94B70F9B01AC0160E019
:100C700070E48CE995E40E941C10A981BA811A964F
:100C80002D913D914D915C911D970E94B80F2B01C4
:100C90003C01E981FA814682578260867186C6846A
:100CA000D784E088F1882289338944895589C7012E
:100CB000B6010E94AC0E4B015C01A981BA81569627
:100CC0008D919D910D90BC91A02D89839A83AB83CA
:100CD000BC8320E030E040E850ECC701B6010E9440
:100CE000AC0E29813A814B815C810E94AC0E6D83F0
:100CF0007E838F839887A3019201C701B6010E946A
:100D0000B70F9B01AC016D817E818F8198850E9418
:100D1000AC0E2B013C01A5019401C501B4010E9458
:100D2000AC0E9B01AC01C301B2010E94B80F0E943E
:100D3000B810A50194010E94B70F4B015C01A701F7
:100D40009601C701B6010E94B80F29813A814B81F3
:100D50005C810E94AC0E9B01AC01C501B4010E94F4
:100D60001C1028960FB6F894DEBF0FBECDBFDF91E2
:100D7000CF91FF90EF90DF90CF90BF90AF909F907A
:100D80008F907F906F905F904F9008958F929F9279
:100D9000AF92BF92CF92DF92EF92FF920F931F9389
:100DA0005B0169017A01C6DA88E192E074DEC5016F
:100DB000C1DA88E192E06FDEA7019601C701B601B2
:100DC0000E94F6108823A9F08AE192E064DE88E1AF
:100DD00092E061DEC801AEDA86E292E01F910F91E7
:100DE000FF90EF90DF90CF90BF90AF909F908F904B
:100DF00052CE46015701E894B7F82FEF3FEF4FE787
:100E00005FE7C501B4010E94F61081110CC02FEFFD
:100E10003FEF4FE75FE7C501B40139D718161CF45F
:100E20008EE192E0D3CF2FEF3FEF4FE75FE4C701B2
:100E3000B6010E94B01018161CF482E292E0C6CFF0
:100E40002FEF3FEF4FE75FECC701B60120D787FDDB
:100E5000F4CF20E030E0A901C701B60118D787FF21
:100E600008C06DE28DE992E014DBF7FAF094F7F830
:100E7000F0942AE037ED43EA5BE3C701B6010E9434
:100E8000B80F4B015C010E9484106B017C0103D7F9
:100E90009B01AC01C501B4010E94B70F4B015C017D
:100EA0004AE0C701B60103DE6EE28DE992E0F1DAB5
:100EB00020E030E040E251E4C501B4014DD74B01E0
:100EC0005C010E9484106B01F12CE12C4AE0C70107
:100ED000B601EDDDC701B601DED69B01AC01C5014F
:100EE000B4010E94B70F20E030E040E251E434D773
:100EF0000E94841090E080E04AE0D9DD68CF1F9224
:100F00000F920FB60F9211240BB60F922F933F93AF
:100F10004F935F936F937F938F939F93AF93BF9301
:100F2000EF93FF938DE992E092DAFF91EF91BF91F9
:100F3000AF919F918F917F916F915F914F913F9171
:100F40002F910F900BBE0F900FBE0F901F90189512
:100F50001F920F920FB60F9211240BB60F922F9380
:100F60008F939F93EF93FF93E091AD02F091AE02C8
:100F70008081E091B302F091B40282FD1DC09081A6
:100F80008091B6028F5F8F732091B702821741F074
:100F9000E091B602F0E0E356FD4F958F8093B602E4
:100FA000FF91EF919F918F912F910F900BBE0F901A
:100FB0000FBE0F901F9018958081F2CF1F920F9255
:100FC0000FB60F9211242F933F938F939F93AF935C
:100FD000BF938091990290919A02A0919B02B09147
:100FE0009C023091940223E0230F2D3758F501968F
:100FF000A11DB11D209394028093990290939A02AF
:10100000A0939B02B0939C028091950290919602CE
:10101000A0919702B09198020196A11DB11D8093F5
:10102000950290939602A0939702B0939802BF9175
:10103000AF919F918F913F912F910F900FBE0F9085
:101040001F90189526E8230F0296A11DB11DD2CF3F
:101050008F929F92AF92BF92CF92DF92EF92FF92C8
:101060000F931F93CF93DF93EDE9F2E01382128287
:1010700088EE93E0A0E0B0E084839583A683B783F5
:101080008AE092E09183808385EC90E09587848765
:1010900084EC90E09787868780EC90E0918B808B42
:1010A00081EC90E0938B828B82EC90E0958B848B2B
:1010B00086EC90E0978B868B118E128E138E148E99
:1010C000E5E0F4E010821182128213821786168600
:1010D000108A118A128A138A86E390E095838483AA
:1010E00080E096EFA1E5B8E486839783A087B18777
:1010F00080E092EEA1E8B7E482879387A487B58762
:10110000E1EFF3E0108211821282138217861686B5
:10111000108A118A128A138A87E390E09583848368
:1011200080E09AEEA3E5B8E486839783A087B18731
:1011300080E09AE1A1E8B7E482879387A487B58726
:10114000EBEDF3E0108211821282138240E050E056
:1011500064E872E4468357836087718780E090E497
:10116000ACE1B5E482879387A487B5871686178696
:10117000108A118A128A138A148A158A2AE030E0AA
:1011800035832483E5ECF3E010821182128213820E
:10119000468357836087718782879387A487B58743
:1011A00016861786108A118A128A138A148A158A5B
:1011B0002BE030E035832483EFEAF3E010821182E4
:1011C0001282138246835783608771878287938751
:1011D000A487B58716861786108A118A128A138A01
:1011E000148A158A8CE090E095838483E1E9F3E02A
:1011F000C12CD12C8AE7E82E84E4F82EC686D78647
:10120000E08AF18A02E311E120E83BE3028B138BD1
:10121000248B358B4FE755E06BE175EB468B578B95
:10122000608F718F85E698EFA7E3BEEA828F938F78
:10123000A48FB58FC9E3D0E0D183C083812C912CDA
:10124000C8EAAC2EC1E4BC2E82869386A486B586FD
:10125000E3E7F3E0C686D786E08AF18A028B138B38
:10126000248B358B468B578B608F718F828F938F3A
:10127000A48FB58F8AE390E09183808380E090E033
:10128000A0EEB1E482879387A487B587EBE6F3E00D
:10129000158214828FEF93E09783868384E390E036
:1012A000918380838FE090E093838283A8E5B3E00D
:1012B0008CE315968C9315978BE016968C93169766
:1012C000EAEFF1E0E4911796EC931797E4EBF1E085
:1012D000E4911896EC93189740E85EE360E070E0C4
:1012E0001D964D935D936D937C935097EAE3F3E0E5
:1012F000128213821482158216821782108611863A
:101300008DEC9CECACECBEE382879387A487B58719
:1013100016861786108A118A80E090E0A0E0B0E47B
:10132000828B938BA48BB58B80E090E0A0E0B2E43D
:10133000868B978BA08FB18F128E138E148E158E85
:101340008EE090E091838083DF91CF911F910F9188
:10135000FF90EF90DF90CF90BF90AF909F908F90D5
:101360000895CF93DF93CDB7DEB7E6970FB6F89425
:10137000DEBF0FBECDBF789484B5826084BD84B5D6
:10138000816084BD85B5826085BD85B5816085BD80
:1013900080916E00816080936E0010928100809138
:1013A00081008260809381008091810081608093C0
:1013B0008100809180008160809380008091B100E5
:1013C00084608093B1008091B00081608093B00010
:1013D0008091910082608093910080919100816062
:1013E0008093910080919000816080939000809123
:1013F000A10082608093A1008091A1008160809310
:10140000A1008091A00081608093A00080912101C3
:10141000826080932101809121018160809321016C
:101420008091200181608093200180917A00846006
:1014300080937A0080917A00826080937A00809114
:101440007A00816080937A0080917A00806880932E
:101450007A001092C100E091AD02F091AE0282E0FC
:101460008083E091A902F091AA021082E091AB0280
:10147000F091AC0280E180831092B502E091B1025C
:10148000F091B20286E08083E091AF02F091B00269
:10149000808180618083E091AF02F091B002808111
:1014A00088608083E091AF02F091B0028081806813
:1014B0008083E091AF02F091B00280818F7D8083C4
:1014C00062E080915D0380D82FB7F89480919902F3
:1014D00090919A02A0919B02B0919C022FBF805DD7
:1014E0009740A109B1098093610390936203A0938F
:1014F0006303B093640387E380936A038DE992E00A
:101500000E94120218161906CCF767E272E0CE01AB
:1015100001963DDB0E94C501ED80FE8097FD1CC059
:101520008A309105C9F08F8318862FEFE21AF20AEC
:10153000B701CE010196FEDA882361F329813A8151
:101540008D819E81BE01695F7F4F820F931F0E9434
:101550002A13FE82ED82DECFEF2809F408C168E28B
:1015600072E089819A810E942113892B09F0FFC0C2
:10157000CE01019607DB64E670E080E090E097D84A
:101580008091090452D89093140480931304BC01F1
:10159000990F880B990B81D32AE038E240EA5BE38C
:1015A000DBD34B015C01C0900F04D0901004E0909D
:1015B0001104F090120420910B0430910C0440911E
:1015C0000D0450910E04C701B601D2D49B01AC01A9
:1015D000C701B60131D59B01AC01C501B4012CD5C1
:1015E0006FA778AB89AB9AAB69E170E080E090E0DF
:1015F0005ED88091F50319D8909300048093FF037F
:10160000BC01990F880B990B48D32AE038E240EAD5
:101610005BE3A2D34B015C01C090FB03D090FC03C1
:10162000E090FD03F090FE032091F7033091F80362
:101630004091F9035091FA03C701B60199D49B0177
:10164000AC01C701B601F8D49B01AC01C501B401DE
:10165000F3D46BA77CA78DA79EA769E170E080E01B
:1016600090E025D88BED93E0E4D96F8B788F898F4C
:101670009A8F69E170E080E090E019D885EC93E002
:10168000D8D96B8F7C8F8D8F9E8F69E170E080E061
:1016900090E00DD88FEA93E0CCD96F8F78A389A31F
:1016A0009AA369E170E080E090E001D881E993E0DD
:1016B000A9DA6BA37CA38DA39EA369E170E080E00F
:1016C00090E00E94570383E793E09CDA6FA378A72A
:1016D00089A79AA769E170E080E090E00E94570333
:1016E000C0907103D09072030D2C000CEE08FF081F
:1016F00080906F0390907003092C000CAA08BB081F
:1017000080916D030E9415039C01990F440B550BAA
:10171000281939094A095B09A3E0B0E0EDD3A70114
:101720009601281939094A095B09CAD32BAB3CAB8E
:101730004DAB5EAB69E170E080E090E00E94570342
:101740000E948803882351F080915E038B3030F033
:101750008D3088F08551823008F442C080E090E0FE
:10176000A0ECBFE78B8B9C8BAD8BBE8B20C0CE01DA
:10177000019608DAC3CE6091590370E090E080E0F2
:101780008CD22DEC3CEC4CEC5DE3E6D26B017C01A1
:101790006091580370E090E080E07FD29B01AC0143
:1017A000C701B601E5D36B8B7C8B8D8B9E8B69E17A
:1017B00070E080E090E00E9457030E948803882335
:1017C00041F080915E038C3009F41BC2C8F48B3069
:1017D00091F1C12CD12C80ECE82E8FE7F82E50C06F
:1017E000609158037091590376276727762790E018
:1017F00080E051D22DEC3CEC4CEC5DE3ADD2D3CF8C
:101800008551823030F7B0905A036B2D70E0762FFF
:10181000662766277F7780915B03682B90E080E0E6
:101820003AD22DEC3CEC4CEC5DE396D26B017C01A2
:10183000B7FE26C002C260915A0370E090E080E0DB
:101840002AD26B017C0110915B0317FF09C0AC0128
:101850009B0160E070E080E89FEB89D36B017C0125
:101860001F70612F70E090E080E017D22DEC3CEC0F
:101870004CEC5DE371D2A70196017AD36B017C0138
:1018800069E170E080E090E00E94570380913A03A4
:101890000E941503BC01990F880B990BFED1609330
:1018A0003C0370933D0380933E0390933F032AE0F3
:1018B00038E240EA5BE350D22B013C014092400306
:1018C000509241036092420370924303809044031C
:1018D00090904503A0904603B0904703A501940162
:1018E000D6D118160CF4AEC11092540310925503C1
:1018F0001092560310925703809054039090550312
:10190000A0905603B090570369E170E080E090E04A
:101910000E9457036BE372E0CE010D9638D961E364
:1019200072E0CE01079633D965E372E0CE010196ED
:101930002ED98E01035F1F4F2FA538A949A95AA997
:10194000BE01695F7F4FCE01019620DACE0101967C
:1019500019D9CE01079616D9C80114D96BE372E0E4
:10196000C80115D96AE372E0CE01079610D965E384
:1019700072E0CE0101960BD92BA53CA54DA55EA525
:10198000BE01695F7F4FCE01019600DACE0101965C
:10199000F9D8CE010796F6D8C801F4D86DE372E005
:1019A000C801F5D86FE372E0CE010796F0D865E381
:1019B00072E0CE010196EBD82F89388D498D5A8D72
:1019C000BE01695F7F4FCE010196E0D9CE0101963D
:1019D000D9D8CE010796D6D8C801D4D86DE372E025
:1019E000C801D5D863E472E0CE010796D0D865E38C
:1019F00072E0CE010196CBD82B8D3C8D4D8D5E8D46
:101A0000BE01695F7F4FCE010196C0D9CE0101961C
:101A1000B9D8CE010796B6D8C801B4D86DE372E044
:101A2000C801B5D866E472E0CE010796B0D865E388
:101A300072E0CE010196ABD82F8D38A149A15AA1F1
:101A4000BE01695F7F4FCE010196A0D9CE010196FC
:101A500099D8CE01079696D8C80194D869E472E067
:101A6000C80195D861E572E0CE01079690D865E38C
:101A700072E0CE0101968BD82BA13CA14DA15EA1B5
:101A8000BE01695F7F4FCE01019680D9CE010196DC
:101A900079D8CE01079676D8C80174D869E472E087
:101AA000C80175D864E572E0CE01079670D865E389
:101AB00072E0CE0101966BD82FA138A549A55AA591
:101AC000BE01695F7F4FCE01019660D9CE010196BC
:101AD00059D8CE01079656D8C80154D868E572E0A7
:101AE000C80155D868E672E0CE01079650D865E384
:101AF00072E0CE0101964BD8ABA9BCA9BD01BB0FCA
:101B0000880B990BCAD09B01AC01BE01695F7F4F66
:101B1000CE0101963BD9CE01019634D8CE0107966D
:101B200031D8C8012FD86DE672E0C80130D86FE611
:101B300072E0CE0107962BD865E372E0CE010196E4
:101B400026D82B893C894D895E89BE01695F7F4F0C
:101B5000CE0101961BD9CE01019614D8CE0107966D
:101B600011D8C8010FD866E772E0C80110D86EE737
:101B700072E0CE0107960BD865E372E0CE010196C4
:101B800006D8A7019601BE01695F7F4FCE0101967D
:101B9000FDD8CE0101960E94C205CE0107960E9493
:101BA000C205C8010E94C20566E872E0C8010E9431
:101BB000C7056AE872E0CE0107960E94C70565E393
:101BC00072E0CE0101960E94C705A5019401BE01F5
:101BD000695F7F4FCE010196D9D8CE0101960E9450
:101BE000C205CE0107960E94C205C8010E94C20527
:101BF00060ED77E080E090E00E9457030E94B4021D
:101C0000BFCC10915A03612F70E090E080E043D088
:101C10006B017C0160915B036F7070E090E080E08D
:101C20003CD02DEC3CEC4CEC5DE396D0A70196014A
:101C30009FD16B017C0117FF23CEF7FAF094F7F8E0
:101C4000F0941ECEA5019401C301B20190D12B01E5
:101C50003C01A501940160914C0370914D0380916A
:101C60004E0390914F0383D19B01AC01C301B2019C
:101C7000E3D120E030E040E052E46ED060935403C2
:101C800070935503809356039093570335CE40D0FD
:101C900008F481E00895E89409C097FB3EF490951C
:101CA0008095709561957F4F8F4F9F4F9923A9F035
:101CB000F92F96E9BB279395F695879577956795C4
:101CC000B795F111F8CFFAF4BB0F11F460FF1BC008
:101CD0006F5F7F4F8F4F9F4F16C0882311F096E99B
:101CE00011C0772321F09EE8872F762F05C0662349
:101CF00071F096E8862F70E060E02AF09A95660F02
:101D0000771F881FDAF7880F9695879597F90895BA
:101D1000990F0008550FAA0BE0E8FEEF16161706FC
:101D2000E807F907C0F012161306E407F50798F064
:101D3000621B730B840B950B39F40A2661F0232B7D
:101D4000242B252B21F408950A2609F4A140A695F9
:101D50008FEF811D811D08950BD078C069D028F0C8
:101D60006ED018F0952309F05AC05FC01124A2C0AC
:101D70007ED0A0F3959FD1F3950F50E0551F629F41
:101D8000F001729FBB27F00DB11D639FAA27F00DD4
:101D9000B11DAA1F649F6627B00DA11D661F829FFB
:101DA0002227B00DA11D621F739FB00DA11D621FE0
:101DB000839FA00D611D221F749F3327A00D611DFD
:101DC000231F849F600D211D822F762F6A2F1124DF
:101DD0009F5750408AF0E1F088234AF0EE0FFF1F32
:101DE000BB1F661F771F881F91505040A9F79E3F69
:101DF000510570F014C05EC05F3FECF3983EDCF319
:101E0000869577956795B795F795E7959F5FC1F7A5
:101E1000FE2B880F911D9695879597F9089597F950
:101E20009F6780E870E060E008959FEF80EC089580
:101E300000240A94161617061806090608950024A9
:101E40000A9412161306140605060895092E039423
:101E5000000C11F4882352F0BB0F40F4BF2B11F497
:101E600060FF04C06F5F7F4F8F4F9F4F089557FDF6
:101E70009058440F551F59F05F3F71F04795880FF8
:101E800097FB991F61F09F3F79F08795089512168F
:101E900013061406551FF2CF4695F1DF08C016163B
:101EA00017061806991FF1CF8695710561050894EC
:101EB0000895E894BB2766277727CB0197F9089503
:101EC000052E97FB16F400940FD057FD05D01ED0B9
:101ED00007FC02D046F408C05095409530952195F6
:101EE0003F4F4F4F5F4F0895909580957095619546
:101EF0007F4F8F4F9F4F08952BD0A59F900DB49F7C
:101F0000900DA49F800D911D11240895A1E21A2E19
:101F1000AA1BBB1BFD010DC0AA1FBB1FEE1FFF1F8D
:101F2000A217B307E407F50720F0A21BB30BE40BDD
:101F3000F50B661F771F881F991F1A9469F7609524
:101F40007095809590959B01AC01BD01CF010895DE
:101F5000A29FB001B39FC001A39F700D811D1124EA
:101F6000911DB29F700D811D1124911D089550582F
:101F7000BB27AA270ED06ACF5BDF30F060DF20F0EE
:101F800031F49F3F11F41EF450CF0EF4E095E7FBBF
:101F900046CFE92F6CDF80F3BA1762077307840717
:101FA000950718F071F49EF584CF0EF4E0950B2E92
:101FB000BA2FA02D0B01B90190010C01CA01A0019B
:101FC0001124FF27591B99F0593F50F4503E68F1F6
:101FD0001A16F040A22F232F342F4427585FF3CF37
:101FE000469537952795A795F0405395C9F77EF408
:101FF0001F16BA0B620B730B840BBAF09150A1F051
:10200000FF0FBB1F661F771F881FC2F70EC0BA0FD6
:10201000621F731F841F48F4879577956795B7955E
:10202000F7959E3F08F0B3CF9395880F08F0992756
:10203000EE0F9795879508950CD008CF00DF40F0FC
:10204000F7DE30F021F45F3F19F0E9CE511132CFC5
:10205000ECCE0DDF98F39923C9F35523B1F3951B0B
:10206000550BBB27AA2762177307840738F09F5FB9
:102070005F4F220F331F441FAA1FA9F333D00E2E28
:102080003AF0E0E830D091505040E695001CCAF795
:1020900029D0FE2F27D0660F771F881FBB1F26175A
:1020A00037074807AB07B0E809F0BB0B802DBF012D
:1020B000FF2793585F4F2AF09E3F510568F0AFCE3F
:1020C000F9CE5F3FECF3983EDCF386957795679504
:1020D000B795F7959F5FC9F7880F911D96958795DE
:1020E00097F90895E1E0660F771F881FBB1F6217FD
:1020F00073078407BA0720F0621B730B840BBA0BBB
:10210000EE1F88F7E0950895BADE88F09F5790F0AB
:10211000B92F9927B751A0F0D1F0660F771F881F0C
:10212000991F1AF0BA95C9F712C0B13081F0C1DE1B
:10213000B1E00895BECE672F782F8827B85F39F0B9
:10214000B93FCCF3869577956795B395D9F73EF46B
:1021500090958095709561957F4F8F4F9F4F089513
:10216000D7DD08F48FEF089511F40EF45ECE42C06F
:1021700086DED0F39923D9F3CEF39F57550B87FF13
:1021800047D00024A0E640EA9001805856959795E4
:1021900028F4805C660F771F881F20F0261737070A
:1021A000480730F4621B730B840B202931294A2B1A
:1021B000A69517940794202531254A2758F7660FCE
:1021C000771F881F20F026173707480730F4620B67
:1021D000730B840B200D311D411DA09581F7B901B2
:1021E000842F9158880F96958795089591DD880BD7
:1021F000990B08959F3F31F0915020F48795779582
:102200006795B795880F911D9695879597F90895CD
:1022100091505040660F771F881FD2F70895EE0F38
:10222000FF1F881F8BBF0790F691E02D19940F9325
:102230001F93CF93DF938230910510F482E090E0FA
:10224000E0911B04F0911C0430E020E0B0E0A0E03D
:10225000309799F42115310509F44AC0281B390B30
:1022600024303105D8F58A819B816115710589F18A
:10227000FB0193838283FE0111C040815181028161
:10228000138148175907E0F04817590799F4109738
:1022900061F012960C93129713961C933296CF010D
:1022A000DF91CF911F910F91089500931B0410931C
:1022B0001C04F4CF2115310551F04217530738F0B3
:1022C000A901DB019A01BD01DF01F801C1CFEF01D6
:1022D000F9CF90931C0480931B04CDCFFE01E20F35
:1022E000F31F819391932250310939832883D7CFEB
:1022F0002091190430911A04232B41F420910202F9
:102300003091030230931A042093190420910002A3
:10231000309101022115310541F42DB73EB74091AE
:10232000040250910502241B350BE0911904F09131
:102330001A04E217F307A0F42E1B3F0B28173907E6
:1023400078F0AC014E5F5F4F2417350748F04E0F11
:102350005F1F50931A0440931904819391939FCF68
:10236000F0E0E0E09CCFCF93DF930097E9F0FC0131
:10237000329713821282A0911B04B0911C04ED01CC
:1023800030E020E01097A1F420813181820F931F6B
:102390002091190430911A042817390709F061C0F7
:1023A000F0931A04E0931904DF91CF910895EA01A4
:1023B000CE17DF07E8F54A815B819E014115510583
:1023C000B1F7E901FB83EA8349915991C40FD51F05
:1023D000EC17FD0761F4808191810296840F951FAF
:1023E000E90199838883828193819B838A83F0E0CA
:1023F000E0E012968D919C9113970097B9F52D917D
:102400003C911197CD010296820F931F20911904E0
:1024100030911A042817390739F6309751F5109280
:102420001C0410921B04B0931A04A0931904BCCF8F
:10243000D383C28340815181840F951FC817D90768
:1024400061F44E5F5F4F88819981480F591F518316
:1024500040838A819B81938382832115310509F012
:10246000B0CFF0931C04E0931B049ECFFD01DC0170
:10247000C0CF13821282D7CF4F925F926F927F921A
:102480008F929F92AF92BF92CF92DF92EF92FF9284
:102490000F931F93CF93DF938C01009791F4CB019F
:1024A000DF91CF911F910F91FF90EF90DF90CF9030
:1024B000BF90AF909F908F907F906F905F904F9064
:1024C000B6CEFC01E60FF71F9C0122503109E2173E
:1024D000F30708F4AAC0D901CD91DC911197C61772
:1024E000D70718F1C530D10570F0CE0104978617D3
:1024F000970748F0C61BD70B2297C193D1936D93D2
:102500007C93CF0130DFC801DF91CF911F910F91F4
:10251000FF90EF90DF90CF90BF90AF909F908F9003
:102520007F906F905F904F9008955B01AC1ABD0A49
:102530004C018C0E9D1EA0911B04B0911C04512CCB
:10254000412CF12CE12C109731F5809119049091D8
:102550001A048815990509F05CC04616570608F05C
:1025600058C08091000290910102009741F48DB70C
:102570009EB74091040250910502841B950BE81709
:10258000F90708F052C0F0931A04E0931904F90116
:1025900071836083B8CF8D919C91119712966C9046
:1025A000129713967C901397A815B90559F56C01ED
:1025B00042E0C40ED11CCA14DB0420F1AC014A195C
:1025C0005B09DA011296159780F06282738251835B
:1025D0004083D9016D937C93E114F10471F0D7012C
:1025E0001396FC93EE9312978ECF22968C0F9D1F1D
:1025F000F90191838083F301EFCFF0931C04E09302
:102600001B0481CF4816590608F42C017D01D30123
:102610009ACFCB010CDE7C01009739F0AE01B801F6
:1026200007D0C801A0DE87016ECF10E000E06BCFBD
:10263000FB01DC0102C001900D9241505040D8F7DF
:102640000895FB01DC018D91019080190110D9F3EF
:10265000990B0895FB01DC0101900D920020E1F738
:062660000895F894FFCF7D
:1026660000001D0480000000000049026D01A20167
:1026760095021202B10104022C006E616E00696EB1
:1026860066006F7666000A00525049726561647989
:102696000053505600526F6F660042560041005379
:1026A6005043004243004C430063656C6369757395
:1026B6000042540053505400484947482F4D454462
:1026C60049554D2F4C4F57005241494E0025004F5A
:1026D600555448554D0063656C63756973004F55D5
:1026E6005454454D50006D2F730077696E647370B6
:0426F60065656400B2
:020000023000CC
:10E000000D9489F10D94B2F10D94B2F10D94B2F129
:10E010000D94B2F10D94B2F10D94B2F10D94B2F1F0
:10E020000D94B2F10D94B2F10D94B2F10D94B2F1E0
:10E030000D94B2F10D94B2F10D94B2F10D94B2F1D0
:10E040000D94B2F10D94B2F10D94B2F10D94B2F1C0
:10E050000D94B2F10D94B2F10D94B2F10D94B2F1B0
:10E060000D94B2F10D94B2F10D94B2F10D94B2F1A0
:10E070000D94B2F10D94B2F10D94B2F10D94B2F190
:10E080000D94B2F10D94B2F10D94B2F10D94B2F180
:10E090000D94B2F10D94B2F10D94B2F10D94B2F170
:10E0A0000D94B2F10D94B2F10D94B2F10D94B2F160
:10E0B0000D94B2F10D94B2F10D94B2F10D94B2F150
:10E0C0000D94B2F10D94B2F10D94B2F10D94B2F140
:10E0D0000D94B2F10D94B2F10D94B2F10D94B2F130
:10E0E0000D94B2F141546D656761323536300041AF
:10E0F000726475696E6F206578706C6F72657220DE
:10E1000073746B3530305632206279204D4C530099
:10E11000426F6F746C6F616465723E004875683F52
:10E1200000436F6D70696C6564206F6E203D200048
:10E130004350552054797065202020203D20005FF9
:10E140005F4156525F415243485F5F3D2000415658
:10E1500052204C696243205665723D20004743437C
:10E160002056657273696F6E203D20004350552024
:10E1700049442020202020203D20004C6F7720663D
:10E18000757365202020203D20004869676820665F
:10E190007573652020203D200045787420667573D6
:10E1A00065202020203D20004C6F636B2066757336
:10E1B000652020203D20004D617220203720323024
:10E1C000313300312E362E3800342E332E350056A2
:10E1D00023202020414444522020206F7020636F70
:10E1E00064652020202020696E73747275637469E1
:10E1F0006F6E2061646472202020496E74657272B3
:10E20000757074006E6F20766563746F7200726A49
:10E210006D702020006A6D70200057686174207056
:10E220006F72743A00506F7274206E6F7420737541
:10E2300070706F72746564004D7573742062652030
:10E2400061206C6574746572002000577269747483
:10E25000696E672045450052656164696E672045B7
:10E26000450045452065727220636E743D00504F35
:10E27000525400303D5A65726F2061646472003FF1
:10E280003D43505520737461747300403D454550C3
:10E29000524F4D207465737400423D426C696E6B41
:10E2A000204C454400453D44756D70204545505215
:10E2B0004F4D00463D44756D7020464C415348001B
:10E2C000483D48656C70004C3D4C69737420492F83
:10E2D0004F20506F72747300513D51756974005234
:10E2E0003D44756D702052414D00563D73686F7707
:10E2F00020696E7465727275707420566563746FF0
:10E30000727300593D506F727420626C696E6B00BD
:10E310002A0011241FBECFEFD1E2DEBFCDBF01E046
:10E320000CBF12E0A0E0B2E0EEE1FDEF03E00BBFB6
:10E3300002C007900D92A030B107D9F712E0A0E01B
:10E34000B2E001C01D92AE30B107E1F70F9460F367
:10E350000D948DFE01E20EBF0FEF0DBF11241FBE05
:10E360000D9460F30D9400F020E030E040ED57E0B4
:10E3700005C0FA013197F1F72F5F3F4F2817390792
:10E38000C0F308959C01260F311DC901A0E0B0E043
:10E390002F5F3F4FABBFFC018791882361F08093D3
:10E3A000C6008091C00086FFFCCF8091C0008064D1
:10E3B0008093C000EACF08958DE08093C6008091DD
:10E3C000C00086FFFCCF8091C00080648093C000B5
:10E3D0008AE08093C6008091C00086FFFCCF8091C8
:10E3E000C00080648093C00008950F94C2F10F9420
:10E3F000DCF10895FC019081992359F09093C600B7
:10E400008091C00086FFFCCF8091C0008064809323
:10E41000C0003196992379F70895282F982F929567
:10E420009F70892F805D8A3308F0895F8093C600D2
:10E430008091C00086FFFCCF8091C00080648093F3
:10E44000C000822F8F70982F905D9A3308F0995FEB
:10E450009093C6008091C00086FFFCCF8091C000E1
:10E4600080648093C00008959C01FB01853691056E
:10E470001CF46330710594F0C90164E670E00F94F8
:10E480002EFE605D7F4F6093C6008091C00086FFC6
:10E49000FCCF8091C00080648093C0002B30310598
:10E4A00014F43297B4F0C90164E670E00F942EFEC4
:10E4B0006AE070E00F942EFE605D7F4F6093C600AF
:10E4C0008091C00086FFFCCF8091C0008064809363
:10E4D000C000C9016AE070E00F942EFEC0968093E0
:10E4E000C6008091C00086FFFCCF8091C000806490
:10E4F0008093C00008951F93182F8EE692EE60E07F
:10E500000F94C2F11093C6008091C00086FFFCCF2B
:10E510008091C00080648093C0000F94DCF11F9153
:10E5200008952F923F924F925F926F927F928F92B7
:10E530009F92AF92BF92CF92DF92EF92FF920F9392
:10E540001F93DF93CF93CDB7DEB762970FB6F894E2
:10E55000DEBF0FBECDBF382E622ECA01DB015C01CB
:10E560006D01772420E2222E2E010894411C511CBB
:10E570008BC081E0A81680E0B80681E0C80680E084
:10E58000D80628F0C601AA27BB270F940DF2BB2797
:10E59000AD2D9C2D8B2D0F940DF28A2D0F940DF225
:10E5A0002092C6008091C00086FFFCCF8091C00001
:10E5B00080648093C0009DE29093C6008091C0006B
:10E5C00086FFFCCF8091C00080648093C0002092C1
:10E5D000C6008091C00086FFFCCF8091C00080649F
:10E5E0008093C00019828601750188249924A1E0D6
:10E5F0003A1651F03A1620F0B2E03B1661F409C029
:10E600000BBFF701779007C0C7010F9477FE782EF4
:10E6100002C0F7017080872D0F940DF22092C60082
:10E620008091C00086FFFCCF8091C0008064809301
:10E63000C000872D8052F401EF70F0708F3520F408
:10E64000E40DF51D708204C0E40DF51D8EE280839B
:10E650000894E11CF11C011D111D0894811C911CE2
:10E6600090E18916910409F0C2CF80E190E0A0E02A
:10E67000B0E0A80EB91ECA1EDB1E198AC2010F9493
:10E68000FAF10F94DCF16A94662009F072CF629679
:10E690000FB6F894DEBF0FBECDBFCF91DF911F91B3
:10E6A0000F91FF90EF90DF90CF90BF90AF909F9031
:10E6B0008F907F906F905F904F903F902F90089534
:10E6C0002F923F924F925F926F927F928F929F9282
:10E6D000AF92BF92CF92DF92EF92FF920F931F9370
:10E6E000DF93CF93CDB7DEB7CD53D1400FB6F894BB
:10E6F000DEBF0FBECDBF01E20EBF0FEF0DBF94B75F
:10E70000F894A89514BE80916000886180936000A1
:10E7100010926000789493FF05C0E0910002F091A0
:10E7200001021995279A2F9A8091C00082608093E8
:10E73000C00080E18093C40088E18093C1000000A4
:10E74000EE24FF24870144E0A42EB12CCC24DD2448
:10E7500024C0C5010197F1F70894E11CF11C011DCB
:10E76000111D21E2E2162EE4F20620E0020720E06D
:10E77000120718F031E0C32ED12CC801B70127ECE5
:10E780003BE140E050E00F9441FE611571058105C9
:10E79000910519F485B1805885B98091C00087FD35
:10E7A00003C0C114D104A9F2A6014F5F5F4FC25E3E
:10E7B000DE4F59834883CE51D140C25EDE4F8881FF
:10E7C0009981CE51D140019711F00D9410FEC05D9A
:10E7D000DE4F19821882C053D14060E0C15DDE4F28
:10E7E0001882CF52D14088249924C35DDE4F19820C
:10E7F0001882CD52D140C05EDE4F188219821A8233
:10E800001B82C052D140CE5CDE4F188219821A8220
:10E810001B82C253D140EE24FF2487010BBFF701B6
:10E8200007911691C45CDE4F19830883CC53D14005
:10E830000D940BFEC25EDE4F28813981CE51D1404E
:10E840002130310509F52091C600C25EDE4F1982E4
:10E850001882CE51D14022C02F5F3F4F4F4F5F4FA4
:10E86000213082E138078AE7480780E0580780F0C6
:10E87000C45CDE4FE881F981CC53D140EF5FFF4F9C
:10E8800019F0EE27FF27099420E030E040E050E047
:10E890008091C00087FFE0CF2091C600C35DDE4FAE
:10E8A00048815981CD52D1404F5F5F4FC35DDE4FEC
:10E8B00059834883CD52D140213209F063C64A3092
:10E8C000510508F05FC60894811C911C53E0851621
:10E8D000910409F059C600E010E018C081E280936D
:10E8E000C6008091C00086FFFCCF8091C00080648C
:10E8F0008093C0002F5F3F4F2931310579F70F9486
:10E90000DCF10F5F1F4F0530110519F020E030E0FA
:10E91000E5CF10920A0210920B0210920C02109294
:10E920000D02109206021092070210920802109235
:10E930000902109202021092030210920402109235
:10E9400005028FEE90EE60E00F94F5F180E191EE1C
:10E9500060E00F94C2F18091C00087FFFCCF9091DE
:10E96000C600903608F09F759032B8F09093C600BC
:10E970008091C00086FFFCCF8091C00080648093AE
:10E98000C000A0E2A093C6008091C00086FFFCCF2B
:10E990008091C00080648093C000983409F4D7C18E
:10E9A0009934B8F4923409F459C1933458F490333B
:10E9B00019F1903308F4E3C59F33A1F1903409F0C5
:10E9C000DEC5BDC0953409F470C1963409F0D7C5D1
:10E9D00098C1923509F42BC2933538F49C3409F46C
:10E9E000F5C1913509F0CBC518C2963509F445C279
:10E9F000993509F0C4C567C483E792EE62E00F94CD
:10EA0000F5F110920602109207021092080210927D
:10EA1000090210920A0210920B0210920C0210923C
:10EA20000D0213C18FE792EE62E00F94F5F18FEEC5
:10EA300090EE60E00F94F5F181E291EE60E00F94CA
:10EA4000C2F187EB91EE60E00F94F5F180E391EE77
:10EA500060E00F94C2F184EE90EE60E00F94F5F167
:10EA60008FE391EE60E00F94C2F186E090E061E008
:10EA700070E00F9434F20F94DCF18DE591EE60E0DC
:10EA80000F94C2F189EC91EE60E00F94F5F18EE401
:10EA900091EE60E00F94C2F183EC91EE60E00F9490
:10EAA000F5F18CE691EE60E00F94C2F18EE10F94E7
:10EAB0000DF288E90F940DF281E00F940DF20F949E
:10EAC000DCF18BE791EE60E00F94C2F119E0E0E039
:10EAD000F0E010935700E4918E2F0F940DF20F94F5
:10EAE000DCF18AE891EE60E00F94C2F1E3E0F0E03F
:10EAF00010935700E4918E2F0F940DF20F94DCF1D8
:10EB000089E991EE60E00F94C2F1E2E0F0E0109349
:10EB10005700E4918E2F0F940DF20F94DCF188EAE8
:10EB200091EE60E00F94C2F1E1E0F0E01093570045
:10EB30001491812F0F940DF20F94DCF107CF8BE825
:10EB400092EE62E00F94F5F18BE492EE60E00F94A8
:10EB5000F5F10F94DCF100E010E019C0C8016F2D51
:10EB60000F947FFEFF2031F489E492EE60E00F9471
:10EB7000C2F10BC0F092C6008091C00086FFFCCFAE
:10EB80008091C00080648093C0000F5F1F4FC80158
:10EB900081519F41A0E0B0E0ABBFFC01F790BAE229
:10EBA000FB1621F0E2E000301E07C1F60F94DCF105
:10EBB0000F94DCF187E592EE60E00F94F5F10F948D
:10EBC000DCF1CC24DD2400E010E01EC0C8010F946D
:10EBD00077FEF82E882331F489E492EE60E00F94FA
:10EBE000C2F10BC08093C6008091C00086FFFCCFAD
:10EBF0008091C00080648093C000FE1419F00894D6
:10EC0000C11CD11C0F5F1F4FC80181519F41A0E063
:10EC1000B0E0ABBFFC01E790FAE2EF1621F022E092
:10EC20000030120799F60F94DCF10F94DCF182E6C4
:10EC300092EE60E00F94C2F1C60161E070E00F94C3
:10EC400034F20F94DCF10F94DCF110920202109276
:10EC50000302109204021092050278CE89E992EE26
:10EC600062E00F94F5F1279A2F9A16C02F9880E052
:10EC700090E0E0EDF7E03197F1F7019684369105E9
:10EC8000C1F72F9A80E090E0E0EDF7E03197F1F7DF
:10EC9000019684369105C1F78091C00087FFE6CFC9
:10ECA0008091C00087FFFCCF64C485EA92EE62E0E9
:10ECB0000F94F5F140910202509103026091040219
:10ECC0007091050281E020E10F9491F2809102029F
:10ECD00090910302A0910402B091050280509F4FD1
:10ECE000AF4FBF4F8093020290930302A0930402A0
:10ECF000B093050280509041A040B04008F426CE69
:10ED0000A4CF83EB92EE62E00F94F5F140910602FE
:10ED100050910702609108027091090280E020E1A1
:10ED20000F9491F28091060290910702A09108023F
:10ED3000B091090280509F4FAF4FBF4F80930602A2
:10ED400090930702A0930802B0930902FFCD80ECD4
:10ED500092EE62E00F94F5F183E792EE60E00F949B
:10ED6000F5F18FE792EE60E00F94F5F18BE892EE0B
:10ED700060E00F94F5F189E992EE60E00F94F5F10F
:10ED800085EA92EE60E00F94F5F183EB92EE60E09D
:10ED90000F94F5F180EC92EE60E00F94F5F187ECC2
:10EDA00092EE60E00F94F5F188ED92EE60E00F9442
:10EDB000F5F18FED92EE60E00F94F5F18AEE92EEB0
:10EDC00060E00F94F5F183E093EEBDCD87EC92EE19
:10EDD00062E00F94F5F181E40F947BF282E40F94EA
:10EDE0007BF283E40F947BF284E40F947BF285E45E
:10EDF0000F947BF286E40F947BF287E40F947BF20E
:10EE000088E40F947BF28AE40F947BF28BE40F94F6
:10EE10007BF28CE40F947BF299CD88ED92EE62E068
:10EE20000F94F5F1772473948824992409C48FED05
:10EE300092EE62E00F94F5F140910A0250910B02BC
:10EE400060910C0270910D0282E020E10F9491F22A
:10EE500080910A0290910B02A0910C02B0910D02D8
:10EE600080509F4FAF4FBF4F80930A0290930B0289
:10EE7000A0930C02B0930D0269CD8AEE92EE62E08F
:10EE80000F94F5F184EE90EE60E00F94F5F18FECC5
:10EE900091EE60E00F94F5F1662477244301CC5D98
:10EEA000DE4F19821882C452D140D401C301B695F5
:10EEB000A79597958795CA5DDE4F88839983AA8326
:10EEC000BB83C652D140CC5DDE4FA881B981C4520C
:10EED000D1401196CC5DDE4FB983A883C452D14096
:10EEE000CD0162E070E00F9434F2B0E2B093C6005E
:10EEF0008091C00086FFFCCF8091C0008064809329
:10EF0000C000EDE2E093C6008091C00086FFFCCF18
:10EF10008091C00080648093C000F0E2F093C6004E
:10EF20008091C00086FFFCCF8091C00080648093F8
:10EF3000C000CA5DDE4FE880F9800A811B81C6529D
:10EF4000D140BB27A12F902F8F2D0F940DF2CA5DBA
:10EF5000DE4F8881C652D1400F940DF2B0E2FB2EF5
:10EF6000F092C6008091C00086FFFCCF8091C00067
:10EF700080648093C0000DE30093C6008091C000C0
:10EF800086FFFCCF8091C00080648093C00010E2B7
:10EF90001093C6008091C00086FFFCCF8091C00016
:10EFA00080648093C0008BBEF3012791C65DDE4F65
:10EFB0002883CA52D140A22EBB24CC24DD2408943D
:10EFC000611C711C811C911C8BBEF3018791282E42
:10EFD0003324442455240894611C711C811C911C09
:10EFE0008BBEF3013791C55DDE4F3883CB52D140E4
:10EFF0000894611C711C811C911C8BBEF30147910C
:10F00000C45DDE4F4883CC52D140ADEFEA2EAFEF66
:10F01000FA2EAFEF0A2FAFEF1A2F6E0C7F1C801E57
:10F02000911E142D032DF22CEE24EA0CFB1C0C1D5A
:10F030001D1D0F940DF220E22093C6008091C000A8
:10F0400086FFFCCF8091C00080648093C000C65DC5
:10F05000DE4F8881CA52D1400F940DF230E23093D6
:10F06000C6008091C00086FFFCCF8091C000806404
:10F070008093C000C45DDE4F8881CC52D1400F9494
:10F080000DF240E24093C6008091C00086FFFCCFA5
:10F090008091C00080648093C000C55DDE4F888190
:10F0A000CB52D1400F940DF250E25093C6008091A4
:10F0B000C00086FFFCCF8091C00080648093C000B8
:10F0C0008FEFE8168FEFF80680E0080780E018075A
:10F0D00031F484E092EE60E00F94C2F1DFC0D80119
:10F0E000C7018070907CA070B0708050904CA040A0
:10F0F000B040D1F52FEF3FE340E050E0E222F322B1
:10F1000004231523CA5DDE4FA880B980CA80DB8046
:10F11000C652D140AE0CBF1CC01ED11EAA0CBB1CD7
:10F12000CC1CDD1C8EE092EE60E00F94C2F1BB2798
:10F13000A12F902F8F2D0F940DF28E2D0F940DF285
:10F1400030E23093C6008091C00086FFFCCF8091F2
:10F15000C00080648093C0004EE34093C60080915D
:10F16000C00086FFFCCF87C08EE09EEFA0E0B0E03D
:10F17000E822F9220A231B239CE0E91694E9F90608
:10F1800090E0090790E0190709F088C0C45DDE4FE0
:10F19000A881CC52D140EA2EFF2400E010E0102FCD
:10F1A0000F2DFE2CEE24C55DDE4FB881CB52D14031
:10F1B000EB0EF11C011D111DD601C501817090706F
:10F1C000A070B070DC0199278827E80EF91E0A1F8D
:10F1D0001B1F20EF30E040E050E0A222B322C42207
:10F1E000D52241E1AA0CBB1CCC1CDD1C4A95D1F7F1
:10F1F000EA0CFB1C0C1D1D1D81E090E0A0E0B0E0BE
:10F20000282239224A225B2235E1220C331C441C7D
:10F21000551C3A95D1F7E20CF31C041D151D57013E
:10F220006801AA0CBB1CCC1CDD1C85E192EE60E0E1
:10F230000F94C2F1C801AA27BB270F940DF2BB2778
:10F24000A12F902F8F2D0F940DF28E2D0F940DF274
:10F2500090E29093C6008091C00086FFFCCF809121
:10F26000C00080648093C000AEE3A093C60080918C
:10F27000C00086FFFCCF8091C00080648093C000F6
:10F28000C601AA27BB270F940DF2BB27AD2D9C2DDD
:10F290008B2D0F940DF28A2D0F940DF20F94DCF14B
:10F2A000CC5DDE4FE881F981C452D140F99709F471
:10F2B0004DCBF4E0EF2EF12C012D112D6E0C7F1CA7
:10F2C000801E911EF2CD83E093EE62E00F94F5F183
:10F2D0008AE192EE60E00F94C2F18091C00087FF56
:10F2E000FCCF1091C6001F751093C6008091C0001E
:10F2F00086FFFCCF8091C00080648093C0000F9493
:10F30000DCF1812F81548A3108F036C1163409F4BA
:10F3100095C0173490F4133409F44EC0143430F40B
:10F320001134F1F0123409F01DC130C0143409F465
:10F3300059C0153409F016C16BC01A3409F4C4C0A1
:10F340001B3438F4173409F48FC0183409F00AC19B
:10F35000A1C01B3409F4D2C01C3409F003C1E8C0B9
:10F360008FEF81B90DC082B1809582B980E090E0C5
:10F37000E0EDF7E03197F1F70196883C9105C1F790
:10F380008091C00087FFEFCF12B8EFC08FEF84B934
:10F390000DC085B1809585B980E090E0E0EDF7E0A3
:10F3A0003197F1F70196883C9105C1F78091C00033
:10F3B00087FFEFCF15B8D9C08FEF87B90DC088B1DF
:10F3C000809588B980E090E0E0EDF7E03197F1F7C3
:10F3D0000196883C9105C1F78091C00087FFEFCF6F
:10F3E00018B8C3C08FEF8AB90DC08BB180958BB9A7
:10F3F00080E090E0E0EDF7E03197F1F70196883C8E
:10F400009105C1F78091C00087FFEFCF1BB8ADC059
:10F410008FEF8DB90DC08EB180958EB980E090E0F0
:10F42000E0EDF7E03197F1F70196883C9105C1F7DF
:10F430008091C00087FFEFCF1EB897C08FEF80BBD1
:10F440000DC081B3809581BB80E090E0E0EDF7E0F6
:10F450003197F1F70196883C9105C1F78091C00082
:10F4600087FFEFCF11BA81C08FEF83BB0DC084B38C
:10F47000809584BB80E090E0E0EDF7E03197F1F714
:10F480000196883C9105C1F78091C00087FFEFCFBE
:10F4900014BA6BC08FEF809301010FC080910201FD
:10F4A00080958093020180E090E0E0EDF7E03197F5
:10F4B000F1F70196883C9105C1F78091C00087FF64
:10F4C000EDCF1092020151C08FEF809304010FC065
:10F4D0008091050180958093050180E090E0E0ED4A
:10F4E000F7E03197F1F70196883C9105C1F78091DB
:10F4F000C00087FFEDCF1092050137C08FEF8093DA
:10F5000007010FC08091080180958093080180E079
:10F5100090E0E0EDF7E03197F1F70196883C910536
:10F52000C1F78091C00087FFEDCF109208011DC088
:10F530008FEF80930A010FC080910B01809580931B
:10F540000B0180E090E0E0EDF7E03197F1F70196F4
:10F55000883C9105C1F78091C00087FFEDCF1092E4
:10F560000B0103C085E292EEEEC98091C00087FFD7
:10F57000FCCF8091C600EAC988E392EEE4C98CE131
:10F5800091EEE1C988249924933011F1943028F444
:10F59000913089F09230B8F408C0953061F195301F
:10F5A000F0F0963009F048C043C02B3109F042C951
:10F5B00091E06BE13FC96227C15DDE4F2883CF52E6
:10F5C000D14092E037C9B22FA0E0622793E032C960
:10F5D000822F90E0A82BB92B622794E02BC92E3004
:10F5E00009F039C3622795E0C05DDE4F19821882A9
:10F5F000C053D1401FC9E1E0F0E0EC0FFD1FC05D3A
:10F60000DE4F08811981C053D140E00FF11F2083E4
:10F610000F5F1F4FC05DDE4F19830883C053D14079
:10F6200062270A171B0709F005C9D80196E002C92D
:10F63000261709F010C303C0973009F0FBC87724E0
:10F640009981933109F412C19431C8F4963009F4C8
:10F65000D8C0973050F4923009F406C1933009F4C1
:10F660006DC0913009F059C253C0913109F477C08F
:10F67000923108F0BBC0903109F04FC2F5C098310B
:10F6800009F487C0993150F4953109F4EFC09531F0
:10F6900008F4C6C1963109F040C2C2C19A3109F4DA
:10F6A0006CC09A3108F491C09B3109F45BC09D3164
:10F6B00009F033C29D81903359F48F81882311F46E
:10F6C0009EE11CC0813011F091E018C098E916C08D
:10F6D000892F807591F0903539F4E0E0F0E089E011
:10F6E0008093570094910AC0983539F4E3E0F0E034
:10F6F00089E080935700949101C090E01A821B82A8
:10F700008D818C831D829E831F8227E030E009C299
:10F710001A8288E08B8381E48C8386E58D8382E581
:10F720008E8389E48F8383E5888780E589878FE5E9
:10F730008A8782E38B872BE030E0F3C18A818139AD
:10F7400041F0823941F0803911F48FE005C080E04A
:10F7500003C082E001C08AE01A828B8344C0772410
:10F76000739482C08D81882311F48EE12CC0813086
:10F7700011F081E028C088E926C01A82E1E0F0E0BB
:10F7800089E08093570084918B831C8224E030E0D1
:10F79000C8C18B81803589F48C81883039F4E2E0EE
:10F7A000F0E089E08093570084910DC0E0E0F0E044
:10F7B00089E080935700849106C0E3E0F0E089E09F
:10F7C0008093570084911A82DFCF8D81836C99E0FA
:10F7D000E1E0F0E0082E90935700E89507B600FCB2
:10F7E000FDCF1A821B8223E030E09BC180EC8A832C
:10F7F000CE5CDE4F188219821A821B82C253D1401E
:10F800008EC18A8190E0A0E0B0E0582F44273327D2
:10F8100022278B8190E0A0E0B0E0DC0199278827C7
:10F82000282B392B4A2B5B2B8D8190E0A0E0B0E098
:10F83000282B392B4A2B5B2B8C8190E0A0E0B0E089
:10F84000BA2FA92F982F8827282B392B4A2B5B2BCF
:10F85000220F331F441F551FC05EDE4F288339839C
:10F860004A835B83C052D1401A8259C13A81C95C34
:10F87000DE4F3883C753D140CA5CDE4F1882C6536F
:10F88000D1408B81C82EDD24CA5CDE4F488159816E
:10F89000C653D140C42AD52A933109F082C0CE5C28
:10F8A000DE4F88819981AA81BB81C253D1408050AB
:10F8B000904CA340B04030F583E0CE5CDE4FE88052
:10F8C000F9800A811B81C253D140F70100935B008C
:10F8D00080935700E89507B600FCFDCFCE5CDE4F65
:10F8E000088119812A813B81C253D14000501F4FAA
:10F8F0002F4F3F4FCE5CDE4F088319832A833B8313
:10F90000C253D140C05EDE4F488159816A817B81FC
:10F91000C052D140DE011B9631E08C9111962C91A2
:10F9200011971296C75CDE4F2883C953D140C85C3B
:10F93000DE4F1882C853D14090E0C85CDE4FE881AA
:10F94000F981C853D1408E2B9F2B0C01FA01609393
:10F950005B0030935700E89511244E5F5F4F6F4F67
:10F960007F4F0EEFE02E0FEFF02ECE0CDF1CC114F8
:10F97000D10499F685E0C05EDE4F088119812A81A5
:10F980003B81C052D140F80120935B008093570027
:10F99000E89507B600FCFDCF81E180935700E8951C
:10F9A00035C0C05EDE4F88819981AA81BB81C0527B
:10F9B000D140B695A795979587957C018601ABE0D8
:10F9C000AA2EB12CAC0EBD1E0BC0D5016D915D01F0
:10F9D000C7010F947FFE0894E11CF11C01501040F8
:10F9E0000115110591F7A60160E070E0440F551F65
:10F9F000661F771FC05EDE4FE880F9800A811B8199
:10FA0000C052D1404E0D5F1D601F711F1A82C05E33
:10FA1000DE4F488359836A837B83C052D1407FC0C5
:10FA2000FA80C55CDE4FF882CB53D140C65CDE4F16
:10FA30001882CA53D1408B81C82EDD24C65CDE4FAC
:10FA400008811981CA53D140C02AD12A1A828981DA
:10FA5000BE016D5F7F4F843121F59601C05EDE4FA0
:10FA6000E880F9800A811B81C052D1400BBFF701A9
:10FA700087919691DB018C9311969C936E5F7F4FDB
:10FA8000D801C7010296A11DB11DC05EDE4F88835B
:10FA90009983AA83BB83C052D14022503040F1F6F3
:10FAA00036C0C05EDE4F288139814A815B81C052F9
:10FAB000D1400894C108D108760100E010E0089414
:10FAC000C11CD11C0894E11CF11C011D111DE20E8A
:10FAD000F31E041F151F21BDBB27A52F942F832FB5
:10FAE00082BD2F5F3F4F4F4F5F4FF89A80B5DB01CC
:10FAF0008D93BD012E153F054007510761F7C05E8C
:10FB0000DE4F288339834A835B83C052D1409601FC
:10FB10002D5F3F4FFB01108204C080EC8A8322E0FE
:10FB200030E08BE18093C6008091C00086FFFCCF5F
:10FB30008091C00080648093C000C15DDE4FF88179
:10FB4000CF52D140F093C6008091C00086FFFCCF19
:10FB50008091C00080648093C000432F3093C60022
:10FB60008091C00086FFFCCF8091C00080648093AC
:10FB7000C000922F2093C6008091C00086FFFCCF6A
:10FB80008091C00080648093C0008EE08093C600A6
:10FB90008091C00086FFFCCF8091C000806480937C
:10FBA000C00065E1C15DDE4FE880CF52D1406E25D7
:10FBB00069276427FE01319610C090819093C6009A
:10FBC0008091C00086FFFCCF31968091C000806498
:10FBD0008093C0006927215030402115310569F715
:10FBE0006093C6008091C00086FFFCCF8091C0006A
:10FBF00080648093C00085B1805885B9772081F4F6
:10FC0000C15DDE4F0881CF52D1400F5FC15DDE4F35
:10FC10000883CF52D14090E0A0E0B0E00D941AF4F8
:10FC200027982F9880E090E020ED37E0F901319798
:10FC3000F1F7019684369105C9F700008091C00064
:10FC40008D7F8093C00081E180935700E895EE2777
:10FC5000FF270994FFCF90E00D941AF497FB092E2B
:10FC600007260AD077FD04D02ED006D000201AF443
:10FC7000709561957F4F0895F6F7909581959F4F08
:10FC80000895A1E21A2EAA1BBB1BFD010DC0AA1FDD
:10FC9000BB1FEE1FFF1FA217B307E407F50720F0F5
:10FCA000A21BB30BE40BF50B661F771F881F991F70
:10FCB0001A9469F760957095809590959B01AC01B9
:10FCC000BD01CF010895AA1BBB1B51E107C0AA1FAC
:10FCD000BB1FA617B70710F0A61BB70B881F991FED
:10FCE0005A95A9F780959095BC01CD010895F99991
:10FCF000FECF92BD81BDF89A992780B50895262F31
:10FD0000F999FECF1FBA92BD81BD20BD0FB6F89400
:0EFD1000FA9AF99A0FBE01960895F894FFCF63
:040000033000E000E9
:00000001FF
