:1000000002C1000031C100002FC100002DC100005D
:100010002BC1000029C1000027C1000025C100003C
:1000200023C1000021C100001FC100001DC100004C
:100030001BC1000019C1000017C1000015C100005C
:1000400013C1000011C100000FC100000DC100006C
:100050000BC1000009C1000007C100000C943A0A5E
:1000600003C100000C94040A0C94DA09FDC00000DE
:10007000FBC00000F9C00000F7C00000F5C00000A0
:10008000F3C00000F1C00000EFC00000EDC00000B0
:10009000EBC00000E9C00000E7C00000E5C00000C0
:1000A000E3C00000E1C00000DFC00000DDC00000D0
:1000B000DBC00000D9C00000D7C00000D5C00000E0
:1000C000D3C00000D1C00000CFC00000CDC00000F0
:1000D000CBC00000C9C00000C7C00000C5C0000000
:1000E000C3C0000000002100240027002A002D00CA
:1000F0003000330001010000040107010A01000083
:100100002200250028002B002E00310034000201BF
:100110000000050108010B0100000A0B02090C0D8B
:100120000E080703040100000000000000000000AA
:1001300000000000000000000000000000000000BF
:10014000000000001211100000000000000000007C
:10015000000000000000000000000000000000009F
:1001600020002300260029002C002F00320000016F
:10017000000003010601090105050505070508083A
:100180000808020202020A0A080804040404010121
:100190000101010101010303030303030303040736
:1001A00007070C0C0C0C0C0C0C0C020202020606CD
:1001B0000606060606060B0B0B0B0B0B0B0B0102C0
:1001C0001020200808102040102040800201020169
:1001D0000804020101020408102040808040201021
:1001E000080402018004020180402010080402017A
:1001F00008040201010204081020408001020408E2
:1002000010204080840A11241FBECFEFD1E2DEBF50
:10021000CDBF00E00CBF12E0A0E0B2E0E8E6FBE2F8
:1002200000E00BBF02C007900D92A439B107D9F7C7
:1002300024E0A4E9B2E001C01D92A537B207E1F7BE
:1002400011E0C3E0D1E000E006C021970109802F52
:10025000FE010E949913C230D10780E00807A9F778
:100260000E94040C0C94B215CBCECF92DF92EF9289
:10027000FF92CF93DF93B091C703A0E08111AB2F22
:100280008091C80390E0880F991FAC01425A5E4FDD
:10029000C090CD03D090CE03E090CF03F090D00378
:1002A00030E020E0FA01C591D491E881B90190E0F5
:1002B00080E0EB23EA130AC02F5F3F4F6C157D05EA
:1002C0008E059F0578F36FEF7FEFCB01DF91CF9124
:1002D000FF90EF90DF90CF900895AF92BF92CF92B2
:1002E000DF92EF92FF920F931F93CF93DF936C01F6
:1002F0007B018B01040F151FEB015E01AE18BF08D7
:10030000C017D10759F06991D601ED91FC91019088
:10031000F081E02DC6011995892B79F7C501DF9190
:10032000CF911F910F91FF90EF90DF90CF90BF90F2
:10033000AF900895FC0144815581608171818BEFFC
:1003400092E0CBCFFC01538D448D252F30E0842FDC
:1003500090E0821B930B541710F0CF9608950197ED
:100360000895FC01918D828D981761F0A28DAE0FDA
:10037000BF2FB11D5D968C91928D9F5F9F73928F61
:1003800090E008958FEF9FEF0895FC01918D828D8D
:10039000981731F0828DE80FF11D858D90E008955A
:1003A0008FEF9FEF0895FC01918D228D892F90E0B2
:1003B000805C9F4F821B91098F73992708958BEF63
:1003C00092E0F1DF21E0892B09F420E0822F0895EB
:1003D000FC01A48DA80FB92FB11DA35ABF4F2C91BA
:1003E000848D90E001968F739927848FA689B789B1
:1003F0002C93A089B1898C91837080648C93938DA8
:10040000848D981306C00288F389E02D80818F7D4A
:1004100080830895EF92FF920F931F93CF93DF9302
:10042000EC0181E0888F9B8D8C8D98131AC0E88930
:10043000F989808185FF15C09FB7F894EE89FF89FF
:100440006083E889F98980818370806480839FBF9D
:1004500081E090E0DF91CF911F910F91FF90EF909D
:100460000895F62E0B8D10E00F5F1F4F0F731127AD
:10047000E02E8C8D8E110BC00FB607FCFACFE889E9
:10048000F989808185FFF5CFCE01A2DFF2CFEB8D18
:10049000EC0FFD2FF11DE35AFF4FF0829FB7F89448
:1004A0000B8FEA89FB8980818062D0CFCF93DF9365
:1004B000EC01888D8823B1F0AA89BB89E889F98984
:1004C0008C9185FD03C0808186FD0CC00FB607FCB2
:1004D000F7CF8C9185FFF2CF808185FFEDCFCE01E4
:1004E00077DFEACFDF91CF91089580E090E0892B0C
:1004F00021F065DF81110E94000080E090E0892BEF
:1005000049F080E090E0892B29F00E9400008111E1
:100510000E94000080E090E0892B49F080E090E0AC
:10052000892B29F00E94000081110E94000080E0C8
:1005300090E0892B49F080E090E0892B29F00E941F
:10054000000081110C9400000895282F30E0F9017B
:10055000E85EFE4F9491F901E254FE4F4491285811
:100560003E4FF9012491222309F435C0992311F15A
:1005700091509231F8F4E92FF0E08827ED53FD4FC8
:100580008F4F0C949913F402F802D502EC02F0029A
:10059000DA02FB02010305030B030F031303190324
:1005A0001D03DA02210327032B03809180008F773C
:1005B00080938000E22FF0E0EE0FFF1FE250FF4F2C
:1005C000A591B4918FB7F894EC91611148C0409512
:1005D0004E234C938FBF0895809180008F7DE8CF8C
:1005E00080918000877FE4CF84B58F7784BDE2CF90
:1005F00084B58F7DFBCF8091B0008F778093B00062
:10060000D9CF8091B0008F7DF9CF809190008F7706
:1006100080939000CFCF809190008F7DF9CF809113
:100620009000877FF5CF8091A0008F778093A00006
:10063000C1CF8091A0008F7DF9CF8091A000877FEE
:10064000F5CF809120018F7780932001B3CF8091E7
:1006500020018F7DF9CF80912001877FF5CF4E2B30
:10066000B8CFCF93DF9390E0FC01E254FE4F24918A
:1006700088589E4FFC0184918823D1F090E0880F28
:10068000991FFC01EC51FF4FA591B491FC01E25080
:10069000FF4FC591D491623071F49FB7F8943C91AB
:1006A000822F809583238C93E8812E2B28839FBFF4
:1006B000DF91CF9108958FB7F894EC912E2B2C9366
:1006C0008FBFF6CF863308F0865320917B00982F9A
:1006D0009870277F922B90937B0087708064809323
:1006E0007C0080917A00806480937A0080917A0007
:1006F00086FDFCCF809178009091790008953FB7F6
:10070000F8948091950290919602A0919702B091F1
:10071000980226B5A89B05C02F3F19F00196A11D90
:10072000B11D3FBFBA2FA92F982F8827BC01CD013B
:10073000620F711D811D911D42E0660F771F881F9A
:10074000991F4A95D1F708958F929F92AF92BF92C9
:10075000CF92DF92EF92FF924B015C01D0DF6B01F1
:100760007C01CDDF6C197D098E099F09683E7340BD
:1007700081059105B0F321E0821A9108A108B10822
:1007800088EEC80E83E0D81EE11CF11C8114910490
:10079000A104B10431F7FF90EF90DF90CF90BF90AC
:1007A000AF909F908F900895CF92DF92EF92FF923B
:1007B0000F931F93CF93DF93CDB7DEB7C054D140D3
:1007C0000FB6F894DEBF0FBECDBF2FB7F89480915F
:1007D000F7029091F802A091F902B091FA022FBFAE
:1007E0004091C9035091CA036091CB037091CC032F
:1007F0008C019D01041B150B260B370BB901A801B9
:10080000403D57406105710590F48091D103C05C73
:10081000DE4F0FB6F894DEBF0FBECDBFDF91CF9194
:100820001F910F91FF90EF90DF90CF9008958093EC
:10083000C9039093CA03A093CB03B093CC03109247
:10084000C4031092C3031092C2031092C10310920A
:10085000C00362E08091C50304DF61E070E080E0E6
:1008600090E072DF61E08091C503FBDE60E0809183
:10087000C5036BDE8091C6038551823010F58BE293
:1008800091E10197F1F762E08091C503EADE809182
:10089000D20390E08230910538F0880F991F880FBD
:1008A000991F05970197F1F7F89480E0DEDC6F3F20
:1008B0007F4F8F4F9F4F59F41092D103789480E06F
:1008C000A6CF64E170E080E090E03EDFDCCF81E025
:1008D000CCDC6F3F7F4F8F4F9F4F71F38E010F5FC7
:1008E0001F4F6E018FEBC81A8EEFD80A780180E097
:1008F000BCDCF701608371838283938381E0B5DC84
:10090000F7016483758386839783F8E0EF0EF11C0B
:10091000EC14FD0461F7789430E020E0F801C08029
:10092000D180E280F3804481558166817781FFEF39
:10093000CF16DF06EF06FF0631F04F3F8FEF580767
:100940006807780719F41092D103B9CFF90183E051
:10095000F595E7958A95E1F7E054FC4F8081880F83
:10096000C416D506E606F70610F180832F5F3F4FC9
:10097000085F1F4F2832310589F64091C40320914A
:10098000C0038091C103280F3327331F8091C20316
:10099000280F311D8091C303820F932F911D99273A
:1009A0004817190681F681E08093D10330CF81602A
:1009B000DCCFEF92FF920F931F93CF93DF938C01C5
:1009C000EB01F12CE12C61E070E080E090E0BCDE16
:1009D0008FEFE81AF80ACE15DF05A9F79E0121501E
:1009E000310950E040E02F5F3F4F4F4F5F4FD8013C
:1009F0000E9405129E01DD0F440B550B0E94DF1172
:100A0000CA01B9010E94CC10DF91CF911F910F91C3
:100A1000FF90EF900895CF93DF93EC018C8152DE2D
:100A20008C8150DE8C814EDE6AE070E0C2DF0E9475
:100A300009137F876E87DF91CF9108951F93CF931E
:100A4000DF93EC011C81812F3DDE8C813BDE812F09
:100A500039DE64E170E0ADDF6E877F87888B998B2C
:100A600020E030E040E85AE30E942B1120E030E41F
:100A70004CE955E40E942B116A8B7B8B8C8B9D8BF0
:100A80002A853B854C855D850E943C122E813F81E5
:100A9000488559850E94A112688379838A839B8344
:100AA000DF91CF911F910895FC0101900020E9F79B
:100AB0003197AF01481B590BBC018BEF92E00DCC75
:100AC0008F929F92AF92BF920F931F93CF93DF931A
:100AD000CDB7DEB7A1970FB6F894DEBF0FBECDBF7E
:100AE00019A2423008F44AE08E010F5D1F4F842E98
:100AF000912CB12CA12CA50194010E940B12E62F80
:100B0000B901CA01EA30ECF4E05DD801EE938D0141
:100B1000232B242B252B79F790E080E0109711F000
:100B2000CD01C2DFA1960FB6F894DEBF0FBECDBFD8
:100B3000DF91CF911F910F91BF90AF909F908F90B9
:100B40000895E95CE2CFFC01808191810C943D1411
:100B5000EF92FF920F931F93CF93DF93EC017B01F2
:100B6000198218821B821A821D821C82FB0101904D
:100B70000020E9F731978F01061B170BB8016F5F53
:100B80007F4F90E080E00E94C6140097B9F09983EF
:100B900088831B830A832C813D81232B11F4FC0164
:100BA00010821D830C83B70188819981DF91CF91D9
:100BB0001F910F91FF90EF900C94AB158881998154
:100BC000009711F00E943D14198218821D821C8228
:100BD0001B821A82DF91CF911F910F91FF90EF90AE
:100BE00008954F925F926F927F928F929F92AF92F1
:100BF000BF92CF92DF92EF92FF92CF93DF9300D01C
:100C000000D01F921F92CDB7DEB79A838983DC0193
:100C10008C9158DDE981FA81808154DDA981BA8106
:100C20008C9150DD6AE070E0C4DE9B01AC01E9818B
:100C3000FA81228333834483558360E070EC8FE72D
:100C400094E40E94A11220E030E040E85FE30E94BB
:100C50003C129B01AC0160E070E48CE995E40E94D9
:100C6000A112A981BA811A962D913D914D915C9165
:100C70001D970E943D122B013C01E981FA814682B9
:100C8000578260867186C684D784E088F18822897D
:100C9000338944895589C701B6010E942B114B0144
:100CA0005C01A981BA8156968D919D910D90BC9160
:100CB000A02D89839A83AB83BC8320E030E040E899
:100CC00050ECC701B6010E942B1129813A814B815A
:100CD0005C810E942B116D837E838F839887A30193
:100CE0009201C701B6010E943C129B01AC016D81CB
:100CF0007E818F8198850E942B112B013C01A501DB
:100D00009401C501B4010E942B119B01AC01C301E8
:100D1000B2010E943D120E944213A50194010E945B
:100D20003C124B015C01A7019601C701B6010E946C
:100D30003D1229813A814B815C810E942B119B01DC
:100D4000AC01C501B4010E94A11228960FB6F89417
:100D5000DEBF0FBECDBFDF91CF91FF90EF90DF9050
:100D6000CF90BF90AF909F908F907F906F905F904B
:100D70004F9008958F929F92AF92BF92CF92DF9241
:100D8000EF92FF920F931F935B0169017A01D2DA10
:100D900088E192E089DEC501CDDA88E192E084DE67
:100DA000A7019601C701B6010E9480138823A9F00C
:100DB0008AE192E079DE88E192E076DEC801BADA73
:100DC00086E292E01F910F91FF90EF90DF90CF901D
:100DD000BF90AF909F908F9067CE46015701E894E7
:100DE000B7F82FEF3FEF4FE75FE7C501B4010E946F
:100DF000801381110DC02FEF3FEF4FE75FE7C50173
:100E0000B4010E94C61018161CF48EE192E0D2CFF5
:100E10002FEF3FEF4FE75FE4C701B6010E943A139F
:100E200018161CF482E292E0C5CF2FEF3FEF4FE798
:100E30005FECC701B6010E94C61087FDF3CF20E02A
:100E400030E0A901C701B6010E94C61087FF08C0A3
:100E50006DE28BEF92E0DEDAF7FAF094F7F8F094B7
:100E60002AE037ED43EA5BE3C701B6010E943D1279
:100E70004B015C010E940E136B017C010E94CA10A1
:100E80009B01AC01C501B4010E943C124B015C0105
:100E90004AE0C701B60114DE6EE28BEF92E0BADAE7
:100EA00020E030E040E251E4C501B4010E942B1182
:100EB0004B015C010E940E136B01F12CE12C4AE006
:100EC000C701B601FDDDC701B6010E94CA109B0132
:100ED000AC01C501B4010E943C1220E030E040E2C8
:100EE00051E40E942B110E940E1390E080E04AE032
:100EF000E7DD61CFCF92DF92EF92FF920F931F93C6
:100F0000CF93DF93CDB7DEB762970FB6F894DEBF0D
:100F10000FBECDBF62E372E0CE010D9619DEC09028
:100F2000CD02D090CE02E090CF02F090D00268E2E5
:100F300072E0CE0107960CDE6CE272E0CE01019603
:100F400007DE8E01035F1F4FA7019601BE01695F97
:100F50007F4FCE0101960EDFCE010196F4DDCE016A
:100F60000796F1DDC801EFDD62E372E0C801F0DD54
:100F7000C090C102D090C202E090C302F090C402BF
:100F800061E372E0CE010796E3DD6CE272E0CE0130
:100F90000196DEDDA7019601BE01695F7F4FCE019C
:100FA0000196E8DECE010196CEDDCE010796CBDDBF
:100FB000C801C9DD64E372E0C801CADDC090D10296
:100FC000D090D202E090D302F090D40266E372E0B7
:100FD000CE010796BDDD6CE272E0CE010196B8DD70
:100FE000A7019601BE01695F7F4FCE010196C2DE67
:100FF000CE010196A8DDCE010796A5DDC801A3DDCF
:1010000064E372E0C801A4DDC090C502D090C602BE
:10101000E090C702F090C8026AE372E0CE01079642
:1010200097DD6CE272E0CE01019692DDA701960198
:10103000BE01695F7F4FCE0101969CDECE01019615
:1010400082DDCE0107967FDDC8017DDD64E372E0BD
:10105000C8017EDDC090B902D090BA02E090BB0218
:10106000F090BC026DE372E0CE01079671DD6CE298
:1010700072E0CE0101966CDDA7019601BE01695FA9
:101080007F4FCE01019676DECE0101965CDDCE016A
:10109000079659DDC80157DD60E472E0C80158DDEC
:1010A000C090C902D090CA02E090CB02F090CC026E
:1010B00062E472E0CE0107964BDD6CE272E0CE0195
:1010C000019646DDA7019601BE01695F7F4FCE0103
:1010D000019650DECE01019636DDCE01079633DD56
:1010E000C80131DD60E472E0C80132DDC090BD02AC
:1010F000D090BE02E090BF02F090C00266E472E0C1
:10110000CE01079625DD6CE272E0CE01019620DD6E
:10111000A7019601BE01695F7F4FCE0101962ADECD
:10112000CE01019610DDCE0107960DDDC8010BDD65
:1011300069E472E0C8010CDDC090B502D090B6023F
:10114000E090B702F090B8026BE472E0CE0107962F
:10115000FFDC6CE272E0CE010196FADCA701960199
:10116000BE01695F7F4FCE01019604DECE0101967C
:10117000EADCCE010796E7DCC801E5DC6EE472E04C
:10118000C801E6DCC090EB02D090EC02E090ED02EA
:10119000F090EE0266E572E0CE010796D9DC6CE2D3
:1011A00072E0CE010196D4DCA7019601BE01695F11
:1011B0007F4FCE010196DEDDCE010196C4DCCE016B
:1011C0000796C1DCC801BFDC6EE472E0C801C0DC78
:1011D000C090E702D090E802E090E902F090EA02C5
:1011E00069E572E0CE010796B3DC6CE272E0CE01F5
:1011F0000196AEDCA7019601BE01695F7F4FCE016B
:101200000196B8DDCE0101969EDCCE0107969BDCEF
:10121000C80199DC6DE572E0C8019ADCC090E30278
:10122000D090E402E090E502F090E6026FE572E013
:10123000CE0107968DDC6CE272E0CE01019688DC6F
:10124000A7019601BE01695F7F4FCE01019692DD35
:10125000CE01019678DCCE01079675DCC80173DCFF
:1012600066E672E0C80174DCC090DF02D090E00254
:10127000E090E102F090E2026EE672E0CE010796A5
:1012800067DC6CE272E0CE01019662DCA701960198
:10129000BE01695F7F4FCE0101966CDDCE010196E4
:1012A00052DCCE0107964FDCC8014DDC66E772E0E8
:1012B000C8014EDCC090DB02D090DC02E090DD0281
:1012C000F090DE026AE772E0CE01079641DC6CE244
:1012D00072E0CE0101963CDCA7019601BE01695F78
:1012E0007F4FCE01019646DDCE0101962CDCCE016A
:1012F000079629DCC80127DC64E872E0C80128DC15
:101300006091D9027091DA02072E000C880B990BBC
:1013100043D76B017C016BE872E0CE01079618DCC5
:101320006CE272E0CE01019613DCA7019601BE01CA
:10133000695F7F4FCE0101961DDDCE01019603DC72
:10134000CE01079600DCC801FEDB6DE572E0C80146
:10135000FFDBC090B102D090B202E090B302F090F7
:10136000B40260E972E0CE010796F2DB6CE272E053
:10137000CE010196EDDBA7019601BE01695F7F4FAB
:10138000CE010196F7DCCE010196DDDBCE0107969A
:10139000DADBC801D8DB62960FB6F894DEBF0FBE69
:1013A000CDBFDF91CF911F910F91FF90EF90DF9014
:1013B000CF9008951F920F920FB60F9211240BB683
:1013C0000F922F933F934F935F936F937F938F93DE
:1013D0009F93AF93BF93EF93FF938BEF92E00E94A5
:1013E000E801FF91EF91BF91AF919F918F917F9114
:1013F0006F915F914F913F912F910F900BBE0F9086
:101400000FBE0F901F9018951F920F920FB60F925C
:1014100011240BB60F922F938F939F93EF93FF930B
:10142000E0910B03F0910C038081E0911103F091A6
:10143000120382FD1DC09081809114038F5F8F7312
:1014400020911503821741F0E0911403F0E0E5507C
:10145000FD4F958F80931403FF91EF919F918F9192
:101460002F910F900BBE0F900FBE0F901F901895ED
:101470008081F2CF1F920F920FB60F9211242F93FB
:101480003F938F939F93AF93BF938091F702909177
:10149000F802A091F902B091FA023091940223E08F
:1014A000230F2D3758F50196A11DB11D20939402ED
:1014B0008093F7029093F802A093F902B093FA0296
:1014C0008091950290919602A0919702B091980216
:1014D0000196A11DB11D8093950290939602A09351
:1014E0009702B0939802BF91AF919F918F913F91D6
:1014F0002F910F900FBE0F901F90189526E8230F85
:101500000296A11DB11DD2CF8F929F92AF92BF9232
:10151000CF92DF92EF92FF920F931F93CF93DF93BF
:10152000EBEFF2E01382128288EE93E0A0E0B0E0ED
:1015300084839583A683B7838AE092E09183808336
:1015400085EC90E09587848784EC90E09787868788
:1015500080EC90E0918B808B81EC90E0938B828B80
:1015600082EC90E0958B848B86EC90E0978B868B59
:10157000118E128E138E148EE1E6F4E01786168615
:1015800086E390E09583848380E090EFA2E5B8E461
:1015900086839783A087B18780E092EEA1E8B7E4C5
:1015A00082879387A487B587E1E5F4E017861686DE
:1015B00087E390E09583848380E09AEEA3E5B8E426
:1015C00086839783A087B18780E09AE1A1E8B7E49A
:1015D00082879387A487B587EBE3F4E010821182BA
:1015E0001282138240E050E46CE175E44287538735
:1015F0006487758716861786108A118A128A138A5D
:10160000148A158A8AE090E09583848380E090E0D4
:10161000A8ECB2E486839783A087B187E5E2F4E083
:1016200010821182128213824287538764877587E2
:1016300016861786108A118A128A138A148A158AC6
:101640002BE030E03583248386839783A087B1879E
:10165000EFE0F4E0108211821282138242875387F6
:101660006487758716861786108A118A128A138AEC
:10167000148A158A2CE030E035832483868397838F
:10168000A087B187E1EFF3E0C12CD12C8AE7E82EE7
:1016900084E4F82EC686D786E08AF18A02E311E157
:1016A00020E83BE3028B138B248B358B4FE755E00F
:1016B0006BE175EB468B578B608F718F85E698EFEA
:1016C000A7E3BEEA828F938FA48FB58FC9E3D0E0E2
:1016D000D183C083C1EE8C2ECAE79C2EC6EAAC2E05
:1016E000C1E4BC2E82869386A486B586E3EDF3E042
:1016F000C686D786E08AF18A028B138B248B358BC2
:10170000468B578B608F718F828F938FA48FB58F8D
:101710008AE390E09183808380E090E0A0EEB1E4E2
:1017200082879387A487B587A0ECB3E08CE31596F6
:101730008C9315978BE016968C931697EAEFF1E051
:10174000E4911796EC931797E4EBF1E0E491189687
:10175000EC93189740E85EE360E070E01D964D93CF
:101760005D936D937C935097E2EAF3E012821382CB
:101770001482158216821782108611868DEC9CECDD
:10178000ACECBEE382879387A487B587168617865D
:10179000108A118A80E090E0A0E0B0E4828B938B05
:1017A000A48BB58B80E090E0A0E0B2E4868B978BB1
:1017B000A08FB18F128E138E148E158E8EE090E056
:1017C00091838083E8E9F3E0158214821782168200
:1017D0008FEF93E09187808780E390E0918380830F
:1017E0008FE090E09383828361E080E3DF91CF918B
:1017F0001F910F91FF90EF90DF90CF90BF90AF902F
:101800009F908F900C943103CF93DF93CDB7DEB7C9
:101810002C970FB6F894DEBF0FBECDBF789484B579
:10182000826084BD84B5816084BD85B5826085BDDC
:1018300085B5816085BD80916E00816080936E006A
:10184000109281008091810082608093810080915C
:10185000810081608093810080918000816080930D
:1018600080008091B10084608093B1008091B000CD
:1018700081608093B000809191008260809391009C
:1018800080919100816080939100809190008160AF
:10189000809390008091A10082608093A10080914C
:1018A000A10081608093A1008091A000816080935D
:1018B000A00080912101826080932101809121010B
:1018C00081608093210180912001816080932001BB
:1018D00080917A00846080937A0080917A0082609F
:1018E00080937A0080917A00816080937A00809161
:1018F0007A00806880937A001092C100E0910B0317
:10190000F0910C0382E08083E0910703F0910803DB
:101910001082E0910903F0910A0380E18083109224
:101920001303E0910F03F091100386E08083E091B0
:101930000D03F0910E03808180618083E0910D039F
:10194000F0910E03808188608083E0910D03F09117
:101950000E03808180688083E0910D03F0910E0377
:1019600080818F7D808362E08091C5030E94310376
:101970002FB7F8948091F7029091F802A091F902A4
:10198000B091FA022FBF805D9740A109B109809301
:10199000C9039093CA03A093CB03B093CC0387E30E
:1019A0008093D20364E670E080E090E00E94A4039C
:1019B0008FB7F8944090F7025090F8026090F902C7
:1019C0007090FA028FBF8091D5029091D602A091BB
:1019D000D702B091D802A3019201281B390B4A0B00
:1019E0005B0BDA01C901883B9B40A105B10508F4F6
:1019F00044C1C0909902D0909A02E0909B02F0906E
:101A00009C02A70196016091AD027091AE02809197
:101A1000AF029091B00295D569837A838B839C83C2
:101A20006093CD027093CE028093CF029093D00248
:101A3000A70196016091A9027091AA028091AB0260
:101A40009091AC027ED54B015C018092C1029092D4
:101A5000C202A092C302B092C402A7019601609193
:101A6000A5027091A6028091A7029091A80269D563
:101A70006D837E838F8398876093D1027093D202A7
:101A80008093D3029093D402A70196016091A102A2
:101A90007091A2028091A3029091A40252D569870D
:101AA0007A878B879C876093C5027093C602809368
:101AB000C7029093C802A701960160919D027091A0
:101AC0009E0280919F029091A0023BD56B017C0108
:101AD000C092B902D092BA02E092BB02F092BC026C
:101AE0001092AD021092AE021092AF021092B002AC
:101AF0001092A9021092AA021092AB021092AC02AC
:101B00001092A5021092A6021092A7021092A802AB
:101B10001092A1021092A2021092A3021092A402AB
:101B200010929D0210929E0210929F021092A002AB
:101B30001092990210929A0210929B0210929C02AB
:101B40002D813E814F81588569817A818B819C816D
:101B500082D36093C9027093CA028093CB029093A0
:101B6000CC0229853A854B855C85C501B40173D3C8
:101B70006093BD027093BE028093BF029093C00237
:101B800020E030E040EA50E4C701B60164D360933E
:101B9000B5027093B6028093B7029093B8022AE917
:101BA00039E949E151E4C501B40166D420E030E0EF
:101BB00040E450E4C6D420E030E048EC52E44BD39B
:101BC0006B017C0120E030E0A901E0D287FF03C077
:101BD000C12CD12C7601C092B102D092B202E09217
:101BE000B302F092B4024092D5025092D6026092B3
:101BF000D7027092D8028091EF029091F002A091EA
:101C0000F102B091F202A3019201281B390B4A0B99
:101C10005B0BDA01C901803D9740A105B10508F4CD
:101C200050C281EF93E00E94F1056093EB02709344
:101C3000EC028093ED029093EE0283ED93E00E941C
:101C4000F1056093E7027093E8028093E9029093B4
:101C5000EA020E94D403882359F08091C6038B3096
:101C600038F08D3008F4FCC08551823008F429C169
:101C700060E070E080EC9FE70BC181E694E00E9499
:101C80000B05C0906B04D0906C04E0906D04F09054
:101C90006E0460916F0470917004072E000C880B25
:101CA000990B7AD22AE038E240EA5BE3D4D24B01C6
:101CB0005C0120916704309168044091690450915F
:101CC0006A04C701B601D9D39B01AC01C701B601B3
:101CD00038D49B01AC01C501B40133D49B01AC01E4
:101CE000209361043093620440936304509364042E
:101CF0006091AD027091AE028091AF029091B002FE
:101D0000BCD36093AD027093AE028093AF02909308
:101D1000B00281E594E00E940B05C0905B04D09076
:101D20005C04E0905D04F0905E0460915F0470914B
:101D30006004072E000C880B990B2ED22AE038E2A3
:101D400040EA5BE388D24B015C012091570430915B
:101D500058044091590450915A04C701B6018DD3DB
:101D60009B01AC01C701B601ECD39B01AC01C501DD
:101D7000B401E7D39B01AC0120935104309352048A
:101D800040935304509354046091A9027091AA02A5
:101D90008091AB029091AC0270D36093A9027093D2
:101DA000AA028093AB029093AC028BE394E00E9472
:101DB0001E059B01AC016091A5027091A602809165
:101DC000A7029091A80259D36093A5027093A6022E
:101DD0008093A7029093A80285E294E00E941E05DA
:101DE0009B01AC016091A1027091A2028091A302BB
:101DF0009091A40242D36093A1027093A2028093B7
:101E0000A3029093A4028FE094E00E941E059B0120
:101E1000AC0160919D0270919E0280919F02909111
:101E2000A0022BD360939D0270939E0280939F0229
:101E30009093A00220E030E040E85FE360919902D7
:101E400070919A0280919B0290919C0216D36093AC
:101E5000990270939A0280939B0290939C02CBCE3E
:101E60006091C10370E090E080E096D12DEC3CECF5
:101E70004CEC5DE3F0D16B017C016091C00370E03C
:101E800090E080E089D19B01AC01C701B601F5D299
:101E90006093E3027093E4028093E5029093E6027C
:101EA0000E94D403882341F08091C6038C3009F44A
:101EB0002AC1B8F48B3071F160E070E080EC9FE7EC
:101EC0004EC06091C0037091C103762767277627C3
:101ED00090E080E05FD12DEC3CEC4CEC5DE3BBD1BD
:101EE000D7CF8551823040F7F090C2036F2D70E05C
:101EF000762F662766277F778091C303682B90E053
:101F000080E048D12DEC3CEC4CEC5DE3A4D1F7FE35
:101F100026C015C16091C20370E090E080E03AD124
:101F20006B017C014091C303498347FF09C0AC01A9
:101F30009B0160E070E080E89FEB9ED26B017C012A
:101F400059815F70652F70E090E080E025D12DEC25
:101F50003CEC4CEC5DE37FD1A70196018ED26093FF
:101F6000DF027093E0028093E1029093E20280919D
:101F7000A2030E9462038091A2030E9462038091E7
:101F8000A2030E9462036AE070E00E94D904609399
:101F9000A4037093A5038093A6039093A7032AE05C
:101FA00038E240EA5BE357D14B015C018092A80321
:101FB0009092A903A092AA03B092AB03C090AC0385
:101FC000D090AD03E090AE03F090AF03A70196016F
:101FD000DDD018160CF4B5C01092BC031092BD03EE
:101FE0001092BE031092BF038091BC039091BD0379
:101FF000A091BE03B091BF038093DB029093DC02FB
:10200000A093DD02B093DE0261E0809198030E940C
:10201000A5026AE070E080E090E00E94A403809155
:10202000A0039091A1039C01990F440B550B2983A8
:102030003A834B835C83C0909E03D0909F030D2C0A
:10204000000CEE08FF0880919A030E9462038091C1
:102050009A030E94620380919A030E9462036AE0DD
:1020600070E00E94D9044B015C0160E0809198030C
:102070000E94A502C501B401CCD29B01770F440B8D
:10208000550B2C193D094E095F09A1E0BCEFBFD1EA
:1020900029813A814B815C812C193D094E095F09E8
:1020A0008ED121503C4F4F4F5F4F3093DA02209337
:1020B000D9024092EF025092F0026092F1027092C7
:1020C000F2028091F3029091F402A091F502B09196
:1020D000F602A3019201281B390B4A0B5B0BDA01B4
:1020E000C901803D9740A105B10550F00E947A07D3
:1020F0004092F3025092F4026092F5027092F6025E
:102100000E94750255CC8091C2038983682F70E0CC
:1021100090E080E03FD06B017C016091C3036F7061
:1021200070E090E080E038D02DEC3CEC4CEC5DE3CE
:1021300092D0A7019601A1D1A981A7FF10CF9058F5
:102140000ECFA7019601C501B40196D14B015C01E8
:10215000A70196016091B4037091B5038091B60315
:102160009091B70389D19B01AC01C501B401E9D1BC
:1021700020E030E040E052E46ED06093BC03709306
:10218000BD038093BE039093BF032ECF40D008F4CD
:1021900081E00895E89409C097FB3EF490958095FE
:1021A000709561957F4F8F4F9F4F9923A9F0F92F1D
:1021B00096E9BB279395F695879577956795B7959B
:1021C000F111F8CFFAF4BB0F11F460FF1BC06F5F81
:1021D0007F4F8F4F9F4F16C0882311F096E911C093
:1021E000772321F09EE8872F762F05C0662371F0B4
:1021F00096E8862F70E060E02AF09A95660F771FC8
:10220000881FDAF7880F9695879597F90895990FA3
:102210000008550FAA0BE0E8FEEF16161706E807B0
:10222000F907C0F012161306E407F50798F0621BD1
:10223000730B840B950B39F40A2661F0232B242BA6
:10224000252B21F408950A2609F4A140A6958FEFC5
:10225000811D811D08950BD078C069D028F06ED003
:1022600018F0952309F05AC05FC01124A2C07ED097
:10227000A0F3959FD1F3950F50E0551F629FF00199
:10228000729FBB27F00DB11D639FAA27F00DB11DF2
:10229000AA1F649F6627B00DA11D661F829F22277B
:1022A000B00DA11D621F739FB00DA11D621F839F02
:1022B000A00D611D221F749F3327A00D611D231FD8
:1022C000849F600D211D822F762F6A2F11249F5726
:1022D00050408AF0E1F088234AF0EE0FFF1FBB1F49
:1022E000661F771F881F91505040A9F79E3F5105E8
:1022F00070F014C05EC05F3FECF3983EDCF386954F
:1023000077956795B795F795E7959F5FC1F7FE2B92
:10231000880F911D9695879597F9089597F99F676E
:1023200080E870E060E008959FEF80EC089500245D
:102330000A941616170618060906089500240A942A
:1023400012161306140605060895092E0394000CB0
:1023500011F4882352F0BB0F40F4BF2B11F460FF3F
:1023600004C06F5F7F4F8F4F9F4F089557FD905868
:10237000440F551F59F05F3F71F04795880F97FB49
:10238000991F61F09F3F79F0879508951216130603
:102390001406551FF2CF4695F1DF08C01616170632
:1023A0001806991FF1CF8695710561050894089567
:1023B000E894BB2766277727CB0197F90895052E68
:1023C00097FB16F400940FD057FD05D024D007FCDE
:1023D00002D046F408C050954095309521953F4F66
:1023E0004F4F5F4F089590958095709561957F4F01
:1023F0008F4F9F4F089531D0A59F900DB49F900DA2
:10240000A49F800D911D11240895B7FFF4CFF3DF31
:10241000821B930B0895A1E21A2EAA1BBB1BFD0180
:102420000DC0AA1FBB1FEE1FFF1FA217B307E407B3
:10243000F50720F0A21BB30BE40BF50B661F771F0B
:10244000881F991F1A9469F76095709580959095EB
:102450009B01AC01BD01CF010895A29FB001B39FC4
:10246000C001A39F700D811D1124911DB29F700D9D
:10247000811D1124911D08955058BB27AA270ED005
:1024800064CF55DF30F05ADF20F031F49F3F11F474
:102490001EF44ACF0EF4E095E7FB40CFE92F66DF4C
:1024A00080F3BA17620773078407950718F071F471
:1024B0009EF57ECF0EF4E0950B2EBA2FA02D0B01CA
:1024C000B90190010C01CA01A0011124FF27591B79
:1024D00099F0593F50F4503E68F11A16F040A22F7F
:1024E000232F342F4427585FF3CF469537952795F0
:1024F000A795F0405395C9F77EF41F16BA0B620BEF
:10250000730B840BBAF09150A1F0FF0FBB1F661F35
:10251000771F881FC2F70EC0BA0F621F731F841F78
:1025200048F4879577956795B795F7959E3F08F09E
:10253000B3CF9395880F08F09927EE0F979587955D
:1025400008950CD002CFFADE40F0F1DE30F021F435
:102550005F3F19F0E3CE51112CCFE6CE07DF98F3A1
:102560009923C9F35523B1F3951B550BBB27AA2714
:1025700062177307840738F09F5F5F4F220F331F86
:10258000441FAA1FA9F333D00E2E3AF0E0E830D052
:1025900091505040E695001CCAF729D0FE2F27D055
:1025A000660F771F881FBB1F261737074807AB0723
:1025B000B0E809F0BB0B802DBF01FF2793585F4F98
:1025C0002AF09E3F510568F0A9CEF3CE5F3FECF3B1
:1025D000983EDCF3869577956795B795F7959F5F5D
:1025E000C9F7880F911D9695879597F90895E1E0B1
:1025F000660F771F881FBB1F621773078407BA0710
:1026000020F0621B730B840BBA0BEE1F88F7E0956A
:10261000089504D06894B111CCCE0895AFDE88F04F
:102620009F5790F0B92F9927B751A0F0D1F0660FBE
:10263000771F881F991F1AF0BA95C9F712C0B130D9
:1026400081F0B6DEB1E00895B3CE672F782F8827EA
:10265000B85F39F0B93FCCF3869577956795B39518
:10266000D9F73EF490958095709561957F4F8F4F87
:102670009F4F0895CCDD08F48FEF089511F40EF408
:1026800053CE42C07BDED0F39923D9F3CEF39F57CC
:10269000550B87FF47D00024A0E640EA9001805800
:1026A0005695979528F4805C660F771F881F20F059
:1026B00026173707480730F4621B730B840B202959
:1026C00031294A2BA69517940794202531254A27AE
:1026D00058F7660F771F881F20F02617370748071F
:1026E00030F4620B730B840B200D311D411DA0953E
:1026F00081F7B901842F9158880F96958795089591
:1027000086DD880B990B08959F3F31F0915020F49E
:10271000879577956795B795880F911D96958795BD
:1027200097F9089591505040660F771F881FD2F790
:102730000895EE0FFF1F881F8BBF0790F691E02DC5
:1027400019940F931F93CF93DF938230910510F468
:1027500082E090E0E0917304F091740430E020E0B6
:10276000B0E0A0E0309799F42115310509F44AC092
:10277000281B390B24303105D8F58A819B816115DE
:10278000710589F1FB0193838283FE0111C04081B1
:1027900051810281138148175907E0F04817590702
:1027A00099F4109761F012960C93129713961C935C
:1027B0003296CF01DF91CF911F910F910895009331
:1027C000730410937404F4CF2115310551F04217AE
:1027D000530738F0A901DB019A01BD01DF01F801BF
:1027E000C1CFEF01F9CF9093740480937304CDCFE0
:1027F000FE01E20FF31F8193919322503109398337
:102800002883D7CF2091710430917204232B41F497
:1028100020910202309103023093720420937104DC
:1028200020910002309101022115310541F42DB7AC
:102830003EB74091040250910502241B350BE091F4
:102840007104F0917204E217F307A0F42E1B3F0B02
:102850002817390778F0AC014E5F5F4F2417350712
:1028600048F04E0F5F1F50937204409371048193A0
:1028700091939FCFF0E0E0E09CCFCF93DF93009760
:10288000E9F0FC01329713821282A0917304B09197
:102890007404ED0130E020E01097A1F42081318133
:1028A000820F931F20917104309172042817390709
:1028B00009F061C0F0937204E0937104DF91CF914D
:1028C0000895EA01CE17DF07E8F54A815B819E0192
:1028D00041155105B1F7E901FB83EA83499159910B
:1028E000C40FD51FEC17FD0761F48081918102961A
:1028F000840F951FE90199838883828193819B834B
:102900008A83F0E0E0E012968D919C9113970097F6
:10291000B9F52D913C911197CD010296820F931F2D
:1029200020917104309172042817390739F63097D5
:1029300051F51092740410927304B0937204A09332
:102940007104BCCFD383C28340815181840F951F12
:10295000C817D90761F44E5F5F4F88819981480F8E
:10296000591F518340838A819B81938382832115E0
:10297000310509F0B0CFF0937404E09373049ECF57
:10298000FD01DC01C0CF13821282D7CF4F925F923C
:102990006F927F928F929F92AF92BF92CF92DF926F
:1029A000EF92FF920F931F93CF93DF938C010097C9
:1029B00091F4CB01DF91CF911F910F91FF90EF9098
:1029C000DF90CF90BF90AF909F908F907F906F904F
:1029D0005F904F90B6CEFC01E60FF71F9C0122508E
:1029E0003109E217F30708F4AAC0D901CD91DC91AF
:1029F0001197C617D70718F1C530D10570F0CE0171
:102A000004978617970748F0C61BD70B2297C193E8
:102A1000D1936D937C93CF0130DFC801DF91CF91CB
:102A20001F910F91FF90EF90DF90CF90BF90AF90EC
:102A30009F908F907F906F905F904F9008955B0173
:102A4000AC1ABD0A4C018C0E9D1EA0917304B0916E
:102A50007404512C412CF12CE12C109731F580910C
:102A60007104909172048815990509F05CC04616AE
:102A7000570608F058C0809100029091010200971B
:102A800041F48DB79EB74091040250910502841B1A
:102A9000950BE817F90708F052C0F0937204E09321
:102AA0007104F90171836083B8CF8D919C91119766
:102AB00012966C90129713967C901397A815B905EF
:102AC00059F56C0142E0C40ED11CCA14DB0420F19C
:102AD000AC014A195B09DA011296159780F06282FF
:102AE000738251834083D9016D937C93E114F10487
:102AF00071F0D7011396FC93EE9312978ECF229626
:102B00008C0F9D1FF90191838083F301EFCFF09328
:102B10007404E093730481CF4816590608F42C011D
:102B20007D01D3019ACFCB010CDE7C01009739F0F7
:102B3000AE01B80107D0C801A0DE87016ECF10E05A
:102B400000E06BCFFB01DC0102C001900D9241500F
:102B50005040D8F70895FB01DC0101900D92002050
:082B6000E1F70895F894FFCF9E
:102B6800000075048000000000000A026D01A20147
:102B78005602D301B101C5012C006E616E00696E69
:102B880066006F7666000A0053505600526F6F66F3
:102B9800004256004100535043004243004C43005A
:102BA80057005350450042450077004C4500636587
:102BB8006C63697573004254005350540025004FEC
:102BC800555448554D0063656C63756973004F55DE
:102BD8005454454D50006D2F730077696E647370BF
:102BE80065656400302D31303233005241494E0062
:042BF800536F4300D4
:00000001FF
