:1000000002C1000030C100002EC100002CC1000060
:100010002AC1000028C1000026C1000024C1000040
:1000200022C1000020C100001EC100001CC1000050
:100030001AC1000018C1000016C1000014C1000060
:1000400012C1000010C100000EC100000CC1000070
:100050000AC1000008C1000006C10000FAC6000085
:1000600002C10000C0C6000095C60000FCC0000030
:10007000FAC00000F8C00000F6C00000F4C00000A4
:10008000F2C00000F0C00000EEC00000ECC00000B4
:10009000EAC00000E8C00000E6C00000E4C00000C4
:1000A000E2C00000E0C00000DEC00000DCC00000D4
:1000B000DAC00000D8C00000D6C00000D4C00000E4
:1000C000D2C00000D0C00000CEC00000CCC00000F4
:1000D000CAC00000C8C00000C6C00000C4C0000004
:1000E000C2C0000000002100240027002A002D00CB
:1000F0003000330001010000040107010A01000083
:100100002200250028002B002E00310034000201BF
:100110000000050108010B0100000A0B02090C0D8B
:100120000E080703040100000000000000000000AA
:1001300000000000000000000000000000000000BF
:10014000000000001211100000000000000000007C
:10015000000000000000000000000000000000009F
:1001600020002300260029002C002F00320000016F
:10017000000003010601090105050505070508083A
:100180000808020202020A0A080804040404010121
:100190000101010101010303030303030303040736
:1001A00007070C0C0C0C0C0C0C0C020202020606CD
:1001B0000606060606060B0B0B0B0B0B0B0B0102C0
:1001C0001020200808102040102040800201020169
:1001D0000804020101020408102040808040201021
:1001E000080402018004020180402010080402017A
:1001F00008040201010204081020408001020408E2
:1002000010204080730711241FBECFEFD1E2DEBF64
:10021000CDBF00E00CBF12E0A0E0B2E0E2E4FEE1FE
:1002200000E00BBF02C007900D92A638B107D9F7C6
:1002300024E0A6E8B2E001C01D92A330B207E1F7C6
:1002400011E0C3E0D1E000E006C021970109802F52
:10025000FE010E94170FC230D10780E00807A9F7FE
:10026000AFD70C941F0FCCCECF92DF92EF92FF92BC
:10027000CF93DF93B0915103A0E08111AB2F809118
:10028000520390E0880F991FAC01425A5E4FC09014
:100290005703D0905803E0905903F0905A0330E090
:1002A00020E0FA01C591D491E881B90190E080E0A5
:1002B000EB23EA130AC02F5F3F4F6C157D058E05B7
:1002C0009F0578F36FEF7FEFCB01DF91CF91FF9028
:1002D000EF90DF90CF900895AF92BF92CF92DF92D0
:1002E000EF92FF920F931F93CF93DF936C017B01EB
:1002F0008B01040F151FEB015E01AE18BF08C0177C
:10030000D10759F06991D601ED91FC910190F081EE
:10031000E02DC6011995892B79F7C501DF91CF91A1
:100320001F910F91FF90EF90DF90CF90BF90AF9013
:100330000895FC01538D448D252F30E0842F90E0EB
:10034000821B930B541710F0CF96089501970895D0
:10035000FC01918D828D981761F0A28DAE0FBF2F99
:10036000B11D5D968C91928D9F5F9F73928F90E0EF
:1003700008958FEF9FEF0895FC01918D828D98175E
:1003800031F0828DE80FF11D858D90E008958FEF9B
:100390009FEF0895FC01918D228D892F90E0805C64
:1003A0009F4F821B91098F73992708958FE892E0E0
:1003B000F1DF21E0892B09F420E0822F0895FC0170
:1003C000A48DA80FB92FB11DA35ABF4F2C91848DB6
:1003D00090E001968F739927848FA689B7892C9313
:1003E000A089B1898C91837080648C93938D848D66
:1003F000981306C00288F389E02D80818F7D808369
:100400000895EF92FF920F931F93CF93DF93EC0128
:1004100081E0888F9B8D8C8D98131AC0E889F989AB
:10042000808185FF15C09FB7F894EE89FF896083AE
:10043000E889F98980818370806480839FBF81E02F
:1004400090E0DF91CF911F910F91FF90EF90089571
:10045000F62E0B8D10E00F5F1F4F0F731127E02E4C
:100460008C8D8E110BC00FB607FCFACFE889F98985
:10047000808185FFF5CFCE01A2DFF2CFEB8DEC0FAF
:10048000FD2FF11DE35AFF4FF0829FB7F8940B8FB9
:10049000EA89FB8980818062D0CFCF93DF93EC0122
:1004A000888D8823B1F0AA89BB89E889F9898C9164
:1004B00085FD03C0808186FD0CC00FB607FCF7CF19
:1004C0008C9185FFF2CF808185FFEDCFCE0177DF64
:1004D000EACFDF91CF91089580E090E0892B21F061
:1004E00065DF81110E94000080E090E0892B49F0D7
:1004F00080E090E0892B29F00E94000081110E9489
:10050000000080E090E0892B49F080E090E0892BAA
:1005100029F00E94000081110E94000080E090E01C
:10052000892B49F080E090E0892B29F00E9400009F
:1005300081110C9400000895CF93DF9390E0FC01AB
:10054000E254FE4F249188589E4FFC0184918823E9
:10055000C9F090E0880F991FFC01EC51FF4FA59165
:10056000B491FC01E250FF4FC591D49161110DC0CF
:100570009FB7F8948C91209582238C9388812823AF
:1005800028839FBFDF91CF910895623051F49FB7C8
:10059000F8943C91822F809583238C93E8812E2BB5
:1005A000EFCF8FB7F894EC912E2B2C938FBFEACF1F
:1005B000863308F0865320917B00982F9870277F10
:1005C000922B90937B008770806480937C00809155
:1005D0007A00806480937A0080917A0086FDFCCF57
:1005E000809178009091790008953FB7F8948091B8
:1005F000870290918802A0918902B0918A0226B563
:10060000A89B05C02F3F19F00196A11DB11D3FBF4A
:10061000BA2FA92F982F8827BC01CD01620F711D19
:10062000811D911D42E0660F771F881F991F4A9513
:10063000D1F708958F929F92AF92BF92CF92DF929F
:10064000EF92FF926B017C01D0DF4B015C01C11482
:10065000D104E104F104B1F0C8DF681979098A090D
:100660009B09683E73408105910588F321E0C21A19
:10067000D108E108F10888EE880E83E0981EA11CDD
:10068000B11CE5CFFF90EF90DF90CF90BF90AF907F
:100690009F908F9008958F929F92AF92BF92EF920A
:1006A000FF920F931F93CF93DF93CDB7DEB7C05464
:1006B000D1400FB6F894DEBF0FBECDBF2FB7F89470
:1006C00080918B0290918C02A0918D02B0918E024C
:1006D0002FBF409153035091540360915503709183
:1006E00056038C019D01041B150B260B370BB9011A
:1006F000A801403D574061057105A0F480915B035E
:10070000C05CDE4F0FB6F894DEBF0FBECDBFDF91E9
:10071000CF911F910F91FF90EF90BF90AF909F905E
:100720008F9008958093530390935403A09355039F
:10073000B093560310924E0310924D0310924C0347
:1007400010924B0310924A0362E080914F03F4DE53
:1007500061E070E080E090E06DDF61E080914F0348
:10076000EBDE20914F0330E0F901E85EFE4F84910B
:10077000F901E254FE4F949128583E4FF90124911B
:10078000222309F433C0882311F181508231F8F417
:10079000E82FF0E08827E053FC4F8F4F0C94170FA1
:1007A00027042B04E2031F042304E7032E0434046C
:1007B00038043E04420446044C045004E703540445
:1007C0005A045E04809180008F7780938000E22F2E
:1007D000F0E0EE0FFF1FE250FF4FA591B4918FB7ED
:1007E000F894EC9190959E239C938FBF8091500339
:1007F0008551823008F066C08BE291E10197F1F7F4
:1008000062E080914F0398DE80915C0390E082303B
:10081000910538F0880F991F880F991F0597019748
:10082000F1F7F89480E020DD6F3F7F4F8F4F9F4FAF
:1008300009F04EC010925B03789480E061CF809104
:1008400080008F7DC2CF80918000877FBECF84B52E
:100850008F7784BDBCCF84B58F7DFBCF8091B000F6
:100860008F778093B000B3CF8091B0008F7DF9CFA8
:10087000809190008F7780939000A9CF8091900015
:100880008F7DF9CF80919000877FF5CF8091A00078
:100890008F778093A0009BCF8091A0008F7DF9CFB0
:1008A0008091A000877FF5CF809120018F77809382
:1008B00020018DCF809120018F7DF9CF8091200183
:1008C000877FF5CF64E170E080E090E0B3DE98CF01
:1008D00081E0CADC6F3F7F4F8F4F9F4F09F4AACF53
:1008E0009E012F5F3F4F79015E013FEBA31A3EEF60
:1008F000B30A870180E0B8DCF801608371838283EA
:10090000938381E0B1DCF8016483758386839783E8
:10091000085F1F4FA016B10669F7789430E020E019
:10092000F70180809180A280B380448155816681E7
:100930007781FFEF8F169F06AF06BF0631F04F3F5E
:100940000FEF50076007700719F410925B0375CF23
:10095000F90183E0F595E7958A95E1F7E65BFC4FB1
:100960008081880F84169506A606B70618F1808345
:100970002F5F3F4F18E0E10EF11C2832310581F660
:1009800040914E0320914A0380914B03280F332757
:10099000331F80914C03280F311D80914D03820F2E
:1009A000932F911D99274817190679F681E08093B6
:1009B0005B03A6CE8160DBCFCF93DF93EC018C810C
:1009C000F7DDBC01990F880B990B0E94A50D6E876E
:1009D0007F87888B998B20E030E040E85AE30E94C3
:1009E000590E20E030E44CE955E40E94590E6A8B20
:1009F0007B8B8C8B9D8B2A853B854C855D85A6D713
:100A00002E813F81488559850E940F0D6883798327
:100A10008A839B83DF91CF910895FC010190002090
:100A2000E9F73197AF01481B590BBC018FE892E001
:100A300053CC8F929F92AF92BF920F931F93CF93FD
:100A4000DF93CDB7DEB7A1970FB6F894DEBF0FBE28
:100A5000CDBF19A2423008F44AE08E010F5D1F4F4E
:100A6000842E912CB12CA12CA50194013ED7E62F08
:100A7000B901CA01EA30ECF4E05DD801EE938D01D2
:100A8000232B242B252B81F790E080E0109711F089
:100A9000CD01C3DFA1960FB6F894DEBF0FBECDBF68
:100AA000DF91CF911F910F91BF90AF909F908F904A
:100AB0000895E95CE2CFB1CF8F929F92AF92BF923F
:100AC000CF92DF92EF92FF92CF93DF935C016A01A6
:100AD0007B01E90182E192E0EEDF87E192E0EBDF6A
:100AE000C501E9DF87E192E0E6DFA7019601C701D2
:100AF000B6010E94FE0E8823A9F089E192E08DDF05
:100B000087E192E0D8DFCE01D6DF86E292E0DF9186
:100B1000CF91FF90EF90DF90CF90BF90AF909F90DC
:100B20008F90C9CF46015701E894B7F82FEF3FEFF8
:100B30004FE75FE7C501B4010E94FE0E81110CC0B2
:100B40002FEF3FEF4FE75FE7C501B40164D71816F9
:100B50001CF48DE192E0D3CF2FEF3FEF4FE75FE43E
:100B6000C701B6010E94550E18161CF481E292E0EE
:100B7000C6CF2FEF3FEF4FE75FECC701B6014BD772
:100B800087FDF4CF20E030E0A901C701B60143D7CB
:100B900087FF08C06DE28FE892E033DCF7FAF0944B
:100BA000F7F8F0942AE037ED43EA5BE3C701B601BA
:100BB000CED64B015C019BD76B017C01C4D79B0156
:100BC000AC01C501B401C2D64B015C014AE0C701CA
:100BD000B6012FDF6EE28FE892E013DC20E030E018
:100BE00040E251E4C501B4010E94590E4B015C0181
:100BF0007ED76B01F12CE12C4AE0C701B60119DF69
:100C0000C701B601A0D79B01AC01C501B4019ED6B6
:100C100020E030E040E251E40E94590E68D790E0B5
:100C200080E04AE006DF6CCF4F925F926F927F9236
:100C30008F929F92AF92BF92CF92DF92EF92FF92EC
:100C4000CF93DF9300D000D01F921F92CDB7DEB7B5
:100C50009A838983DC018C91ABDCBC01990F880BF2
:100C6000990B73D79B01AC01E981FA81228333830D
:100C70004483558360E070EC8FE794E4D0D620E0A5
:100C800030E040E85FE362D69B01AC0160E070E4D5
:100C90008CE995E4C4D620E030E040EE51E457D62C
:100CA0002B013C01A981BA8116964D925D926D92FD
:100CB0007C9219971A96CD90DD90ED90FC901D973F
:100CC0001E962D913D914D915C915197C701B601B2
:100CD000F0D74B015C01A981BA8152968D919D910B
:100CE0000D90BC91A02D89839A83AB83BC8320E0B7
:100CF00030E040E850ECC701B601DBD729813A81EA
:100D00004B815C81D6D76D837E838F839887A301C7
:100D10009201C701B6011AD69B01AC016D817E819B
:100D20008F819885C6D72B013C01A5019401C5018F
:100D3000B401BFD79B01AC01C301B20108D60E9428
:100D4000C00EA501940102D64B015C01A7019601DA
:100D5000C701B601FCD529813A814B815C81A9D7B5
:100D60009B01AC01C501B4015AD628960FB6F89480
:100D7000DEBF0FBECDBFDF91CF91FF90EF90DF9030
:100D8000CF90BF90AF909F908F907F906F905F902B
:100D90004F9008951F920F920FB60F9211240BB629
:100DA0000F922F933F934F935F936F937F938F9304
:100DB0009F93AF93BF93EF93FF938FE892E0FFDA97
:100DC000FF91EF91BF91AF919F918F917F916F9123
:100DD0005F914F913F912F910F900BBE0F900FBEDF
:100DE0000F901F9018951F920F920FB60F9211241B
:100DF0000BB60F922F938F939F93EF93FF93E091F6
:100E00009F02F091A0028081E091A502F091A602DC
:100E100082FD1DC090818091A8028F5F8F73209109
:100E2000A902821741F0E091A802F0E0E157FD4FDE
:100E3000958F8093A802FF91EF919F918F912F91B1
:100E40000F900BBE0F900FBE0F901F9018958081D2
:100E5000F2CF1F920F920FB60F9211242F933F9350
:100E60008F939F93AF93BF9380918B0290918C024D
:100E7000A0918D02B0918E023091860223E0230F63
:100E80002D3758F50196A11DB11D20938602809340
:100E90008B0290938C02A0938D02B0938E0280916E
:100EA000870290918802A0918902B0918A020196EE
:100EB000A11DB11D8093870290938802A09389029F
:100EC000B0938A02BF91AF919F918F913F912F91E3
:100ED0000F900FBE0F901F90189526E8230F0296D3
:100EE000A11DB11DD2CFCF92DF92EF92FF920F934F
:100EF0001F93CF93DF93EFE8F2E01382128288EE24
:100F000093E0A0E0B0E084839583A683B78384E078
:100F100092E09183808385EC90E09587848784ECD0
:100F200090E09787868780EC90E0918B808B81ECB6
:100F300090E0938B828B82EC90E0958B848B86EC97
:100F400090E0978B868B118E128E138E148EEFEE9F
:100F5000F3E0108211821282138217861686108A9D
:100F6000118A128A138A86E390E09583848340E095
:100F700050E563EC77E4468357836087718780E0B0
:100F800098E9A7E3B7E482879387A487B587EBED59
:100F9000F3E0108211821282138217861686108A5D
:100FA000118A128A138A27E330E03583248346832B
:100FB00057836087718782879387A487B587E5EC1D
:100FC000F3E0108211821282138240E050E064E864
:100FD00072E4468357836087718780E090E4ACE1D8
:100FE000B5E482879387A487B58716861786108A0B
:100FF000118A128A138A148A158A2AE030E035830E
:101000002483EFEAF3E01082118212821382468376
:1010100057836087718782879387A487B5871686F1
:101020001786108A118A128A138A148A158A2BE06D
:1010300030E035832483E9E9F3E0108211821282E3
:101040001382468357836087718782879387A4873B
:10105000B58716861786108A118A128A138A148A0F
:10106000158A8CE090E095838483EFE7F3E0C12C50
:10107000D12C8AE7E82E84E4F82EC286D386E48653
:10108000F58602E311E120E83BE306871787208B12
:10109000318B4FE755E06BE175EB428B538B648BE3
:1010A000758B85E698EFA7E3BEEA868B978BA08FBA
:1010B000B18FC9E3D0E0D183C083E5E6F3E0C28617
:1010C000D386E486F58606871787208B318B428B83
:1010D000538B648B758B868B978BA08FB18F8AE334
:1010E00090E091838083CDE5D3E01D821C828FEF59
:1010F00093E09F838E8384E390E0998388838FE0DD
:1011000090E09B838A8360E084E316DA60E08A8162
:1011100013DAAAE4B3E08CE315968C9315978BE071
:1011200016968C931697EAEFF1E0E4911796EC93FC
:101130001797E4EBF1E0E4911896EC93189740E8E8
:101140005EE360E070E01D964D935D936D937C933C
:101150005097ECE2F3E01282138214821582168219
:101160001782108611868DEC9CECACECBEE3828776
:101170009387A487B58716861786108A118A80E020
:1011800090E0A0E0B0E4828B938BA48BB58B80E0E1
:1011900090E0A0E0B2E4868B978BA08FB18F128E87
:1011A000138E148E158E8EE090E091838083DF91F4
:1011B000CF911F910F91FF90EF90DF90CF90089506
:1011C000CF93DF93CDB7DEB7A1970FB6F894DEBF0C
:1011D0000FBECDBF789484B5826084BD84B5816034
:1011E00084BD85B5826085BD85B5816085BD8091F2
:1011F0006E00816080936E0010928100809181006A
:101200008260809381008091810081608093810061
:10121000809180008160809380008091B100846023
:101220008093B1008091B00081608093B000809184
:101230009100826080939100809191008160809301
:101240009100809190008160809390008091A10036
:1012500082608093A1008091A10081608093A100B1
:101260008091A00081608093A00080912101826024
:1012700080932101809121018160809321018091DF
:10128000200181608093200180917A0084608093A6
:101290007A0080917A00826080937A0080917A004F
:1012A000816080937A0080917A00806880937A00D0
:1012B0001092C100E0919F02F091A00282E0808331
:1012C000E0919B02F0919C021082E0919D02F091CE
:1012D0009E0280E180831092A702E091A302F09128
:1012E000A40286E08083E091A102F091A2028081B5
:1012F00080618083E091A102F091A20280818860E8
:101300008083E091A102F091A202808180688083B5
:10131000E091A102F091A20280818F7D808362E042
:1013200080914F0309D92FB7F89480918B02909147
:101330008C02A0918D02B0918E022FBF805D9740EC
:10134000A109B1098093530390935403A0935503CB
:10135000B093560387E380935C0364E670E080E01B
:1013600090E068D98091F30323D99093FE03809392
:10137000FD03BC01990F880B990BE7D32AE038E2F3
:1013800040EA5BE396D44B015C01C090F903D09036
:10139000FA03E090FB03F090FC032091F5033091F9
:1013A000F6034091F7035091F803C701B601CFD27D
:1013B0009B01AC01C701B60132D39B01AC01C50151
:1013C000B4012DD36D8F7E8F8F8F98A36AE070E06C
:1013D00080E090E02FD98091DF03EAD89093EA0370
:1013E0008093E903BC01990F880B990BAED32AE0D7
:1013F00038E240EA5BE35DD44B015C01C090E50359
:10140000D090E603E090E703F090E8032091E10339
:101410003091E2034091E3035091E403C701B60128
:1014200096D29B01AC01C701B601F9D29B01AC0178
:10143000C501B401F4D2698F7A8F8B8F9C8F6AE0DB
:1014400070E080E090E0F6D885EC93E0B5DA6D834B
:101450007E838F8398876AE070E080E090E0EAD82E
:101460008FEA93E0A9DA69877A878B879C876AE09D
:1014700070E080E090E0DED889E993E09DDA6D8746
:101480007E878F87988B6AE070E080E090E0D2D80A
:101490008FE793E0C9DB698B7A8B8B8B9C8B6AE03F
:1014A00070E080E090E0C6D885E693E0BDDB6D8B10
:1014B0007E8B8F8B988F6AE070E080E090E0BAD8E6
:1014C0008090630390906403092C000CAA08BB0869
:1014D0004090610350906203052C000C6608770869
:1014E00080915F0365D86C01990FEE08FF084AE010
:1014F000C701B601F7FE0DC06DE28FE892E00E94D1
:10150000010266277727CB016C197D098E099F0997
:101510004AE08FDA85E292E080DA80915F0348D872
:101520009C01990F440B550B24193509460957099D
:10153000A3E0B0E0D0D1A5019401241935094609F2
:101540005709ADD189012330310510F009A1198166
:101550006AE070E080E090E06DD86AE070E080E0E2
:1015600090E068D898D8882351F0809150038B3050
:1015700030F08D3068F08551823008F43CC080E056
:1015800090E0A0ECBFE789839A83AB83BC831CC047
:1015900060914B0370E090E080E0D7D22DEC3CEC02
:1015A0004CEC5DE386D36B017C0160914A0370E0F3
:1015B00090E080E0CAD29B01AC01C701B601C7D15F
:1015C00069837A838B839C836AE070E080E090E09B
:1015D00031D861D8882341F0809150038C3009F4D0
:1015E00016C1C8F48B30A1F1C12CD12C80ECE82EAF
:1015F0008FE7F82E54C060914A0370914B03762711
:101600006727762790E080E09ED22DEC3CEC4CECF6
:101610005DE34FD3D5CF8551823030F780914C03B5
:1016200089A3682F70E0762F662766277F778091E1
:101630004D03682B90E080E086D22DEC3CEC4CEC26
:101640005DE337D36B017C0199A197FF28C0FDC0F2
:1016500060914C0370E090E080E075D26B017C01FA
:1016600090914D0399A397FF09C0A701960160E0EF
:1016700070E080E89FEB6AD16B017C01A9A1AF709B
:101680006A2F70E090E080E060D22DEC3CEC4CECF6
:101690005DE30FD3A70196015AD16B017C016AE08B
:1016A00070E080E090E00E941A0380912C030E9479
:1016B000D802BC01990F880B990B47D260932E0377
:1016C00070932F0380933003909331032AE038E224
:1016D00040EA5BE3EED22B013C0140923203509290
:1016E00033036092340370923503809036039090F8
:1016F0003703A0903803B0903903A50194018BD132
:1017000018160CF4A7C010924603109247031092CB
:101710004803109249038090460390904703A0909D
:101720004803B09049036AE070E080E090E00E94D6
:101730001A032DE232E04D8D5E8D6F8D78A188E227
:1017400092E0BAD92DE232E0498D5A8D6B8D7C8DB5
:101750008CE292E0B1D92FE232E04D815E816F815F
:10176000788581E392E0A8D92FE232E049855A8555
:101770006B857C8585E392E09FD92FE232E04D8531
:101780005E856F85788988E392E096D92BE332E015
:1017900049895A896B897C8983E492E08DD92BE34E
:1017A00032E04D895E896F89788D86E492E084D934
:1017B000B801012E000C880B990BC7D1AB01BC01FD
:1017C0002AE432E08AE592E077D92FE532E04981D8
:1017D0005A816B817C8181E692E06ED928E632E005
:1017E000B701A60180E792E067D928E732E0B501AA
:1017F000A4018CE792E060D960ED77E080E090E0B2
:101800000E941A030E946C0209A31983ABCDB09108
:101810004C03B9A36B2F70E090E080E094D16B0192
:101820007C0160914D036F7070E090E080E08DD19D
:101830002DEC3CEC4CEC5DE33CD2A701960187D04B
:101840006B017C0129A127FF2ACFF7FAF094F7F862
:10185000F09425CFA5019401C301B20177D02B01EB
:101860003C01A501940160913E0370913F0380917A
:101870004003909141036AD09B01AC01C301B201C6
:10188000CED020E030E040E052E413D26093460333
:101890007093470380934803909349033CCF052EF0
:1018A00097FB16F400940FD057FD05D01ED007FC0F
:1018B00002D046F408C050954095309521953F4F91
:1018C0004F4F5F4F089590958095709561957F4F2C
:1018D0008F4F9F4F08952BD0A59F900DB49F900DD3
:1018E000A49F800D911D11240895A1E21A2EAA1B18
:1018F000BB1BFD010DC0AA1FBB1FEE1FFF1FA217C0
:10190000B307E407F50720F0A21BB30BE40BF50BBC
:10191000661F771F881F991F1A9469F76095709545
:10192000809590959B01AC01BD01CF010895A29FC8
:10193000B001B39FC001A39F700D811D1124911DA3
:10194000B29F700D811D1124911D08955058BB2721
:10195000AA270ED070C161D130F066D120F031F4E9
:101960009F3F11F41EF456C10EF4E095E7FB4CC105
:10197000E92F72D180F3BA176207730784079507BE
:1019800018F071F49EF58AC10EF4E0950B2EBA2F73
:10199000A02D0B01B90190010C01CA01A001112475
:1019A000FF27591B99F0593F50F4503E68F11A1621
:1019B000F040A22F232F342F4427585FF3CF4695B2
:1019C00037952795A795F0405395C9F77EF41F16D4
:1019D000BA0B620B730B840BBAF09150A1F0FF0F9E
:1019E000BB1F661F771F881FC2F70EC0BA0F621F8A
:1019F000731F841F48F4879577956795B795F7957A
:101A00009E3F08F0B3CF9395880F08F09927EE0F0B
:101A1000979587950895D4D008F481E008950CD067
:101A20000AC102D140F0F9D030F021F45F3F19F043
:101A3000EBC0511134C1EEC00FD198F39923C9F313
:101A40005523B1F3951B550BBB27AA2762177307C4
:101A5000840738F09F5F5F4F220F331F441FAA1F78
:101A6000A9F333D00E2E3AF0E0E830D09150504038
:101A7000E695001CCAF729D0FE2F27D0660F771FE6
:101A8000881FBB1F261737074807AB07B0E809F0C8
:101A9000BB0B802DBF01FF2793585F4F2AF09E3F5D
:101AA000510568F0B1C0FBC05F3FECF3983EDCF33A
:101AB000869577956795B795F7959F5FC9F7880FD6
:101AC000911D9695879597F90895E1E0660F771F28
:101AD000881FBB1F621773078407BA0720F0621BB9
:101AE000730B840BBA0BEE1F88F7E0950895BCD0FA
:101AF00088F09F5790F0B92F9927B751A0F0D1F0F7
:101B0000660F771F881F991F1AF0BA95C9F712C080
:101B1000B13081F0C3D0B1E00895C0C0672F782FF5
:101B20008827B85F39F0B93FCCF3869577956795EC
:101B3000B395D9F73EF490958095709561957F4F58
:101B40008F4F9F4F0895E89409C097FB3EF49095FE
:101B50008095709561957F4F8F4F9F4F9923A9F086
:101B6000F92F96E9BB279395F69587957795679515
:101B7000B795F111F8CFFAF4BB0F11F460FF1BC059
:101B80006F5F7F4F8F4F9F4F16C0882311F096E9EC
:101B900011C0772321F09EE8872F762F05C066239A
:101BA00071F096E8862F70E060E02AF09A95660F53
:101BB000771F881FDAF7880F9695879597F908950C
:101BC000990F0008550FAA0BE0E8FEEF161617064E
:101BD000E807F907C0F012161306E407F50798F0B6
:101BE000621B730B840B950B39F40A2661F0232BCF
:101BF000242B252B21F408950A2609F4A140A6954B
:101C00008FEF811D811D089597F99F6780E870E02F
:101C100060E008959FEF80EC089500240A94161662
:101C2000170618060906089500240A9412161306CA
:101C3000140605060895092E0394000C11F4882358
:101C400052F0BB0F40F4BF2B11F460FF04C06F5F74
:101C50007F4F8F4F9F4F089557FD9058440F551F4A
:101C600059F05F3F71F04795880F97FB991F61F01E
:101C70009F3F79F087950895121613061406551F95
:101C8000F2CF4695F1DF08C0161617061806991F01
:101C9000F1CF86957105610508940895E894BB27F6
:101CA00066277727CB0197F908958ADF08F48FEF2D
:101CB00008950BD0C0CFB1DF28F0B6DF18F0952320
:101CC00009F0A2CFA7CF1124EACFC6DFA0F3959FDA
:101CD000D1F3950F50E0551F629FF001729FBB2713
:101CE000F00DB11D639FAA27F00DB11DAA1F649FBF
:101CF0006627B00DA11D661F829F2227B00DA11D72
:101D0000621F739FB00DA11D621F839FA00D611DF7
:101D1000221F749F3327A00D611D231F849F600D18
:101D2000211D822F762F6A2F11249F5750408AF051
:101D3000E1F088234AF0EE0FFF1FBB1F661F771FDD
:101D4000881F91505040A9F79E3F510570F05CCF1D
:101D5000A6CF5F3FECF3983EDCF3869577956795C9
:101D6000B795F795E7959F5FC1F7FE2B880F911DFB
:101D70009695879597F9089511F40EF44BCF42C0CC
:101D800073DFD0F39923D9F3CEF39F57550B87FF19
:101D900047D00024A0E640EA9001805856959795D8
:101DA00028F4805C660F771F881F20F026173707FE
:101DB000480730F4621B730B840B202931294A2B0E
:101DC000A69517940794202531254A2758F7660FC2
:101DD000771F881F20F026173707480730F4620B5B
:101DE000730B840B200D311D411DA09581F7B901A6
:101DF000842F9158880F969587950895E1DE880B7A
:101E0000990B08959F3F31F0915020F48795779575
:101E10006795B795880F911D9695879597F90895C1
:101E200091505040660F771F881FD2F70895EE0F2C
:101E3000FF1F881F8BBF0790F691E02D1994F8942F
:021E4000FFCFD2
:101E42000000000001026C0199014D02CA01A801C3
:101E5200BC01526F6F66002C006E616E00696E6687
:101E6200006F7666000D0A0053505600425600413C
:101E720000535043004243004C430063656C636966
:101E820075730042540053505400484947482F4D3F
:101E9200454449554D2F4C4F57005241494E00255C
:101EA200004F555448554D0063656C637569730066
:101EB2004F555454454D50006D2F730077696E6431
:061EC20073706565640009
:00000001FF
