:1000000002C1000031C100002FC100002DC100005D
:100010002BC1000029C1000027C1000025C100003C
:1000200023C1000021C100001FC100001DC100004C
:100030001BC1000019C1000017C1000015C100005C
:1000400013C1000011C100000FC100000DC100006C
:100050000BC1000009C1000007C10000B8C70000C3
:1000600003C100007EC7000053C70000FDC00000B0
:10007000FBC00000F9C00000F7C00000F5C00000A0
:10008000F3C00000F1C00000EFC00000EDC00000B0
:10009000EBC00000E9C00000E7C00000E5C00000C0
:1000A000E3C00000E1C00000DFC00000DDC00000D0
:1000B000DBC00000D9C00000D7C00000D5C00000E0
:1000C000D3C00000D1C00000CFC00000CDC00000F0
:1000D000CBC00000C9C00000C7C00000C5C0000000
:1000E000C3C0000000002100240027002A002D00CA
:1000F0003000330001010000040107010A01000083
:100100002200250028002B002E00310034000201BF
:100110000000050108010B0100000A0B02090C0D8B
:100120000E080703040100000000000000000000AA
:1001300000000000000000000000000000000000BF
:10014000000000001211100000000000000000007C
:10015000000000000000000000000000000000009F
:1001600020002300260029002C002F00320000016F
:10017000000003010601090105050505070508083A
:100180000808020202020A0A080804040404010121
:100190000101010101010303030303030303040736
:1001A00007070C0C0C0C0C0C0C0C020202020606CD
:1001B0000606060606060B0B0B0B0B0B0B0B0102C0
:1001C0001020200808102040102040800201020169
:1001D0000804020101020408102040808040201021
:1001E000080402018004020180402010080402017A
:1001F00008040201010204081020408001020408E2
:1002000010204080310811241FBECFEFD1E2DEBFA5
:10021000CDBF00E00CBF12E0A0E0B2E0E2E5F5E205
:1002200000E00BBF02C007900D92AC38B107D9F7C0
:1002300024E0ACE8B2E001C01D92AF30B207E1F7B4
:1002400011E0C3E0D1E000E006C021970109802F52
:10025000FE010E948E10C230D10780E00807A9F786
:100260000E94B6090C94A712CBCECF92DF92EF92E8
:10027000FF92CF93DF93B0916103A0E08111AB2F88
:100280008091620390E0880F991FAC01425A5E4F43
:10029000C0906703D0906803E0906903F0906A0310
:1002A00030E020E0FA01C591D491E881B90190E0F5
:1002B00080E0EB23EA130AC02F5F3F4F6C157D05EA
:1002C0008E059F0578F36FEF7FEFCB01DF91CF9124
:1002D000FF90EF90DF90CF900895AF92BF92CF92B2
:1002E000DF92EF92FF920F931F93CF93DF936C01F6
:1002F0007B018B01040F151FEB015E01AE18BF08D7
:10030000C017D10759F06991D601ED91FC91019088
:10031000F081E02DC6011995892B79F7C501DF9190
:10032000CF911F910F91FF90EF90DF90CF90BF90F2
:10033000AF900895FC01448155816081718185E908
:1003400092E0CBCFFC01538D448D252F30E0842FDC
:1003500090E0821B930B541710F0CF9608950197ED
:100360000895FC01918D828D981761F0A28DAE0FDA
:10037000BF2FB11D5D968C91928D9F5F9F73928F61
:1003800090E008958FEF9FEF0895FC01918D828D8D
:10039000981731F0828DE80FF11D858D90E008955A
:1003A0008FEF9FEF0895FC01918D228D892F90E0B2
:1003B000805C9F4F821B91098F739927089585E96F
:1003C00092E0F1DF21E0892B09F420E0822F0895EB
:1003D000FC01A48DA80FB92FB11DA35ABF4F2C91BA
:1003E000848D90E001968F739927848FA689B789B1
:1003F0002C93A089B1898C91837080648C93938DA8
:10040000848D981306C00288F389E02D80818F7D4A
:1004100080830895EF92FF920F931F93CF93DF9302
:10042000EC0181E0888F9B8D8C8D98131AC0E88930
:10043000F989808185FF15C09FB7F894EE89FF89FF
:100440006083E889F98980818370806480839FBF9D
:1004500081E090E0DF91CF911F910F91FF90EF909D
:100460000895F62E0B8D10E00F5F1F4F0F731127AD
:10047000E02E8C8D8E110BC00FB607FCFACFE889E9
:10048000F989808185FFF5CFCE01A2DFF2CFEB8D18
:10049000EC0FFD2FF11DE35AFF4FF0829FB7F89448
:1004A0000B8FEA89FB8980818062D0CFCF93DF9365
:1004B000EC01888D8823B1F0AA89BB89E889F98984
:1004C0008C9185FD03C0808186FD0CC00FB607FCB2
:1004D000F7CF8C9185FFF2CF808185FFEDCFCE01E4
:1004E00077DFEACFDF91CF91089580E090E0892B0C
:1004F00021F065DF81110E94000080E090E0892BEF
:1005000049F080E090E0892B29F00E9400008111E1
:100510000E94000080E090E0892B49F080E090E0AC
:10052000892B29F00E94000081110E94000080E0C8
:1005300090E0892B49F080E090E0892B29F00E941F
:10054000000081110C9400000895CF93DF9390E098
:10055000FC01E254FE4F249188589E4FFC01849187
:100560008823D1F090E0880F991FFC01EC51FF4FD8
:10057000A591B491FC01E250FF4FC591D491623036
:1005800071F49FB7F8943C91822F809583238C93CC
:10059000E8812E2B28839FBFDF91CF9108958FB7DD
:1005A000F894EC912E2B2C938FBFF6CF863308F066
:1005B000865320917B00982F9870277F922B9093E1
:1005C0007B008770806480937C0080917A008064D7
:1005D00080937A0080917A0086FDFCCF809178002C
:1005E0009091790008953FB7F89480918D02909191
:1005F0008E02A0918F02B091900226B5A89B05C0F3
:100600002F3F19F00196A11DB11D3FBFBA2FA92F91
:10061000982F8827BC01CD01620F711D811D911D8E
:1006200042E0660F771F881F991F4A95D1F70895FA
:100630008F929F92AF92BF92CF92DF92EF92FF92F2
:100640006B017C01D0DF4B015C01C114D104E104DA
:10065000F104B1F0C8DF681979098A099B09683E7D
:1006600073408105910588F321E0C21AD108E108A1
:10067000F10888EE880E83E0981EA11CB11CE5CF1E
:10068000FF90EF90DF90CF90BF90AF909F908F90B2
:1006900008950F931F93CF93DF93EC016AE070E00E
:1006A00080E090E0C5DF0AE010E061E070E080E00B
:1006B00090E0BEDF01501109C1F7BE01DD0F880BCC
:1006C000990B0E94C70DDF91CF911F910F91089553
:1006D0008F929F92AF92BF92EF92FF920F931F93D0
:1006E000CF93DF93CDB7DEB7C054D1400FB6F894A7
:1006F000DEBF0FBECDBF2FB7F894809191029091CD
:100700009202A0919302B09194022FBF4091630393
:100710005091640360916503709166038C019D01A3
:10072000041B150B260B370BB901A801403D5740A0
:1007300061057105A0F480916B03C05CDE4F0FB6BC
:10074000F894DEBF0FBECDBFDF91CF911F910F9107
:10075000FF90EF90BF90AF909F908F9008958093FF
:10076000630390936403A0936503B09366031092B0
:100770005E0310925D0310925C0310925B03109273
:100780005A0362E080915F03E0DE61E070E080E0A8
:1007900090E04EDF61E080915F03D7DE20915F0340
:1007A00030E0F901E85EFE4F8491F901E254FE4F1A
:1007B000949128583E4FF9012491222309F433C023
:1007C000882311F181508231F8F4E82FF0E0882776
:1007D000E351FC4F8F4F0C948E1044044804FF03E8
:1007E0003C04400404044B04510455045B045F04BE
:1007F000630469046D040404710477047B0480912C
:1008000080008F7780938000E22FF0E0EE0FFF1FD3
:10081000E250FF4FA591B4918FB7F894EC91909569
:100820009E239C938FBF809160038551823008F096
:1008300066C08BE291E10197F1F762E080915F037E
:1008400084DE80916C0390E08230910538F0880F4F
:10085000991F880F991F05970197F1F7F89480E089
:1008600004DD6F3F7F4F8F4F9F4F09F04EC01092B6
:100870006B03789480E061CF809180008F7DC2CF40
:1008800080918000877FBECF84B58F7784BDBCCF39
:1008900084B58F7DFBCF8091B0008F778093B000BF
:1008A000B3CF8091B0008F7DF9CF809190008F778A
:1008B00080939000A9CF809190008F7DF9CF809197
:1008C0009000877FF5CF8091A0008F778093A00064
:1008D0009BCF8091A0008F7DF9CF8091A000877F72
:1008E000F5CF809120018F77809320018DCF80916B
:1008F00020018F7DF9CF80912001877FF5CF64E1C2
:1009000070E080E090E094DE98CF81E0AEDC6F3F55
:100910007F4F8F4F9F4F09F4AACF9E012F5F3F4F0C
:1009200079015E013FEBA31A3EEFB30A870180E035
:100930009CDCF801608371838283938381E095DC82
:10094000F8016483758386839783085F1F4FA01621
:10095000B10669F7789430E020E0F701808091805B
:10096000A280B3804481558166817781FFEF8F1625
:100970009F06AF06BF0631F04F3F0FEF50076007ED
:10098000700719F410926B0375CFF90183E0F595A8
:10099000E7958A95E1F7E65AFC4F8081880F841627
:1009A0009506A606B70618F180832F5F3F4F18E023
:1009B000E10EF11C2832310581F640915E03209151
:1009C0005A0380915B03280F3327331F80915C0308
:1009D000280F311D80915D03820F932F911D992760
:1009E0004817190679F681E080936B03A6CE8160E3
:1009F000DBCF8F929F92AF92BF92CF92DF92EF9216
:100A0000FF92CF93DF93EC018881D0DD8881CEDD2A
:100A10008881CCDD3EDE0E94FE0F7B876A87072E31
:100A2000000C880B990B0E94C70D2AE038E240EABF
:100A30005BE30E94260E4B015C01CE80DF80E884E0
:100A4000F9842A813B814C815D81C701B6010E94F6
:100A5000320F9B01AC01C701B6010E94960F9B01AA
:100A6000AC01C501B4010E94960FDF91CF91FF90B8
:100A7000EF90DF90CF90BF90AF909F908F900895B0
:100A80001F93CF93DF93EC011C81812F8FDD8C812D
:100A90008DDD812F8BDDFDDD6E877F87888B998BC8
:100AA00020E030E040E85AE30E94260E20E030E4E7
:100AB0004CE955E40E94260E6A8B7B8B8C8B9D8BB8
:100AC0002A853B854C855D850E94310F2E813F81B3
:100AD000488559850E94960F688379838A839B8312
:100AE000DF91CF911F910895FC0101900020E9F75B
:100AF0003197AF01481B590BBC0185E992E0EDCB62
:100B00008F929F92AF92BF920F931F93CF93DF93D9
:100B1000CDB7DEB7A1970FB6F894DEBF0FBECDBF3D
:100B200019A2423008F44AE08E010F5D1F4F842E57
:100B3000912CB12CA12CA50194010E94000FE62F4D
:100B4000B901CA01EA30ECF4E05DD801EE938D0101
:100B5000232B242B252B79F790E080E0109711F0C0
:100B6000CD01C2DFA1960FB6F894DEBF0FBECDBF98
:100B7000DF91CF911F910F91BF90AF909F908F9079
:100B80000895E95CE2CFFC01808191810C943211DF
:100B9000EF92FF920F931F93CF93DF93EC017B01B2
:100BA000198218821B821A821D821C82FB0101900D
:100BB0000020E9F731978F01061B170BB8016F5F13
:100BC0007F4F90E080E00E94BB110097B9F09983BD
:100BD00088831B830A832C813D81232B11F4FC0124
:100BE00010821D830C83B70188819981DF91CF9199
:100BF0001F910F91FF90EF900C94A0128881998122
:100C0000009711F00E943211198218821D821C82F5
:100C10001B821A82DF91CF911F910F91FF90EF906D
:100C200008954F925F926F927F928F929F92AF92B0
:100C3000BF92CF92DF92EF92FF92CF93DF9300D0DB
:100C400000D01F921F92CDB7DEB79A838983DC0153
:100C50008C91ACDCE981FA818081A8DCA981BA8120
:100C60008C91A4DC16DD9B01AC01E981FA81228321
:100C700033834483558360E070EC8FE794E40E94F3
:100C8000960F20E030E040E85FE30E94310F9B01C7
:100C9000AC0160E070E48CE995E40E94960FA981B4
:100CA000BA811A962D913D914D915C911D970E94AC
:100CB000320F2B013C01E981FA814682578260861E
:100CC0007186C684D784E088F18822893389448973
:100CD0005589C701B601BAD74B015C01A981BA8118
:100CE00056968D919D910D90BC91A02D89839A83EC
:100CF000AB83BC8320E030E040E850ECC701B60194
:100D0000A5D729813A814B815C81A0D76D837E83F1
:100D10008F839887A3019201C701B6010E94310F0A
:100D20009B01AC016D817E818F8198858FD72B01CE
:100D30003C01A5019401C501B40188D79B01AC0118
:100D4000C301B2010E94320F0E943710A501940125
:100D50000E94310F4B015C01A7019601C701B6014A
:100D60000E94320F29813A814B815C816FD79B01B0
:100D7000AC01C501B4010E94960F28960FB6F894F5
:100D8000DEBF0FBECDBFDF91CF91FF90EF90DF9020
:100D9000CF90BF90AF909F908F907F906F905F901B
:100DA0004F9008958F929F92AF92BF92CF92DF9211
:100DB000EF92FF920F931F935B0169017A01BADAF8
:100DC00088E192E091DEC501B5DA88E192E08CDE3F
:100DD000A7019601C701B6010E9475108823A9F0EA
:100DE0008AE192E081DE88E192E07EDEC801A2DA4B
:100DF00086E292E01F910F91FF90EF90DF90CF90ED
:100E0000BF90AF909F908F906FCE46015701E894AE
:100E1000B7F82FEF3FEF4FE75FE7C501B4010E943E
:100E2000751081110CC02FEF3FEF4FE75FE7C50151
:100E3000B401A7D618161CF48EE192E0D3CF2FEFA1
:100E40003FEF4FE75FE4C701B6010E942F1018166D
:100E50001CF482E292E0C6CF2FEF3FEF4FE75FEC4A
:100E6000C701B6018ED687FDF4CF20E030E0A9019E
:100E7000C701B60186D687FF08C06DE285E992E01A
:100E8000C9DAF7FAF094F7F8F0942AE037ED43EA7C
:100E90005BE3C701B601E6D74B015C010E9403107A
:100EA0006B017C0172D69B01AC01C501B401D9D79D
:100EB0004B015C014AE0C701B60122DE6EE285E922
:100EC00092E0A8DA20E030E040E251E4C501B4014C
:100ED000BDD64B015C010E9403106B01F12CE12C8B
:100EE0004AE0C701B6010CDEC701B6014ED69B0130
:100EF000AC01C501B401B5D720E030E040E251E4D7
:100F0000A5D60E94031090E080E04AE0F9DD6BCFA7
:100F10001F920F920FB60F9211240BB60F922F93C0
:100F20003F934F935F936F937F938F939F93AF9371
:100F3000BF93EF93FF9385E992E04ADAFF91EF9137
:100F4000BF91AF919F918F917F916F915F914F91E1
:100F50003F912F910F900BBE0F900FBE0F901F90DF
:100F600018951F920F920FB60F9211240BB60F9285
:100F70002F938F939F93EF93FF93E091A502F091AE
:100F8000A6028081E091AB02F091AC0282FD1DC00F
:100F900090818091AE028F5F8F732091AF02821794
:100FA00041F0E091AE02F0E0EB56FD4F958F80935B
:100FB000AE02FF91EF919F918F912F910F900BBEF9
:100FC0000F900FBE0F901F9018958081F2CF1F9247
:100FD0000F920FB60F9211242F933F938F939F93ED
:100FE000AF93BF938091910290919202A09193024E
:100FF000B091940230918C0223E0230F2D3758F5E5
:101000000196A11DB11D20938C02809391029093B3
:101010009202A0939302B093940280918D029091DA
:101020008E02A0918F02B09190020196A11DB11D78
:1010300080938D0290938E02A0938F02B0939002C2
:10104000BF91AF919F918F913F912F910F900FBEC4
:101050000F901F90189526E8230F0296A11DB11D31
:10106000D2CF8F929F92AF92BF92CF92DF92EF92A8
:10107000FF920F931F93CF93DF93E5E9F2E0138282
:10108000128288EE93E0A0E0B0E084839583A6838B
:10109000B7838AE092E09183808385EC90E0958726
:1010A000848784EC90E09787868780EC90E0918B32
:1010B000808B81EC90E0938B828B82EC90E0958B1F
:1010C000848B86EC90E0978B868B118E128E138E1C
:1010D000148EEBEFF3E013861286148615861686BF
:1010E000178686E390E09183808380E090EFA2E50D
:1010F000B8E482839383A483B58380E092EEA1E871
:10110000B7E486839783A087B187EBEEF3E013867D
:101110001286148615861686178687E390E09183DB
:10112000808380E09AEEA3E5B8E482839383A4836E
:10113000B58380E09AE1A1E8B7E486839783A0872E
:10114000B187E5EDF3E0108211821282138240E054
:1011500050E46CE175E4428753876487758716868F
:101160001786108A118A128A138A148A158A8AE0CD
:1011700090E09583848380E090E0A4E8B2E48683E5
:101180009783A087B187EFEBF3E010821182128280
:101190001382428753876487758716861786108A5D
:1011A000118A128A138A148A158A2BE030E035835B
:1011B000248386839783A087B187E9EAF3E01082CE
:1011C000118212821382428753876487758716863D
:1011D0001786108A118A128A138A148A158A2CE0BB
:1011E00030E03583248386839783A087B187EBE83B
:1011F000F3E0C12CD12C8AE7E82E84E4F82EC686D1
:10120000D786E08AF18A02E311E120E83BE3028B12
:10121000138B248B358B4FE755E06BE175EB468BD9
:10122000578B608F718F85E698EFA7E3BEEA828FB8
:10123000938FA48FB58FC9E3D0E0D183C083C1EE73
:101240008C2ECAE79C2EC6EAAC2EC1E4BC2E828648
:101250009386A486B586EDE6F3E0C686D786E08A57
:10126000F18A028B138B248B358B468B578B608FC7
:10127000718F828F938FA48FB58F8AE390E09183D3
:10128000808380E090E0A0EEB1E482879387A4871A
:10129000B587AAE5B3E08CE315968C9315978BE0A0
:1012A00016968C931697EAEFF1E0E4911796EC937B
:1012B0001797E4EBF1E0E4911896EC93189740E867
:1012C0005EE360E070E01D964D935D936D937C93BB
:1012D0005097ECE3F3E01282138214821582168297
:1012E0001782108611868DEC9CECACECBEE38287F5
:1012F0009387A487B58716861786108A118A80E09F
:1013000090E0A0E0B0E4828B938BA48BB58B80E05F
:1013100090E0A0E0B2E4868B978BA08FB18F128E05
:10132000138E148E158E8EE090E091838083E2E31D
:10133000F3E015821482178216828FEF93E0918773
:10134000808784E390E0918380838FE090E09383B3
:101350008283DF91CF911F910F91FF90EF90DF90EB
:10136000CF90BF90AF909F908F900895CF93DF93D1
:10137000CDB7DEB7E6970FB6F894DEBF0FBECDBF90
:10138000789484B5826084BD84B5816084BD85B560
:10139000826085BD85B5816085BD80916E0081606C
:1013A00080936E0010928100809181008260809312
:1013B0008100809181008160809381008091800014
:1013C0008160809380008091B10084608093B1003F
:1013D0008091B00081608093B00080919100826024
:1013E0008093910080919100816080939100809121
:1013F00090008160809390008091A1008260809332
:10140000A1008091A10081608093A1008091A00043
:1014100081608093A00080912101826080932101EE
:101420008091210181608093210180912001816060
:101430008093200180917A00846080937A0080916B
:101440007A00826080937A0080917A008160809334
:101450007A0080917A00806880937A001092C100AF
:10146000E091A502F091A60282E08083E091A102C2
:10147000F091A2021082E091A302F091A40280E117
:1014800080831092AD02E091A902F091AA0286E059
:101490008083E091A702F091A8028081806180831F
:1014A000E091A702F091A802808188608083E0919A
:1014B000A702F091A802808180688083E091A70252
:1014C000F091A80280818F7D808362E080915F032C
:1014D0003CD82FB7F8948091910290919202A091FC
:1014E0009302B09194022FBF805D9740A109B1098A
:1014F0008093630390936403A0936503B0936603A2
:1015000087E380936C0364E670E080E090E090D81D
:101510008BEF93E06EDA6F8B788F898F9A8F6AE00A
:1015200070E080E090E084D88BEE93E062DA6B8F1D
:101530007C8F8D8F9E8F6AE070E080E090E078D89D
:1015400085ED93E09DDA6F8F78A389A39AA36AE073
:1015500070E080E090E06CD88FEB93E091DA6BA3C1
:101560007CA38DA39EA36AE070E080E090E060D849
:1015700089EA93E085DA6FA378A789A79AA76AE03A
:1015800070E080E090E054D88BE893E04ADB6BA7F2
:101590007CA78DA79EA76AE070E080E090E048D825
:1015A0008DE693E03EDB6FA778AB89AB9AAB6AE040
:1015B00070E080E090E03CD88BD8882351F0809197
:1015C00060038B3030F08D3068F08551823008F444
:1015D0003CC080E090E0A0ECBFE78B8B9C8BAD8B98
:1015E000BE8B1CC060915B0370E090E080E0CFD2C6
:1015F0002DEC3CEC4CEC5DE329D36B017C0160915C
:101600005A0370E090E080E0C2D29B01AC01C701B8
:10161000B60128D46B8B7C8B8D8B9E8B6AE070E03F
:1016200080E090E005D854D8882341F08091600391
:101630008C3009F45CC2C8F48B3091F1812C912C70
:1016400090ECA92E9FE7B92E50C060915A0370917B
:101650005B0376276727762790E080E096D22DEC13
:101660003CEC4CEC5DE3F2D2D5CF8551823030F7C3
:10167000F0905C036F2D70E0762F662766277F77EA
:1016800080915D03682B90E080E07FD22DEC3CECF4
:101690004CEC5DE3DBD24B015C01F7FE26C043C29C
:1016A00060915C0370E090E080E06FD26B017C01A0
:1016B00010915D0317FF09C0AC019B0160E070E071
:1016C00080E89FEBCED36B017C011F70612F70E02F
:1016D00090E080E05CD22DEC3CEC4CEC5DE3B6D2CB
:1016E000A7019601BFD34B015C016AE070E080E086
:1016F00090E00E94180380913C030E94D6028091E2
:101700003C030E94D60280913C030E94D6020E94B4
:10171000490360933E0370933F038093400390938B
:1017200041032AE038E240EA5BE390D22B013C011E
:1017300040924203509243036092440370924503E7
:10174000C0904603D0904703E0904803F0904903CF
:10175000A701960116D218160CF4EAC1109256038E
:101760001092570310925803109259038091560318
:1017700090915703A0915803B09159038BAB9CAB48
:10178000ADABBEAB6AE070E080E090E00E94180371
:10179000C0903A03D0903B030D2C000CEE08FF08DC
:1017A0004090380350903903052C000C66087708E8
:1017B000809134030E94D602809134030E94D602A5
:1017C000809134030E94D6020E94490317D49B01E2
:1017D000770F440B550B2419350946095709A3E027
:1017E000B0E004D3A7019601241935094609570929
:1017F000E1D279012115310509F4BFC1213031054C
:1018000011F0F12CE12C6AE070E080E090E00E94A1
:10181000180362E372E0CE010D96BAD968E272E075
:10182000CE010796B5D96CE272E0CE010196B0D92F
:101830008E01035F1F4F2F89388D498D5A8DBE0150
:10184000695F7F4FCE010196ADDACE0101969BD93B
:10185000CE01079698D9C80196D962E372E0C80113
:1018600097D961E372E0CE01079692D96CE272E0FB
:10187000CE0101968DD92B8D3C8D4D8D5E8DBE0197
:10188000695F7F4FCE0101968DDACE0101967BD93B
:10189000CE01079678D9C80176D964E372E0C80111
:1018A00077D966E372E0CE01079672D96CE272E0F6
:1018B000CE0101966DD92F8D38A149A15AA1BE0143
:1018C000695F7F4FCE0101966DDACE0101965BD93B
:1018D000CE01079658D9C80156D964E372E0C80111
:1018E00057D96AE372E0CE01079652D96CE272E0F2
:1018F000CE0101964DD92BA13CA14DA15EA1BE0107
:10190000695F7F4FCE0101964DDACE0101963BD93A
:10191000CE01079638D9C80136D964E372E0C80110
:1019200037D96DE372E0CE01079632D96CE272E0EE
:10193000CE0101962DD92FA138A549A55AA5BE01E2
:10194000695F7F4FCE0101962DDACE0101961BD93A
:10195000CE01079618D9C80116D960E472E0C80113
:1019600017D968E472E0CE01079612D96CE272E0F2
:10197000CE0101960DD92BA53CA54DA55EA5BE01B6
:10198000695F7F4FCE0101960DDACE010196FBD83B
:10199000CE010796F8D8C801F6D860E472E0C80115
:1019A000F7D86BE472E0CE010796F2D86CE272E0F1
:1019B000CE010196EDD82FA538A949A95AA9BE0193
:1019C000695F7F4FCE010196EDD9CE010196DBD83C
:1019D000CE010796D8D8C801D6D86FE472E0C80106
:1019E000D7D861E572E0CE010796D2D86CE272E0FA
:1019F000CE010196CDD82B893C894D895E89BE01E7
:101A0000695F7F4FCE010196CDD9CE010196BBD83B
:101A1000CE010796B8D8C801B6D868E572E0C8010B
:101A2000B7D860E672E0CE010796B2D86CE272E0F9
:101A3000CE010196ADD8A5019401BE01695F7F4F2B
:101A4000CE010196AFD9CE0101969DD8CE01079661
:101A50009AD8C80198D868E672E0C80199D86CE6AF
:101A600072E0CE01079694D86CE272E0CE01019646
:101A70008FD82BA93CA94DA95EA9BE01695F7F4FF4
:101A8000CE0101968FD9CE0101967DD8CE01079661
:101A90007AD8C80178D866E772E0C80179D866E8D4
:101AA00072E0CE01079674D86CE272E0CE01019626
:101AB0006FD8B701FF0C880B990B69D09B01AC0163
:101AC000BE01695F7F4FCE0101966CD9CE010196B0
:101AD0005AD8CE01079657D8C80155D860ED77E09F
:101AE00080E090E00E9418030E94750211CD1091D1
:101AF0005C03612F70E090E080E047D06B017C01D7
:101B000060915D036F7070E090E080E040D02DEC5C
:101B10003CEC4CEC5DE39AD0A7019601A3D14B01BC
:101B20005C0117FFE2CDB7FAB094B7F8B094DDCD01
:101B3000A7019601C301B20194D12B013C01A70179
:101B4000960160914E0370914F03809150039091E4
:101B5000510387D19B01AC01C301B201E7D120E061
:101B600030E040E052E472D0609356037093570324
:101B70008093580390935903F9CD82E0E82EF12C1D
:101B800042CE40D008F481E00895E89409C097FB64
:101B90003EF490958095709561957F4F8F4F9F4F44
:101BA0009923A9F0F92F96E9BB279395F695879588
:101BB00077956795B795F111F8CFFAF4BB0F11F44B
:101BC00060FF1BC06F5F7F4F8F4F9F4F16C08823F2
:101BD00011F096E911C0772321F09EE8872F762F28
:101BE00005C0662371F096E8862F70E060E02AF069
:101BF0009A95660F771F881FDAF7880F9695879555
:101C000097F90895990F0008550FAA0BE0E8FEEF29
:101C100016161706E807F907C0F012161306E407B0
:101C2000F50798F0621B730B840B950B39F40A26A9
:101C300061F0232B242B252B21F408950A2609F487
:101C4000A140A6958FEF811D811D08950BD078C00E
:101C500069D028F06ED018F0952309F05AC05FC003
:101C60001124A2C07ED0A0F3959FD1F3950F50E030
:101C7000551F629FF001729FBB27F00DB11D639F3E
:101C8000AA27F00DB11DAA1F649F6627B00DA11DE4
:101C9000661F829F2227B00DA11D621F739FB00D8A
:101CA000A11D621F839FA00D611D221F749F3327FA
:101CB000A00D611D231F849F600D211D822F762F93
:101CC0006A2F11249F5750408AF0E1F088234AF090
:101CD000EE0FFF1FBB1F661F771F881F91505040DC
:101CE000A9F79E3F510570F014C05EC05F3FECF352
:101CF000983EDCF3869577956795B795F795E795C8
:101D00009F5FC1F7FE2B880F911D9695879597F9D8
:101D1000089597F99F6780E870E060E008959FEF6D
:101D200080EC089500240A94161617061806090672
:101D3000089500240A941216130614060506089541
:101D4000092E0394000C11F4882352F0BB0F40F4C9
:101D5000BF2B11F460FF04C06F5F7F4F8F4F9F4F09
:101D6000089557FD9058440F551F59F05F3F71F08B
:101D70004795880F97FB991F61F09F3F79F08795F2
:101D80000895121613061406551FF2CF4695F1DF7B
:101D900008C0161617061806991FF1CF869571050B
:101DA000610508940895E894BB2766277727CB013F
:101DB00097F90895052E97FB16F400940FD057FD60
:101DC00005D01ED007FC02D046F408C050954095BF
:101DD000309521953F4F4F4F5F4F089590958095D7
:101DE000709561957F4F8F4F9F4F08952BD0A59F82
:101DF000900DB49F900DA49F800D911D1124089506
:101E0000A1E21A2EAA1BBB1BFD010DC0AA1FBB1FFE
:101E1000EE1FFF1FA217B307E407F50720F0A21B70
:101E2000B30BE40BF50B661F771F881F991F1A94DD
:101E300069F760957095809590959B01AC01BD0107
:101E4000CF010895A29FB001B39FC001A39F700D61
:101E5000811D1124911DB29F700D811D1124911DB2
:101E600008955058BB27AA270ED06ACF5BDF30F009
:101E700060DF20F031F49F3F11F41EF450CF0EF4D8
:101E8000E095E7FB46CFE92F6CDF80F3BA176207D6
:101E900073078407950718F071F49EF584CF0EF44C
:101EA000E0950B2EBA2FA02D0B01B90190010C016A
:101EB000CA01A0011124FF27591B99F0593F50F482
:101EC000503E68F11A16F040A22F232F342F4427DA
:101ED000585FF3CF469537952795A795F0405395D2
:101EE000C9F77EF41F16BA0B620B730B840BBAF0A2
:101EF0009150A1F0FF0FBB1F661F771F881FC2F70D
:101F00000EC0BA0F621F731F841F48F48795779520
:101F10006795B795F7959E3F08F0B3CF9395880FD7
:101F200008F09927EE0F9795879508950CD008CF64
:101F300000DF40F0F7DE30F021F45F3F19F0E9CE2A
:101F4000511132CFECCE0DDF98F39923C9F355230D
:101F5000B1F3951B550BBB27AA276217730784079C
:101F600038F09F5F5F4F220F331F441FAA1FA9F352
:101F700033D00E2E3AF0E0E830D091505040E69544
:101F8000001CCAF729D0FE2F27D0660F771F881FA5
:101F9000BB1F261737074807AB07B0E809F0BB0B94
:101FA000802DBF01FF2793585F4F2AF09E3F5105B8
:101FB00068F0AFCEF9CE5F3FECF3983EDCF3869548
:101FC00077956795B795F7959F5FC9F7880F911D2E
:101FD0009695879597F90895E1E0660F771F881F1A
:101FE000BB1F621773078407BA0720F0621B730BCD
:101FF000840BBA0BEE1F88F7E095089504D068941F
:10200000B111D2CE0895B5DE88F09F5790F0B92F68
:102010009927B751A0F0D1F0660F771F881F991F3D
:102020001AF0BA95C9F712C0B13081F0BCDEB1E048
:102030000895B9CE672F782F8827B85F39F0B93F58
:10204000CCF3869577956795B395D9F73EF490953F
:102050008095709561957F4F8F4F9F4F0895D2DD8A
:1020600008F48FEF089511F40EF459CE42C081DECA
:10207000D0F39923D9F3CEF39F57550B87FF47D061
:102080000024A0E640EA900180585695979528F4E0
:10209000805C660F771F881F20F0261737074807D8
:1020A00030F4621B730B840B202931294A2BA6952F
:1020B00017940794202531254A2758F7660F771F74
:1020C000881F20F026173707480730F4620B730B80
:1020D000840B200D311D411DA09581F7B901842F7E
:1020E0009158880F9695879508958CDD880B990BEC
:1020F00008959F3F31F0915020F48795779567952B
:10210000B795880F911D9695879597F908959150E9
:102110005040660F771F881FD2F70895EE0FFF1FFC
:10212000881F8BBF0790F691E02D19940F931F9392
:10213000CF93DF938230910510F482E090E0E0913C
:102140000D04F0910E0430E020E0B0E0A0E0309704
:1021500099F42115310509F44AC0281B390B2430A4
:102160003105D8F58A819B816115710589F1FB01E3
:1021700093838283FE0111C04081518102811381CA
:1021800048175907E0F04817590799F4109761F07C
:1021900012960C93129713961C933296CF01DF91EF
:1021A000CF911F910F91089500930D0410930E0489
:1021B000F4CF2115310551F04217530738F0A9012A
:1021C000DB019A01BD01DF01F801C1CFEF01F9CFB9
:1021D00090930E0480930D04CDCFFE01E20FF31F08
:1021E000819391932250310939832883D7CF20914D
:1021F0000B0430910C04232B41F420910202309106
:10220000030230930C0420930B04209100023091C0
:1022100001022115310541F42DB73EB7409104026A
:1022200050910502241B350BE0910B04F0910C0436
:10223000E217F307A0F42E1B3F0B2817390778F09D
:10224000AC014E5F5F4F2417350748F04E0F5F1FFC
:1022500050930C0440930B04819391939FCFF0E033
:10226000E0E09CCFCF93DF930097E9F0FC01329739
:1022700013821282A0910D04B0910E04ED0130E0A2
:1022800020E01097A1F420813181820F931F2091CB
:102290000B0430910C042817390709F061C0F09342
:1022A0000C04E0930B04DF91CF910895EA01CE175F
:1022B000DF07E8F54A815B819E0141155105B1F7C1
:1022C000E901FB83EA8349915991C40FD51FEC17AB
:1022D000FD0761F4808191810296840F951FE901C9
:1022E00099838883828193819B838A83F0E0E0E0F5
:1022F00012968D919C9113970097B9F52D913C9171
:102300001197CD010296820F931F20910B043091FB
:102310000C042817390739F6309751F510920E043E
:1023200010920D04B0930C04A0930B04BCCFD38384
:10233000C28340815181840F951FC817D90761F46A
:102340004E5F5F4F88819981480F591F51834083A9
:102350008A819B81938382832115310509F0B0CF57
:10236000F0930E04E0930D049ECFFD01DC01C0CF7D
:1023700013821282D7CF4F925F926F927F928F9289
:102380009F92AF92BF92CF92DF92EF92FF920F9304
:102390001F93CF93DF938C01009791F4CB01DF91D2
:1023A000CF911F910F91FF90EF90DF90CF90BF9052
:1023B000AF909F908F907F906F905F904F90B6CE30
:1023C000FC01E60FF71F9C0122503109E217F307C9
:1023D00008F4AAC0D901CD91DC911197C617D7078F
:1023E00018F1C530D10570F0CE0104978617970714
:1023F00048F0C61BD70B2297C193D1936D937C9362
:10240000CF0130DFC801DF91CF911F910F91FF9075
:10241000EF90DF90CF90BF90AF909F908F907F9084
:102420006F905F904F9008955B01AC1ABD0A4C010C
:102430008C0E9D1EA0910D04B0910E04512C412CC8
:10244000F12CE12C109731F580910B0490910C0444
:102450008815990509F05CC04616570608F058C063
:102460008091000290910102009741F48DB79EB7D0
:102470004091040250910502841B950BE817F9075F
:1024800008F052C0F0930C04E0930B04F90171833F
:102490006083B8CF8D919C91119712966C90129792
:1024A00013967C901397A815B90559F56C0142E075
:1024B000C40ED11CCA14DB0420F1AC014A195B091B
:1024C000DA011296159780F06282738251834083FD
:1024D000D9016D937C93E114F10471F0D701139647
:1024E000FC93EE9312978ECF22968C0F9D1FF901CD
:1024F00091838083F301EFCFF0930E04E0930D04FA
:1025000081CF4816590608F42C017D01D3019ACFDA
:10251000CB010CDE7C01009739F0AE01B80107D089
:10252000C801A0DE87016ECF10E000E06BCFFB0199
:10253000DC0102C001900D9241505040D8F708953F
:10254000FB01DC0101900D920020E1F70895F89461
:02255000FFCFBB
:1025520000000F048000000000000A026D01A201C9
:102562005602D301B101C5012C006E616E00696E85
:1025720066006F7666000A0053505600526F6F660F
:10258200004256004100535043004243004C430076
:1025920063656C636975730042540053505400259F
:1025A200004F555448554D0063656C63756973005F
:1025B2004F555454454D50006D2F730077696E642A
:1025C200737065656400484947482F4D4544495535
:0C25D2004D2F4C4F57005241494E000065
:00000001FF
