:10000000D2C0000000C10000FEC00000FCC0000023
:10001000FAC00000F8C00000F6C00000F4C0000004
:10002000F2C00000F0C00000EEC00000ECC0000014
:10003000EAC00000E8C00000E6C00000E4C0000024
:10004000E2C00000E0C00000DEC00000DCC0000034
:10005000DAC00000D8C00000D6C0000056C40000BE
:10006000D2C000001CC40000F1C30000CCC00000DE
:10007000CAC00000C8C00000C6C00000C4C0000064
:10008000C2C00000C0C00000BEC00000BCC0000074
:10009000BAC00000B8C00000B6C00000B4C0000084
:1000A000B2C00000B0C00000AEC00000ACC0000094
:1000B000AAC00000A8C00000A6C00000A4C00000A4
:1000C000A2C00000A0C000009EC000009CC00000B4
:1000D0009AC0000098C0000096C0000094C00000C4
:1000E00092C0000000002200250028002B002E00F6
:1000F0003100340002010000050108010B0100007D
:100100002100240027002A002D00300033000101C7
:100110000000040107010A01050505050705080897
:100120000808020202020A0A080804040404010181
:100130000101010101010303030303030303040796
:1001400007070C0C0C0C0C0C0C0C0202020206062D
:100150000606060606060B0B0B0B0B0B0B0B010220
:1001600010202008081020401020408002010201C9
:100170000804020101020408102040808040201081
:1001800008040201800402018040201008040201DA
:100190000804020101020408102040800102040842
:1001A00010204080CF0411241FBECFEFD1E2DEBF6C
:1001B000CDBF00E00CBF12E0A0E0B2E0E4E2F5E168
:1001C00000E00BBF02C007900D92A83DB107D9F720
:1001D00024E0A8EDB2E001C01D92AF33B207E1F711
:1001E00010E0C3EDD0E000E006C021970109802FA8
:1001F000FE010E94880AC23DD10780E00807A9F7E6
:100200001FD50C94900AFCCEAF92BF92CF92DF9292
:10021000EF92FF920F931F93CF93DF936C017B01BB
:100220008B01040F151FEB015E01AE18BF08C0174C
:10023000D10759F06991D601ED91FC910190F081BF
:10024000E02DC6011995892B79F7C501DF91CF9172
:100250001F910F91FF90EF90DF90CF90BF90AF90E4
:100260000895FC01538D448D252F30E0842F90E0BC
:10027000821B930B541710F0CF96089501970895A1
:10028000FC01918D828D981761F0A28DAE0FBF2F6A
:10029000B11D5D968C91928D9F5F9F73928F90E0C0
:1002A00008958FEF9FEF0895FC01918D828D98172F
:1002B00031F0828DE80FF11D858D90E008958FEF6C
:1002C0009FEF0895FC01918D228D892F90E0805C35
:1002D0009F4F821B91098F739927089581EE92E0B9
:1002E000F1DF21E0892B09F420E0822F0895FC0141
:1002F000A48DA80FB92FB11DA35ABF4F2C91848D87
:1003000090E001968F739927848FA689B7892C93E3
:10031000A089B1898C91837080648C93938D848D36
:10032000981306C00288F389E02D80818F7D808339
:100330000895EF92FF920F931F93CF93DF93EC01F9
:1003400081E0888F9B8D8C8D98131AC0E889F9897C
:10035000808185FF15C09FB7F894EE89FF8960837F
:10036000E889F98980818370806480839FBF81E000
:1003700090E0DF91CF911F910F91FF90EF90089542
:10038000F62E0B8D10E00F5F1F4F0F731127E02E1D
:100390008C8D8E110BC00FB607FCFACFE889F98956
:1003A000808185FFF5CFCE01A2DFF2CFEB8DEC0F80
:1003B000FD2FF11DE35AFF4FF0829FB7F8940B8F8A
:1003C000EA89FB8980818062D0CFCF93DF93EC01F3
:1003D000888D8823B1F0AA89BB89E889F9898C9135
:1003E00085FD03C0808186FD0CC00FB607FCF7CFEA
:1003F0008C9185FFF2CF808185FFEDCFCE0177DF35
:10040000EACFDF91CF91089580E090E0892B21F031
:1004100065DF81110E94000080E090E0892B49F0A7
:1004200080E090E0892B29F00E94000081110E9459
:10043000000080E090E0892B49F080E090E0892B7B
:1004400029F00E94000081110E94000080E090E0ED
:10045000892B49F080E090E0892B29F00E94000070
:1004600081110C9400000895CF93DF9390E0FC017C
:10047000E25AFE4F2491885E9E4FFC0184918823AE
:10048000C9F090E0880F991FFC01E250FF4FA59141
:10049000B491FC01EC51FF4FC591D49161110DC095
:1004A0009FB7F8948C91209582238C938881282380
:1004B00028839FBFDF91CF910895623051F49FB799
:1004C000F8943C91822F809583238C93E8812E2B86
:1004D000EFCF8FB7F894EC912E2B2C938FBFEACFF0
:1004E000863308F0865320917B00982F9870277FE1
:1004F000922B90937B008770806480937C00809126
:100500007A00806480937A0080917A0086FDFCCF27
:10051000809178009091790008953FB7F894809188
:10052000D9029091DA02A091DB02B091DC0226B5EB
:10053000A89B05C02F3F19F00196A11DB11D3FBF1B
:10054000BA2FA92F982F8827BC01CD01620F711DEA
:10055000811D911D42E0660F771F881F991F4A95E4
:10056000D1F70895CF92DF92EF92FF92CF93DF936E
:10057000EC018C81B5DF9B878A87BC01990F880BC2
:10058000990B32D620E030E040E85AE3E1D620E093
:1005900030E44CE955E4DCD66B017C01CC86DD8689
:1005A000EE86FF8668857985072E000C880B990BEF
:1005B0001BD69B01AC01C701B60112D56B017C01B2
:1005C0006E817F81072E000C880B990B0DD69B0145
:1005D000AC01C701B6016DD5688379838A839B839B
:1005E000DF91CF91FF90EF90DF90CF900895FC01C5
:1005F00001900020E9F73197AF01481B590BBC016E
:1006000081EE92E001CE8F929F92AF92BF920F93B4
:100610001F93CF93DF93CDB7DEB7A1970FB6F894B2
:10062000DEBF0FBECDBF19A2423008F44AE08E01F2
:100630000F5D1F4F842E912CB12CA12CA50194018C
:1006400045D7E62FB901CA01EA30ECF4E05DD801E4
:10065000EE938D01232B242B252B81F790E080E056
:10066000109711F0CD01C3DFA1960FB6F894DEBF4D
:100670000FBECDBFDF91CF911F910F91BF90AF9073
:100680009F908F900895E95CE2CFCF92DF92EF9236
:10069000FF92CF93DF936C01990FEE08FF08F7FEEE
:1006A0001CC06DE281EE92E044DEEC016627772704
:1006B000CB016C197D098E099F094AE0A4DFC80FA0
:1006C000D91F84E692E093DF8C0F9D1FDF91CF91BD
:1006D000FF90EF90DF90CF9008954AE0C701B601F8
:1006E00092DFEC01EECF4F925F926F927F928F92EA
:1006F0009F92AF92BF92CF92DF92EF92FF926B01E7
:100700007C01AC019B01C9D68823B1F087E692E059
:100710006EDF7C0184E692E06ADF8E0D9F1DFF9004
:10072000EF90DF90CF90BF90AF909F908F907F9091
:100730006F905F904F90089546015701E894B7F885
:100740002FEF3FEF4FE75FE7C501B401A6D6811158
:100750000CC02FEF3FEF4FE75FE7C501B401A5D411
:1007600018161CF48BE692E0D3CF2FEF3FEF4FE744
:100770005FE4C701B601E8D518161CF48FE692E0D5
:10078000C7CF2FEF3FEF4FE75FECC701B6018DD426
:1007900087FDF4CF20E030E0A901C701B60185D480
:1007A000B12CA12C87FF09C06DE281EE92E0C1DD82
:1007B0005C01F7FAF094F7F8F0942AE037ED43EA99
:1007C0005BE3C701B6010DD42B013C01DFD46B0103
:1007D0007C0108D59B01AC01C301B20101D42B01FE
:1007E0003C014AE0C701B6010EDF7C01EA0CFB1CAC
:1007F0006EE281EE92E09DDDE80EF91E20E030E031
:1008000040E251E4C301B201A3D52B013C01BED4A7
:100810004B01B12CA12C4AE0C501B401F4DEE80E75
:10082000F91EC501B401DED49B01AC01C301B201C4
:10083000D7D320E030E040E251E48AD5A7D490E05D
:1008400080E04AE0E0DEE80EF91E64CF1F920F92CE
:100850000FB60F9211240BB60F922F933F934F9325
:100860005F936F937F938F939F93AF93BF93EF9318
:10087000FF9381EE92E03BDDFF91EF91BF91AF914D
:100880009F918F917F916F915F914F913F912F91A8
:100890000F900BBE0F900FBE0F901F9018951F92D8
:1008A0000F920FB60F9211240BB60F922F938F93C6
:1008B0009F93EF93FF93E091F102F091F202808118
:1008C000E091F702F091F80282FD1DC090818091C5
:1008D000FA028F5F8F732091FB02821741F0E09143
:1008E000FA02F0E0EF51FD4F958F8093FA02FF91ED
:1008F000EF919F918F912F910F900BBE0F900FBE94
:100900000F901F9018958081F2CF1F920F920FB613
:100910000F9211242F933F938F939F93AF93BF9385
:100920008091DD029091DE02A091DF02B091E002A1
:100930003091D80223E0230F2D3758F50196A11DE1
:10094000B11D2093D8028093DD029093DE02A09324
:10095000DF02B093E0028091D9029091DA02A09177
:10096000DB02B091DC020196A11DB11D8093D9027A
:100970009093DA02A093DB02B093DC02BF91AF91B7
:100980009F918F913F912F910F900FBE0F901F90CD
:10099000189526E8230F0296A11DB11DD2CFCF9244
:1009A000DF92EF92FF920F931F93CF93DF93E1EECD
:1009B000F2E01382128288EE93E0A0E0B0E084833C
:1009C0009583A683B78386E592E09183808385EC47
:1009D00090E09587848784EC90E09787868780EC09
:1009E00090E0918B808B81EC90E0938B828B82ECFA
:1009F00090E0958B848B86EC90E0978B868B118EA4
:100A0000128E138E148EEBE2F4E0108211821282A9
:100A1000138217861686108A118A128A138A86E331
:100A200090E09583848340E050E563EC77E446836F
:100A300057836087718780E098E9A7E3B7E48287EE
:100A40009387A487B587E7E1F4E0108211821282D0
:100A5000138217861686108A118A128A138A27E350
:100A600030E035832483468357836087718782878C
:100A70009387A487B587E7E0F4E0108211821282A1
:100A8000138222E430E03783268384EC99E0918757
:100A900080871386128614861586168617864AE086
:100AA00050E055834483E7EFF3E010821182128215
:100AB0001382378326839187808713861286148654
:100AC0001586168617864BE050E055834483E7EE83
:100AD000F3E010821182128213823783268391877A
:100AE00080871386128614861586168617868CE0F4
:100AF00090E095838483EDECF3E0C12CD12C8AE760
:100B0000E82E84E4F82EC286D386E486F58602E3D6
:100B100011E120E83BE306871787208B318B4FE7F5
:100B200055E06BE175EB428B538B648B758B85E6DF
:100B300098EFA7E3BEEA868B978BA08FB18FC9E3AE
:100B4000D0E0D183C083E3EBF3E0C286D386E486B2
:100B5000F58606871787208B318B428B538B648BEE
:100B6000758B868B978BA08FB18F8AE390E09183F2
:100B70008083CFEAD3E084E390E0998388838FE099
:100B800090E09B838A8360E084E36EDC60E08A818E
:100B90006BDCACE9B3E08CE315968C9315978BE096
:100BA00016968C931697EAE9F1E0E4911796EC9388
:100BB0001797E4E5F1E0E4911896EC93189740E874
:100BC0005EE360E070E01D964D935D936D937C93C2
:100BD0005097EEE7F3E01282138214821582168298
:100BE0001782108611868DEC9CECACECBEE38287FC
:100BF0009387A487B58716861786108A118A80E0A6
:100C000090E0A0E0B0E4828B938BA48BB58B80E066
:100C100090E0A0E0B2E4868B978BA08FB18F128E0C
:100C2000138E148E158E8EE090E091838083DF9179
:100C3000CF911F910F91FF90EF90DF90CF9008958B
:100C4000CF93DF9300D000D01F921F92CDB7DEB7B5
:100C5000789484B5826084BD84B5816084BD85B597
:100C6000826085BD85B5816085BD80916E008160A3
:100C700080936E0010928100809181008260809349
:100C8000810080918100816080938100809180004B
:100C90008160809380008091B10084608093B10076
:100CA0008091B00081608093B0008091910082605B
:100CB0008093910080919100816080939100809158
:100CC00090008160809390008091A1008260809369
:100CD000A1008091A10081608093A1008091A0007B
:100CE00081608093A0008091210182608093210126
:100CF0008091210181608093210180912001816098
:100D00008093200180917A00846080937A008091A2
:100D10007A00826080937A0080917A00816080936B
:100D20007A0080917A00806880937A001092C100E6
:100D3000E091F102F091F20282E08083E091ED0215
:100D4000F091EE021082E091EF02F091F00280E16A
:100D500080831092F902E091F502F091F60286E0AC
:100D60008083E091F302F091F402808180618083BE
:100D7000E091F302F091F402808188608083E09139
:100D8000F302F091F402808180688083E091F302A5
:100D9000F091F40280818F7D808362E08091A103D5
:100DA00063DB2FB7F8948091DD029091DE02A09171
:100DB000DF02B091E0022FBF805D9740A109B10929
:100DC0008093A5039093A603A093A703B093A803D1
:100DD00087E38093AE0380E092E009DC8091B30367
:100DE0007FDBBC01990F880B990BFED19B01AC01F5
:100DF0002093B5033093B6034093B7035093B803E1
:100E000060E070EC8FE794E454D120E030E040E8FB
:100E10005FE3E6D09B01AC0160E070E48CE995E40F
:100E200048D120E030E040EE51E4DBD02B013C0122
:100E30004092B9035092BA036092BB037092BC0314
:100E4000C090BD03D090BE03E090BF03F090C003FC
:100E50002091C1033091C2034091C3035091C40358
:100E6000C701B60175D24B015C018091C503909119
:100E7000C603A091C703B091C80389839A83AB834B
:100E8000BC8320E030E040E850ECC701B60160D2FE
:100E900029813A814B815C815BD26D837E838F8314
:100EA0009887A3019201C701B6019AD09B01AC01BA
:100EB0006D817E818F8198854BD22B013C01A501EC
:100EC0009401C501B40144D29B01AC01C301B2013C
:100ED00088D0A5D2A501940183D04B015C01A70164
:100EE0009601C701B6017DD029813A814B815C8191
:100EF0002FD29B01AC01C501B401DBD06B017C0199
:100F000083E792E074DB6091B5037091B603809142
:100F1000B7039091B803E7DB83E892E068DB609168
:100F2000B9037091BA038091BB039091BC03DBDBE2
:100F30008AE992E05CDBC701B601D5DB81EA92E089
:100F400056DB2AE037ED43EA5BE3C701B60100D286
:100F50002AE939E949E95EE344D0C5DB85E692E058
:100F600046DB60E070E0CB010CD16B0183EB92E0DB
:100F70003EDBC6018ADB87EF93E0F4DA84EC92E093
:100F800036DBC60182DB87EE93E0ECDA84EC92E09C
:100F90002EDBC6017ADBC1DA6B017C0188EE882E7C
:100FA00083E0982EA12CB12CB8DA6C197D098E093A
:100FB0009F09683E734081059105B0F391E0891A5D
:100FC0009108A108B108A8EECA0EA3E0DA1EE11C40
:100FD000F11C81149104A104B10431F715DAFECE9D
:100FE0005058BB27AA270ED075C166D130F06BD1FF
:100FF00020F031F49F3F11F41EF45BC10EF4E09534
:10100000E7FB51C1E92F77D180F3BA176207730765
:101010008407950718F071F49EF58FC10EF4E095E2
:101020000B2EBA2FA02D0B01B90190010C01CA01A2
:10103000A0011124FF27591B99F0593F50F4503E4D
:1010400068F11A16F040A22F232F342F4427585F3F
:10105000F3CF469537952795A795F0405395C9F757
:101060007EF41F16BA0B620B730B840BBAF091500F
:10107000A1F0FF0FBB1F661F771F881FC2F70EC0AE
:10108000BA0F621F731F841F48F487957795679581
:10109000B795F7959E3F08F0B3CF9395880F08F06A
:1010A0009927EE0F979587950895D9D008F481E098
:1010B00008950CD00FC107D140F0FED030F021F4DC
:1010C0005F3F19F0F0C0511139C1F3C014D198F34A
:1010D0009923C9F35523B1F3951B550BBB27AA27B9
:1010E00062177307840738F09F5F5F4F220F331F2B
:1010F000441FAA1FA9F333D00E2E3AF0E0E830D0F7
:1011000091505040E695001CCAF729D0FE2F27D0F9
:10111000660F771F881FBB1F261737074807AB07C7
:10112000B0E809F0BB0B802DBF01FF2793585F4F3C
:101130002AF09E3F510568F0B6C000C15F3FECF356
:10114000983EDCF3869577956795B795F7959F5F01
:10115000C9F7880F911D9695879597F90895E1E055
:10116000660F771F881FBB1F621773078407BA07B4
:1011700020F0621B730B840BBA0BEE1F88F7E0950F
:10118000089504D06894B111D9C00895BCD088F0F6
:101190009F5790F0B92F9927B751A0F0D1F0660F63
:1011A000771F881F991F1AF0BA95C9F712C0B1307E
:1011B00081F0C3D0B1E00895C0C0672F782F882791
:1011C000B85F39F0B93FCCF3869577956795B395BD
:1011D000D9F73EF490958095709561957F4F8F4F2C
:1011E0009F4F0895E89409C097FB3EF49095809531
:1011F000709561957F4F8F4F9F4F9923A9F0F92FDD
:1012000096E9BB279395F695879577956795B7955A
:10121000F111F8CFFAF4BB0F11F460FF1BC06F5F40
:101220007F4F8F4F9F4F16C0882311F096E911C052
:10123000772321F09EE8872F762F05C0662371F073
:1012400096E8862F70E060E02AF09A95660F771F87
:10125000881FDAF7880F9695879597F90895990F63
:101260000008550FAA0BE0E8FEEF16161706E80770
:10127000F907C0F012161306E407F50798F0621B91
:10128000730B840B950B39F40A2661F0232B242B66
:10129000252B21F408950A2609F4A140A6958FEF85
:1012A000811D811D089597F99F6780E870E060E0D7
:1012B00008959FEF80EC089500240A9416161706EF
:1012C00018060906089500240A9412161306140637
:1012D00005060895092E0394000C11F4882352F09A
:1012E000BB0F40F4BF2B11F460FF04C06F5F7F4F52
:1012F0008F4F9F4F089557FD9058440F551F59F039
:101300005F3F71F04795880F97FB991F61F09F3FF2
:1013100079F087950895121613061406551FF2CF1B
:101320004695F1DF08C0161617061806991FF1CF6B
:1013300086957105610508940895E894BB27662792
:101340007727CB0197F908958ADF08F48FEF089586
:101350000BD0C0CFB1DF28F0B6DF18F0952309F02D
:10136000A2CFA7CF1124EACFC6DFA0F3959FD1F378
:10137000950F50E0551F629FF001729FBB27F00D43
:10138000B11D639FAA27F00DB11DAA1F649F662798
:10139000B00DA11D661F829F2227B00DA11D621FE7
:1013A000739FB00DA11D621F839FA00D611D221FA1
:1013B000749F3327A00D611D231F849F600D211D85
:1013C000822F762F6A2F11249F5750408AF0E1F028
:1013D00088234AF0EE0FFF1FBB1F661F771F881F71
:1013E00091505040A9F79E3F510570F05CCFA6CFB9
:1013F0005F3FECF3983EDCF3869577956795B7955C
:10140000F795E7959F5FC1F7FE2B880F911D969585
:10141000879597F9089511F40EF44BCF42C073DF0E
:10142000D0F39923D9F3CEF39F57550B87FF47D0BD
:101430000024A0E640EA900180585695979528F43C
:10144000805C660F771F881F20F026173707480734
:1014500030F4621B730B840B202931294A2BA6958B
:1014600017940794202531254A2758F7660F771FD0
:10147000881F20F026173707480730F4620B730BDC
:10148000840B200D311D411DA09581F7B901842FDA
:101490009158880F969587950895E1DE880B990BF2
:1014A00008959F3F31F0915020F487957795679587
:1014B000B795880F911D9695879597F90895915046
:1014C0005040660F771F881FD2F70895A1E21A2EA9
:1014D000AA1BBB1BFD010DC0AA1FBB1FEE1FFF1FD8
:1014E000A217B307E407F50720F0A21BB30BE40B28
:1014F000F50B661F771F881F991F1A9469F760956F
:101500007095809590959B01AC01BD01CF01089528
:10151000EE0FFF1F881F8BBF0790F691E02D1994E7
:04152000F894FFCF6D
:101524006F7574646F6F7248756D69646974792C32
:101534006F7574646F6F7274656D706572617475C4
:1015440072652C7261696E2C62617474657279744F
:10155400656D702C626174746572796375727265FD
:101564006E742C62617474657279766F6C746167E1
:10157400650000000000990104013101E5016201E8
:10158400400154010D0A006E616E00696E66006FC1
:10159400766600416E616C6F672072656164696E86
:1015A400672000546865726D6973746F7220726588
:1015B40073697374616E6365200054656D703A20BD
:1015C4000054656D70206F66667365743A202B2F26
:1015D4002D200020736F6C617263757272656E7476
:1015E400203D2000206261747465727963757272A3
:0815F400656E74203D2000002B
:00000001FF
