:1000000002C1000030C100002EC100002CC1000060
:100010002AC1000028C1000026C1000024C1000040
:1000200022C1000020C100001EC100001CC1000050
:100030001AC1000018C1000016C1000014C1000060
:1000400012C1000010C100000EC100000CC1000070
:100050000AC1000008C1000006C100003BC5000045
:1000600002C1000001C50000D6C40000FCC00000B1
:10007000FAC00000F8C00000F6C00000F4C00000A4
:10008000F2C00000F0C00000EEC00000ECC00000B4
:10009000EAC00000E8C00000E6C00000E4C00000C4
:1000A000E2C00000E0C00000DEC00000DCC00000D4
:1000B000DAC00000D8C00000D6C00000D4C00000E4
:1000C000D2C00000D0C00000CEC00000CCC00000F4
:1000D000CAC00000C8C00000C6C00000C4C0000004
:1000E000C2C0000000002100240027002A002D00CB
:1000F0003000330001010000040107010A01000083
:100100002200250028002B002E00310034000201BF
:100110000000050108010B0100000A0B02090C0D8B
:100120000E080703040100000000000000000000AA
:1001300000000000000000000000000000000000BF
:10014000000000001211100000000000000000007C
:10015000000000000000000000000000000000009F
:1001600020002300260029002C002F00320000016F
:10017000000003010601090105050505070508083A
:100180000808020202020A0A080804040404010121
:100190000101010101010303030303030303040736
:1001A00007070C0C0C0C0C0C0C0C020202020606CD
:1001B0000606060606060B0B0B0B0B0B0B0B0102C0
:1001C0001020200808102040102040800201020169
:1001D0000804020101020408102040808040201021
:1001E000080402018004020180402010080402017A
:1001F00008040201010204081020408001020408E2
:1002000010204080B40511241FBECFEFD1E2DEBF25
:10021000CDBF00E00CBF12E0A0E0B2E0E8E4F4E102
:1002200000E00BBF02C007900D92A433B107D9F7CD
:1002300023E0A4E3B2E001C01D92AF32B207E1F7C0
:1002400011E0C3E0D1E000E006C021970109802F52
:10025000FE010E941A0AC230D10780E00807A9F700
:1002600041D50C94220ACCCECF92DF92EF92FF922E
:10027000CF93DF93B0912303A0E08111AB2F809146
:10028000240390E0880F991FAC01425A5E4FC09042
:100290002903D0902A03E0902B03F0902C0330E048
:1002A00020E0FA01C591D491E881B90190E080E0A5
:1002B000EB23EA130AC02F5F3F4F6C157D058E05B7
:1002C0009F0578F36FEF7FEFCB01DF91CF91FF9028
:1002D000EF90DF90CF900895AF92BF92CF92DF92D0
:1002E000EF92FF920F931F93CF93DF936C017B01EB
:1002F0008B01040F151FEB015E01AE18BF08C0177C
:10030000D10759F06991D601ED91FC910190F081EE
:10031000E02DC6011995892B79F7C501DF91CF91A1
:100320001F910F91FF90EF90DF90CF90BF90AF9013
:100330000895FC01538D448D252F30E0842F90E0EB
:10034000821B930B541710F0CF96089501970895D0
:10035000FC01918D828D981761F0A28DAE0FBF2F99
:10036000B11D5D968C91928D9F5F9F73928F90E0EF
:1003700008958FEF9FEF0895FC01918D828D98175E
:1003800031F0828DE80FF11D858D90E008958FEF9B
:100390009FEF0895FC01918D228D892F90E0805C64
:1003A0009F4F821B91098F73992708958DE392E0E7
:1003B000F1DF21E0892B09F420E0822F0895FC0170
:1003C000A48DA80FB92FB11DA35ABF4F2C91848DB6
:1003D00090E001968F739927848FA689B7892C9313
:1003E000A089B1898C91837080648C93938D848D66
:1003F000981306C00288F389E02D80818F7D808369
:100400000895EF92FF920F931F93CF93DF93EC0128
:1004100081E0888F9B8D8C8D98131AC0E889F989AB
:10042000808185FF15C09FB7F894EE89FF896083AE
:10043000E889F98980818370806480839FBF81E02F
:1004400090E0DF91CF911F910F91FF90EF90089571
:10045000F62E0B8D10E00F5F1F4F0F731127E02E4C
:100460008C8D8E110BC00FB607FCFACFE889F98985
:10047000808185FFF5CFCE01A2DFF2CFEB8DEC0FAF
:10048000FD2FF11DE35AFF4FF0829FB7F8940B8FB9
:10049000EA89FB8980818062D0CFCF93DF93EC0122
:1004A000888D8823B1F0AA89BB89E889F9898C9164
:1004B00085FD03C0808186FD0CC00FB607FCF7CF19
:1004C0008C9185FFF2CF808185FFEDCFCE0177DF64
:1004D000EACFDF91CF91089580E090E0892B21F061
:1004E00065DF81110E94000080E090E0892B49F0D7
:1004F00080E090E0892B29F00E94000081110E9489
:10050000000080E090E0892B49F080E090E0892BAA
:1005100029F00E94000081110E94000080E090E01C
:10052000892B49F080E090E0892B29F00E9400009F
:1005300081110C9400000895CF93DF9390E0FC01AB
:10054000E254FE4F249188589E4FFC0184918823E9
:10055000C9F090E0880F991FFC01EC51FF4FA59165
:10056000B491FC01E250FF4FC591D49161110DC0CF
:100570009FB7F8948C91209582238C9388812823AF
:1005800028839FBFDF91CF910895623051F49FB7C8
:10059000F8943C91822F809583238C93E8812E2BB5
:1005A000EFCF8FB7F894EC912E2B2C938FBFEACF1F
:1005B0003FB7F8948091350290913602A0913702AE
:1005C000B091380226B5A89B05C02F3F19F00196BF
:1005D000A11DB11D3FBFBA2FA92F982F8827BC019D
:1005E000CD01620F711D811D911D42E0660F771FC5
:1005F000881F991F4A95D1F708958F929F92AF92C5
:10060000BF92CF92DF92EF92FF924B015C01D0DF5D
:100610006B017C01CDDF6C197D098E099F09683E55
:10062000734081059105B0F321E0821A9108A10879
:10063000B10888EEC80E83E0D81EE11CF11C8114BD
:100640009104A104B10431F7FF90EF90DF90CF90B7
:10065000BF90AF909F908F9008958F929F92AF928E
:10066000BF92EF92FF920F931F93CF93DF93CDB77B
:10067000DEB7C054D1400FB6F894DEBF0FBECDBF79
:100680002FB7F8948091390290913A02A0913B02E1
:10069000B0913C022FBF40912503509126036091F9
:1006A0002703709128038C019D01041B150B260B59
:1006B000370BB901A801403D574061057105A0F411
:1006C00080912D03C05CDE4F0FB6F894DEBF0FBEE5
:1006D000CDBFDF91CF911F910F91FF90EF90BF9011
:1006E000AF909F908F900895809325039093260359
:1006F000A0932703B09328031092200310921F03A6
:1007000010921E0310921D0310921C0362E0809150
:10071000210312DF61E070E080E090E06EDF61E0D5
:100720008091210309DF2091210330E0F901E85E87
:10073000FE4F8491F901E254FE4F949128583E4FA8
:10074000F9012491222309F432C0882309F1815050
:100750008231F0F4E82FF0E08827EF54FC4F8F4F00
:1007600069C608040C04C30300040404C8030F048E
:10077000150419041F04230427042D043104C8039D
:1007800035043B043F04809180008F778093800084
:10079000E22FF0E0EE0FFF1FE250FF4FA591B49162
:1007A0008FB7F894EC9190959E239C938FBF809186
:1007B00022038551823008F066C08BE291E10197F7
:1007C000F1F762E080912103B7DE80912E0390E083
:1007D0008230910538F0880F991F880F991F05976F
:1007E0000197F1F7F89480E03FDD6F3F7F4F8F4F27
:1007F0009F4F09F04EC010922D03789480E062CF95
:10080000809180008F7DC2CF80918000877FBECF96
:1008100084B58F7784BDBCCF84B58F7DFBCF8091AD
:10082000B0008F778093B000B3CF8091B0008F7D00
:10083000F9CF809190008F7780939000A9CF80911D
:1008400090008F7DF9CF80919000877FF5CF8091C8
:10085000A0008F778093A0009BCF8091A0008F7D18
:10086000F9CF8091A000877FF5CF809120018F770D
:10087000809320018DCF809120018F7DF9CF8091D1
:100880002001877FF5CF64E170E080E090E0B5DE85
:1008900098CF81E0E9DC6F3F7F4F8F4F9F4F09F486
:1008A000AACF9E012F5F3F4F79015E013FEBA31A54
:1008B0003EEFB30A870180E0D7DCF80160837183E3
:1008C0008283938381E0D0DCF8016483758386831F
:1008D0009783085F1F4FA016B10669F7789430E040
:1008E00020E0F70180809180A280B380448155810F
:1008F00066817781FFEF8F169F06AF06BF0631F046
:100900004F3F0FEF50076007700719F410922D0347
:1009100075CFF90183E0F595E7958A95E1F7E45EF7
:10092000FC4F8081880F84169506A606B70618F13D
:1009300080832F5F3F4F18E0E10EF11C2832310514
:1009400081F64091200320911C0380911D03280F04
:100950003327331F80911E03280F311D80911F0301
:10096000820F932F911D99274817190679F681E078
:1009700080932D03A7CE8160DBCFFC010190002086
:10098000E9F73197AF01481B590BBC018DE392E0A9
:10099000A3CC8F929F92AF92BF920F931F93CF934E
:1009A000DF93CDB7DEB7A1970FB6F894DEBF0FBEC9
:1009B000CDBF19A2423008F44AE08E010F5D1F4FEF
:1009C000842E912CB12CA12CA501940111D5E62FD8
:1009D000B901CA01EA30ECF4E05DD801EE938D0173
:1009E000232B242B252B81F790E080E0109711F02A
:1009F000CD01C3DFA1960FB6F894DEBF0FBECDBF09
:100A0000DF91CF911F910F91BF90AF909F908F90EA
:100A10000895E95CE2CF1F920F920FB60F92112456
:100A20000BB60F922F933F934F935F936F937F93E8
:100A30008F939F93AF93BF93EF93FF938DE392E0D8
:100A4000BEDCFF91EF91BF91AF919F918F917F910C
:100A50006F915F914F913F912F910F900BBE0F902F
:100A60000FBE0F901F9018951F920F920FB60F9206
:100A700011240BB60F922F938F939F93EF93FF93B5
:100A8000E0914D02F0914E028081E0915302F0918D
:100A9000540282FD1DC09081809156028F5F8F733A
:100AA00020915702821741F0E0915602F0E0E35C9A
:100AB000FD4F958F80935602FF91EF919F918F91FB
:100AC0002F910F900BBE0F900FBE0F901F90189597
:100AD0008081F2CF1F920F920FB60F9211242F93A5
:100AE0003F938F939F93AF93BF93809139029091DF
:100AF0003A02A0913B02B0913C023091340223E0D3
:100B0000230F2D3758F50196A11DB11D20933402F6
:100B10008093390290933A02A0933B02B0933C0237
:100B20008091350290913602A0913702B09138023F
:100B30000196A11DB11D8093350290933602A093BA
:100B40003702B0933802BF91AF919F918F913F913F
:100B50002F910F900FBE0F901F90189526E8230F2E
:100B60000296A11DB11DD2CFCF93DF93EDE3F2E04A
:100B70001382128288EE93E0A0E0B0E08483958334
:100B8000A683B78384E092E09183808385EC90E034
:100B90009587848784EC90E09787868780EC90E047
:100BA000918B808B81EC90E0938B828B82EC90E038
:100BB000958B848B86EC90E0978B868B118E128EB2
:100BC000138E148EACE1B3E080E315968C931597E9
:100BD0008BE016968C931697EEEEF1E0E491179663
:100BE000EC931797E8EAF1E0E4911896EC931897E4
:100BF00040E85EE360E070E01D964D935D936D9379
:100C00007C935097ECE0F3E0108211821282138201
:100C100082E490E09783868384EC99E091878087D3
:100C20001386128614861586168617868DE390E045
:100C300095838483E8EFF2E010821182128213829E
:100C400017861686108A118A128A138A87E390E023
:100C50009583848380E098EEADE7B9E4868397833B
:100C6000A087B18780E099E4A9E5B8E482879387FB
:100C7000A487B587EEEDF2E080E090E0AAE7B4E467
:100C800082879387A487B58782E391E1A0E8BBE3DD
:100C900086879787A08BB18B8FE795E0ABE1B5EBAB
:100CA000828B938BA48BB58B85E698EFA7E3BEEA86
:100CB000868B978BA08FB18F89E390E0918380839F
:100CC000CAEDD2E084E390E0998388838FE090E0DE
:100CD0009B838A8360E084E32FDC60E08A81DF917C
:100CE000CF912ACC789484B5826084BD84B581602C
:100CF00084BD85B5826085BD85B5816085BD8091E7
:100D00006E00816080936E0010928100809181005E
:100D10008260809381008091810081608093810056
:100D2000809180008160809380008091B100846018
:100D30008093B1008091B00081608093B000809179
:100D400091008260809391008091910081608093F6
:100D50009100809190008160809390008091A1002B
:100D600082608093A1008091A10081608093A100A6
:100D70008091A00081608093A00080912101826019
:100D800080932101809121018160809321018091D4
:100D9000200181608093200180917A00846080939B
:100DA0007A0080917A00826080937A0080917A0044
:100DB000816080937A0080917A00806880937A00C5
:100DC0001092C100E0914D02F0914E0282E08083CA
:100DD000E0914902F0914A021082E0914B02F091B9
:100DE0004C0280E1808310925502E0915102F09113
:100DF000520286E08083E0914F02F09150028081A0
:100E000080618083E0914F02F09150028081886080
:100E10008083E0914F02F09150028081806880834E
:100E2000E0914F02F091500280818F7D808362E0DB
:100E30008091210381DB2FB7F89480913902909142
:100E40003A02A0913B02B0913C022FBF805D9740D7
:100E5000A109B1098093250390932603A09327034A
:100E6000B093280387E380932E034AE061E070E0AB
:100E700080E090E08EDD82E192E07FDD84E192E02F
:100E80007CDD82E192E079DDE8DB882309F452C061
:100E9000809122038C3009F45AC048F48B30F1F071
:100EA000C12CD12C80ECE82E8FE7F82E3CC0855168
:100EB0008230B0F7C0911E036C2F70E0762F66274A
:100EC00066277F7780911F03682B90E080E073D1C5
:100ED0002DEC3CEC4CEC5DE324D251C060911E0340
:100EE00070E090E080E067D16B017C01C0911F034E
:100EF000C7FF09C0AC019B0160E070E080E89FEB98
:100F0000C5D06B017C01CF706C2F70E090E080E069
:100F100054D12DEC3CEC4CEC5DE303D2A7019601DF
:100F2000B6D06B017C01A7019601C701B6015CD266
:100F3000882371F186E292E020DD82E392E01DDDFC
:100F400068EE73E080E090E058DBC6DA8ECFC091A7
:100F50001E036C2F70E090E080E02DD16B017C01CE
:100F600060911F036F7070E090E080E026D12DEC5F
:100F70003CEC4CEC5DE3D5D1A701960188D06B0128
:100F80007C01C7FFD0CFF7FAF094F7F8F094CBCFFD
:100F900046015701E894B7F82FEF3FEF4FE75FE7BF
:100FA000C501B40121D281110CC02FEF3FEF4FE7F3
:100FB0005FE7C501B401CFD018161CF48AE292E0B5
:100FC000BBCF2FEF3FEF4FE75FE4C701B601A5D1DD
:100FD00018161CF48EE292E0AFCF2FEF3FEF4FE7F1
:100FE0005FECC701B601B7D087FDF4CF20E030E059
:100FF000A901C701B601AFD087FF08C06DE28DE33C
:1010000092E0FFD9F7FAF094F7F8F0942AE037ED80
:1010100043EA5BE3C701B6013AD04B015C019FD0C4
:101020006B017C01C8D09B01AC01C501B4012ED07D
:101030004B015C014AE0C701B601ABDC6EE28DE317
:1010400092E0DFD920E030E040E251E4C501B40194
:1010500068D14B015C0183D06B01F12CE12C4AE09B
:10106000C701B60196DCC701B601A5D09B01AC0152
:10107000C501B4010BD020E030E040E251E451D191
:101080006ED090E080E04AE084DC57CF5058BB2718
:10109000AA270ED008C1F9D030F0FED020F031F4EC
:1010A0009F3F11F41EF4EEC00EF4E095E7FBE4C0A0
:1010B000E92F0AD180F3BA176207730784079507EF
:1010C00018F071F49EF522C10EF4E0950B2EBA2FA4
:1010D000A02D0B01B90190010C01CA01A00111243E
:1010E000FF27591B99F0593F50F4503E68F11A16EA
:1010F000F040A22F232F342F4427585FF3CF46957B
:1011000037952795A795F0405395C9F77EF41F169C
:10111000BA0B620B730B840BBAF09150A1F0FF0F66
:10112000BB1F661F771F881FC2F70EC0BA0F621F52
:10113000731F841F48F4879577956795B795F79542
:101140009E3F08F0B3CF9395880F08F09927EE0FD4
:101150009795879508956CD008F481E00895BCD0E8
:1011600088F09F5790F0B92F9927B751A0F0D1F090
:10117000660F771F881F991F1AF0BA95C9F712C01A
:10118000B13081F0C3D0B1E00895C0C0672F782F8F
:101190008827B85F39F0B93FCCF386957795679586
:1011A000B395D9F73EF490958095709561957F4FF2
:1011B0008F4F9F4F0895E89409C097FB3EF4909598
:1011C0008095709561957F4F8F4F9F4F9923A9F020
:1011D000F92F96E9BB279395F695879577956795AF
:1011E000B795F111F8CFFAF4BB0F11F460FF1BC0F3
:1011F0006F5F7F4F8F4F9F4F16C0882311F096E986
:1012000011C0772321F09EE8872F762F05C0662333
:1012100071F096E8862F70E060E02AF09A95660FEC
:10122000771F881FDAF7880F9695879597F90895A5
:10123000990F0008550FAA0BE0E8FEEF16161706E7
:10124000E807F907C0F012161306E407F50798F04F
:10125000621B730B840B950B39F40A2661F0232B68
:10126000242B252B21F408950A2609F4A140A695E4
:101270008FEF811D811D089597F99F6780E870E0C9
:1012800060E008959FEF80EC089500240A941616FC
:10129000170618060906089500240A941216130664
:1012A000140605060895092E0394000C11F48823F2
:1012B00052F0BB0F40F4BF2B11F460FF04C06F5F0E
:1012C0007F4F8F4F9F4F089557FD9058440F551FE4
:1012D00059F05F3F71F04795880F97FB991F61F0B8
:1012E0009F3F79F087950895121613061406551F2F
:1012F000F2CF4695F1DF08C0161617061806991F9B
:10130000F1CF86957105610508940895E894BB278F
:1013100066277727CB0197F908958ADF08F48FEFC6
:1013200008950BD0C0CFB1DF28F0B6DF18F09523B9
:1013300009F0A2CFA7CF1124EACFC6DFA0F3959F73
:10134000D1F3950F50E0551F629FF001729FBB27AC
:10135000F00DB11D639FAA27F00DB11DAA1F649F58
:101360006627B00DA11D661F829F2227B00DA11D0B
:10137000621F739FB00DA11D621F839FA00D611D91
:10138000221F749F3327A00D611D231F849F600DB2
:10139000211D822F762F6A2F11249F5750408AF0EB
:1013A000E1F088234AF0EE0FFF1FBB1F661F771F77
:1013B000881F91505040A9F79E3F510570F05CCFB7
:1013C000A6CF5F3FECF3983EDCF386957795679563
:1013D000B795F795E7959F5FC1F7FE2B880F911D95
:1013E0009695879597F9089523DF880B990B0895B3
:1013F000A1E21A2EAA1BBB1BFD010DC0AA1FBB1F19
:10140000EE1FFF1FA217B307E407F50720F0A21B8A
:10141000B30BE40BF50B661F771F881F991F1A94F7
:1014200069F760957095809590959B01AC01BD0121
:10143000CF010895EE0FFF1F881F8BBF0790F69115
:08144000E02D1994F894FFCF90
:101448000000000001026C0199014D02CA01A801C7
:10145800BC012C004F7574646F6F7254656D7053C6
:10146800656E736F72006E616E00696E66006F76EE
:0414780066000A0000
:00000001FF
